:020000040000FA
:200000000203370218034100C4002202180B222222FFFF021813E4FFA10EFF02181B75C8A7
:200020000122FF021823FFFFFFFFFF02182BFFFFFFFFFF021833FFFFFFFFFF02183BFFFF8B
:20004000FFFFFF021843FFFFFFFFFF02184BFFFFFFFFFF021853FFFFFFFFFF02185BFFFF10
:20006000FFFFFF021863FFFFFFFFFF02186BFFFFFFFFFF021873BB010689828A83E02250D2
:2000800002E722BBFE02E32289828A83E49322BB010CE58229F582E5833AF583E0225006A3
:2000A000E92582F8E622BBFE06E92582F8E222E58229F582E5833AF583E49322BB01068960
:2000C000828A83F0225002F722BBFE01F322F8BB010DE58229F582E5833AF583E8F0225019
:2000E00006E92582C8F622BBFE05E92582C8F222C5F0F8A3E028F0C5F0F8E58215827002FB
:200100001583E038F022A3F8E0C5F025F0F0E582158270021583E0C838F0E822BB010A89B7
:20012000828A83E0F5F0A3E022500687F009E71922BBFE07E3F5F009E3192289828A83E423
:2001400093F5F074019322BB010A89828A83F0E5F0A3F0225006F709A7F01922BBFE06F3CB
:20016000E5F009F31922EF2BFFEE3AFEED39FDEC38FC22C3EF9BFFEE9AFEED99FDEC98FCFA
:200180002275F008758200EF2FFFEE33FECD33CDCC33CCC58233C5829BED9AEC99E582989E
:2001A000400CF582EE9BFEED9AFDEC99FC0FD5F0D6E4CEFBE4CDFAE4CCF9A88222B800C180
:2001C000B90059BA002DEC8BF084CFCECDFCE5F0CBF97818EF2FFFEE33FEED33FDEC33FC38
:2001E000EB33FB10D703994004EB99FB0FD8E5E4F9FA227818EF2FFFEE33FEED33FDEC33D3
:20020000FCC933C910D7059BE99A4007EC9BFCE99AF90FD8E0E4C9FAE4CCFB2275F010EF2E
:200220002FFFEE33FEED33FDCC33CCC833C810D7079BEC9AE899400AED9BFDEC9AFCE89964
:20024000F80FD5F0DAE4CDFBE4CCFAE4C8F922EF5BFFEE5AFEED59FDEC58FC22EB9FF5F038
:20026000EA9E42F0E99D42F0E89C45F022E8600FECC313FCED13FDEE13FEEF13FFD8F12234
:20028000E8600FEFC333FFEE33FEED33FDEC33FCD8F122E0FCA3E0FDA3E0FEA3E0FF22E080
:2002A000F8A3E0F9A3E0FAA3E0FB22ECF0A3EDF0A3EEF0A3EFF022A8828583F0D083D08265
:2002C0001202CE1202CE1202CE1202CEE473E493A3C583C5F0C583C8C582C8F0A3C583C569
:2002E000F0C583C8C582C822E0FBA3E0FAA3E0F922F8E0FBA3A3E0F925F0F0E58215827072
:20030000021583E0FA38F022EBF0A3EAF0A3E9F022D083D082F8E4937012740193700DA36B
:20032000A393F8740193F5828883E4737402936860EFA3A3A380DF75814B02079BAEFFEE26
:2003400054CFFEEFC454F024804EF5FF2290091151AB9009115193B1A1900915E06F603466
:20036000110F9102EF6004111080F7B11AB1DB9000BAE0FF91E660099009115193781071F8
:200380009A900911719690091191EF900915E0FFB108D322C32251937808516DE4E5C820F5
:2003A000E2FB8FEB229000D151AB9000D57108110F9102EF6004111080F7B11AB1DB900004
:2003C000BAE0FF91E660099000D151937810719A9000D171969000D15193E4801B9000D838
:2003E000D1BB60189000D551E8EA494B60089000D5120E2B8001E4FF719D80E1B126E4FF38
:20040000A10E7F01B10E30021491D8915290092AEFF0B12690092AE020E002C20230021731
:2004200091419000B8EF91F4600BA3E0F46006EF30E702C202B126E4FFB10EA202E433FFE7
:2004400022B1DB7FD7719D7FFF719D91569000B7EFF07FFF719DE5C820E2FBAFEB227F017F
:20046000B10E9009287401F0900928E0602E91D89152900928EFF0B12691419000B8EFF0AC
:20048000B126900928E0540191F460DCA3E0F460D7EF30E7D3E4900928F080CCB1DB7F9FBC
:2004A000719D91529000B991509000BE91509000BFEFF0B10A9000B7E0F4601BA3E0F4609C
:2004C000169000BEE0FD541F240FA3F0EDC413540744809000BEF022B1DB7F05619D7F01D1
:2004E000B10EB1DB7F03719D9000BDE06402225193E4619DF09000B7E0FFF422FFFFFFFF7E
:20050000FFFFFFFFFFFFFFFF719DB126E4FFEFB4010443FE202253FEDF227F01B10ED2028B
:20052000B1DB7F06719D1213E7EF70FA9000BEE0F4600A9009277406F0F17D70FC9000BC5B
:20054000E07111055F04056714056C15057117058130058634058B36059037000005794376
:200560004610854680802F43471080084347208003434780854790801D4348208548A08041
:2005800015434901800D434910800843494080034349808549B0900927740CF0F17D70FC25
:2005A0002290090C51AB110F9102EF6004111080F791DE600990090C51937810719A90094D
:2005C0000C719690090C91EF9152900910EFF0B10A900910E0FF227F01B10E9000BCE07137
:2005E0001105FD04060514060A15060F17061F30062434062936062E37000006175346EF4C
:20060000854680802F5347EF80085347DF800353477F854790801D5348DF8548A0801553F2
:2006200049FE800D5349EF80085349BF800353497F8549B07F0CDFFE22110F9102EF6004CC
:20064000111080F7B11AB1DB7F01719D7F03719DB126E4FFA10E9000DA51AB9000DE7108D7
:20066000110F9102EF6004111080F791DE60099000DA51937810719A9000DA71969000DA48
:2006800091EF9000E1D1BB601291529000DE51E8EF11BC9000DF1212AA80E7B126E4FFA126
:2006A0000E9000B7E020E012B1D77F3D719D7F2A719D7F80719D7FA6B1082274FFF5F03154
:2006C0000645F022900929EFF09000C5E064027022B1D7900929E07FAB60027FB9719DB142
:2006E00026900929E09000C4F070047F1EDFFEE4FFB10E22900000EEF0A3EFF0A351939035
:20070000000851AB900006E0FFA3E090000CCF805D90000C120FDC605BC3EF9440EE940039
:200720004006A37440F0800590000EEFF0F185E0FF120D0DEFF09000085193D15690000E89
:20074000E0FFC390000DE09FF090000CE09400F0900008519F90000EE4FCFDFE31669000C3
:200760000851ABF174F185120C32900000EEF0A3EFF0809D900000E0FEA3E0FF229009276B
:20078000E014F0E0227B017A00790F90000E22110F9102EF6004111080F72275FF03759EEB
:2007A000029017FAE493F53C75FF02E5E654036003020B5D753CDE753DAD753EBE753FEF87
:2007C000C2AF75FF0275E404F5E47546FF7547FF7548FF7549FF7542FF7543FF7544FF7574
:2007E00045FF75FF0253E6BF1212CD1210D4120FE3EF64016003020B5490180893FE74018E
:2008000093FF9000ADEEF0A3EFF0F5828E83E493F540740193F541740293F54A740393F5F0
:200820004B740493F530740593F531740693F532740793F533C201EF4E7002212BEFF4FF01
:20084000EEF44F7002212BE540454AFEE541454BFFE5304EFEE5314FFFE5324EFEE5334FB3
:200860004E7002212BE54BF4FFE54AF4FEE541F4FDE540F44EFEED4FFFE531F4FDE530F461
:200880004EFEEF4DFFE533F4FDE532F44EFEEF4D4E7002212B7F0312033DE53324FFFFE536
:2008A00032B124640370247F0212033DE53124FFFFE530B124B402137F0112033DE54B2452
:2008C000FFFFE54AB124B40102D20120015D7F0112033DB1459000E8E54AF0A3E54BF07F6D
:2008E0000F7E1D91A57F02B13A9000E8E530F0E53191A37F03B13A9000E8E532F0E5339150
:20090000A37F0112033D900922E0FEA3E0FF7BFF7A187900E425419000E9F0E54034E8903E
:2009200000E891A44EC37001D39201300109B19AEF6401600261549000ADE0FEA3E0F582AD
:200940008E83740C93F53A740D93F53B9000961202937160900079B181FD9000AF7188EF03
:200960002408FFE43E71727B007A007938B10D7402F0120656C200D3900078E09539900034
:2009800077E09538400241639000AF12029FC000C001C002C003AE38AF39E4FCFDC006C024
:2009A00007900077E0FEA3E0FBAA06E4F9F8D007D006120173D003D002D001D00012016656
:2009C000716090007B120293EF24F2FFEE34FFB14C9000AFB1D4400241639000AF120293E2
:2009E0007A00799FB10B740EF01206569000ABE0F536A3E0F5379000A1E0F54AA3E0F54BC1
:200A0000A3E0F530A3E0F531A3E0F532A3E0F533900092120293EF24FFFFEE347F71727161
:200A200060AE4AAF4BE4FCFD9000AF71881205A1EF6401702E71667160AE30AF31E4FCFD62
:200A40009000AF71881205A1BF021871667160AE32AF33E4FCFD9000AF71881205A1BF03D4
:200A600002D200200002615030010EE53B65377004E53A6536700261507B017A0979227178
:200A80008E4002615090009B1202B700001800717A612A7440D395345002613F90007B9173
:200AA000B3EE34F8B14C9000AF12029FD312025C4002613F90009B1202937B007AF879011C
:200AC0007800C312025C40779000AF1202930B7A0179009000E17408F0A3E4F0120656E429
:200AE000F535FB91DFAF34B156E535C39408502091DDE5357F00FEEF2400F974013EFA7B55
:200B00000190090BE535F0AD34121330053580D990009B91B3EE3408717290009B1202ABF7
:200B20009000AF91B3EE340871727160E4FB7A08F9F890009B1202931201BD8F3441937455
:200B400040D39534400A91DDAF34B156053480EFE4FFB1DBE4F53CF53DF53EF53F02180038
:200B60009000AF0202AB9000AF120293E42FFFEE3480FEE43DFDE43CFC22900079E0FEA309
:200B8000E0FFE4FCFD90009612029F02016690091F120308717AEF2408FFE43E71727A00FE
:200BA000797FB10B7402F012065690007FB181FD90009271887B017A007984B10D740EF031
:200BC000120656900092716991C2900086B12D7F0F7E1D91C8B114C006C00791B0E43E919C
:200BE000BA900088B12DD007D00691C8B114C006C00791B0EE348091BA90008AB12DD007F0
:200C0000D00691C8B114C006C007717A91C2900085E02400FE900084E034E8900006F0A3C5
:200C2000CEF0D007D00691C812011C45F0C37001D322E0FD9000E8E4F0A3EDF09000E3EE59
:200C4000F0A3EFF0A31203089000E81206BB604A9000E5D12B9000EAF07D80ED60EA919A33
:200C6000EE7C0030E7027C019000EAE05D7B0060027B01EB6CFCEF25E0FFEE339000E3F09A
:200C8000A3EFF0AF04EF600C9000E3E06410F0A3E06421F0EDC313FD80C19000E3E0FEA320
:200CA000E0FF22A3F0913C900922EEF0A3EFF022900092120293E42FFF22FEED3401FDE498
:200CC0003CFC9000020202AB1206F490091F1202E8EE8FF012014790091F0202E87B007A7B
:200CE00000793CB17A75FF03120076F5D375FF03900001B11B900002B11B900003B11B7547
:200D0000D40175FF03E5D55402FF227B019000E1E4F0A32212011CFFAEF02212008FF5D379
:200D200075FF0322347F8F82F583E49322E0FFA3E0900006CFF0A3EFF02212033D900922DD
:200D4000E0FEA3E0FF7BFF7A80790022FEED34FFFDEC34FFFC2275FF03EF543F4480F5D149
:200D6000E5D520E20AE5D520E005E5D530E1F1E5D55403FF75FF0375D50575FF0375D4029A
:200D800022E0FEA3E0FFE4FC227F0F7E1D91349000EF1202E89000F28132E4900926F0900E
:200DA000009AE06020B1CB70087FFF7E77FDFC800CD11B50107FFF7EFF7D017C001205A154
:200DC000900926EFF0900926E0FF22E4FFFE7D02FC90007B12029FC302025C900924EFF0DC
:200DE000E4A3F090009AE06021B1CB7008D1107E777D00800AD11B5011D1107EFF7D017C7B
:200E00000012034DE433900925F0900925E0FF22900924E0900915F07FFF2290007B1202F2
:200E200093E4FBFA7904F8D302025CE475F0011202F1020076B17A75FF03E5D5F45402FF32
:200E4000229000FCD15CC0079000FC1202E89000FFE0FFB10DEFF0D007020656120308E427
:200E6000FCFD22900902D15CC0079009021202E8900905F1D0F0D00790004F1202AB9000DD
:200E800053120308E4900076F0D3900057E0941E900056E094004001227B017A00795890A8
:200EA0000056E0FFA3E09000E1CFF0A3EFF090004F1202931206569000531202E8E94A6062
:200EC0000F900076E0F58275830012008FFF80027F00900076E02458F582E43400F583E0C4
:200EE0006F6002C322900076E004FFF0D3900057E09F900056E0940050BD229000C6120237
:200F0000AB9000CA1203081214389000CDF1D0F09000C6120293D1785002E1C59000C1E0D4
:200F200024FFFF9000C0E034FFFEE4FCFD9000C612029F12024F9000CFEEF0A3EFF04E6078
:200F40003BF1C7C39000C1E09FFF9000C0E09EFE9000CFF0A3EFF09000CDE0FCA3E0FDD3E3
:200F60009FEC9E5006A3ECF0A3EDF01213F3E94A6004F1C780427E007F00803C9000CDF1C3
:200F8000DC60409000C0E0FCA3E0FDD3EF9DEE9C400A9000CFECF0A3EDF0800D9000CDE071
:200FA000FFA3E0A3CFF0A3EFF01213F3E94A6004F1C780047E007F009000CBEE8FF0120009
:200FC000F080B9D322C3229000CFE0FEA3E0FF22E0FFA3E0900056CFF0A3EF22E0FEA3E011
:200FE000FF4E22E490009AF07B017A007981121378900083E0FBB411229000961202B70031
:201000000078009000921202B7000060009000777418F0A3E4F0A3F0A380277412D39B50F0
:20102000279000961202B7000200009000921202B700020000E4900077F0A3F0A37418F01A
:20104000A3E4F090009A04F090009AE0FB6017E4FFFE7D02FC900083E024EFF9F812028098
:2010600090007B1202ABAF032275FF03E4F59751B1E59720E1FB75FF03AF9922900916EFF2
:20108000F0A3EDF0A3120308900917E06045901215E06012900916E02410FF1169900918F5
:2010A0001202E8EF8017900916E0640190091870071202E8748080051202E874FF1200BCE0
:2010C00090091951AA900917E014F0900916E004F080B5227B017A0079BC7F0351917A00EC
:2010E00079C57F0851917A0079C27D027F09117C7B017A0079C07D027F0B117C9000C012D9
:201100000FDC6006BEFF1BBFFF189000C5E024FD600304700451A080099000C0E4F0A374EA
:2011200040F09000C5E024FD60030470089000BD7403F080069000BD7402F09000BCE0121F
:201140000311115E04116914117115117917118F30119734119F3611A7370000118475FFB8
:20116000015342EF8542FD804775FF015343EF800E75FF015343DF800675FF0153437F8558
:2011800043C9802C75FF015344DF8544CA802175FF015345FE801675FF015345EF800E75D8
:2011A000FF015345BF800675FF0153457F8545CB1205267F11518BE4FF1206C412045E90C5
:2011C00000BA7402F09000BEE0247F60090470165198740A80071206A151987458F090004F
:2011E000BD7403F051A09000BFE0F4600241889000C2E0FEA3E0FF64104E70069000BF74DF
:201200000EF0EF64204E70069000BF740FF0EF64404E70069000BF7410F0EF64804E700626
:201220009000BF7411F0E4B5070AEEB401069000BF7412F0E4B5070AEEB402069000BF74BB
:2012400013F0E4B5070AEEB404069000BF7414F0E4B5070AEEB408069000BF7415F0E4B5B3
:20126000070AEEB410069000BF7416F0E4B5070AEEB420069000BF7417F0E4B5070AEEB454
:2012800040069000BF7418F0020639EF4420F5FE227D01117C7B01227F10518B9000BA2214
:2012A0009000C07401F0A3E4F022E475F0010200F075FF038F9875FF032275FF03759701E9
:2012C00051B1E59720E1FB75FF03AF992290091B7410F090091BE0FFD3947F503D1169907B
:2012E000091CEFF090091BE0B410067E1D7F0F800890091DE0FEA3E0FF7B017A09791C90A1
:2013000000E8E4F0A304F0120C3C90091DEEF0A3EFF090091BE004F080B990091DE0700241
:20132000A3E07F0070027F01901215EFF024FF2275FF03ACD5EC20E13C75FF03ED543FF5D1
:20134000D175FF03E9F5D375FF03EA540FFF90090BE0C4547044804FF5D2E5D520E205E545
:20136000D530E0F6E5D55401FC75FF0343D40275FF0375D505AF04229000B9E01200BC90D5
:2013800000BEE09000011200CE9000BFE09000020200CEE4FCFD0205A1AB05E4FCFD900902
:2013A00015EBF002034D9000F5120E5CC0079000F51202E89000F8E0FFA3E09000CDCFF09C
:2013C000A3EFF0D007020EFBEFB40109D2AD75FF0143AE4022C2AD75FF0153AEBF22E5C842
:2013E0005402FF75C80222E5C85404FF22E5C85401FF229000CA1202E89000CFE0FFA3E0D7
:201400009000D8CFF0A3EFF09000C61202931203A59000CFE0FEA3E0FFC39000CEE09FF01D
:201420009000CDE09EF09000C612029FE4FCFD1201669000C61202AB9000CA0202E8FFFF29
:20144000FFFFFFFFFFFFFFFFFFFFFFFFFFFFFFFFFFFFFFFFFFFFFFFFFFFFFFFFFFFFFFFFAC
:20146000FFFFFFFFFFFFFFFFFFFFFFFFFFFFFFFFFFFFFFFFFFFFFFFFFFFFFFFFFFFFFFFF8C
:20148000FFFFFFFFFFFFFFFFFFFFFFFFFFFFFFFFFFFFFFFFFFFFFFFFFFFFFFFFFFFFFFFF6C
:2014A000FFFFFFFFFFFFFFFFFFFFFFFFFFFFFFFFFFFFFFFFFFFFFFFFFFFFFFFFFFFFFFFF4C
:2014C000FFFFFFFFFFFFFFFFFFFFFFFFFFFFFFFFFFFFFFFFFFFFFFFFFFFFFFFFFFFFFFFF2C
:2014E000FFFFFFFFFFFFFFFFFFFFFFFFFFFFFFFFFFFFFFFFFFFFFFFFFFFFFFFFFFFFFFFF0C
:20150000FFFFFFFFFFFFFFFFFFFFFFFFFFFFFFFFFFFFFFFFFFFFFFFFFFFFFFFFFFFFFFFFEB
:20152000FFFFFFFFFFFFFFFFFFFFFFFFFFFFFFFFFFFFFFFFFFFFFFFFFFFFFFFFFFFFFFFFCB
:20154000FFFFFFFFFFFFFFFFFFFFFFFFFFFFFFFFFFFFFFFFFFFFFFFFFFFFFFFFFFFFFFFFAB
:20156000FFFFFFFFFFFFFFFFFFFFFFFFFFFFFFFFFFFFFFFFFFFFFFFFFFFFFFFFFFFFFFFF8B
:20158000FFFFFFFFFFFFFFFFFFFFFFFFFFFFFFFFFFFFFFFFFFFFFFFFFFFFFFFFFFFFFFFF6B
:2015A000FFFFFFFFFFFFFFFFFFFFFFFFFFFFFFFFFFFFFFFFFFFFFFFFFFFFFFFFFFFFFFFF4B
:2015C000FFFFFFFFFFFFFFFFFFFFFFFFFFFFFFFFFFFFFFFFFFFFFFFFFFFFFFFFFFFFFFFF2B
:2015E000FFFFFFFFFFFFFFFFFFFFFFFFFFFFFFFFFFFFFFFFFFFFFFFFFFFFFFFFFFFFFFFF0B
:20160000FFFFFFFFFFFFFFFFFFFFFFFFFFFFFFFFFFFFFFFFFFFFFFFFFFFFFFFFFFFFFFFFEA
:20162000FFFFFFFFFFFFFFFFFFFFFFFFFFFFFFFFFFFFFFFFFFFFFFFFFFFFFFFFFFFFFFFFCA
:20164000FFFFFFFFFFFFFFFFFFFFFFFFFFFFFFFFFFFFFFFFFFFFFFFFFFFFFFFFFFFFFFFFAA
:20166000FFFFFFFFFFFFFFFFFFFFFFFFFFFFFFFFFFFFFFFFFFFFFFFFFFFFFFFFFFFFFFFF8A
:20168000FFFFFFFFFFFFFFFFFFFFFFFFFFFFFFFFFFFFFFFFFFFFFFFFFFFFFFFFFFFFFFFF6A
:2016A000FFFFFFFFFFFFFFFFFFFFFFFFFFFFFFFFFFFFFFFFFFFFFFFFFFFFFFFFFFFFFFFF4A
:2016C000FFFFFFFFFFFFFFFFFFFFFFFFFFFFFFFFFFFFFFFFFFFFFFFFFFFFFFFFFFFFFFFF2A
:2016E000FFFFFFFFFFFFFFFFFFFFFFFFFFFFFFFFFFFFFFFFFFFFFFFFFFFFFFFFFFFFFFFF0A
:20170000FFFFFFFFFFFFFFFFFFFFFFFFFFFFFFFFFFFFFFFFFFFFFFFFFFFFFFFFFFFFFFFFE9
:20172000FFFFFFFFFFFFFFFFFFFFFFFFFFFFFFFFFFFFFFFFFFFFFFFFFFFFFFFFFFFFFFFFC9
:20174000FFFFFFFFFFFFFFFFFFFFFFFFFFFFFFFFFFFFFFFFFFFFFFFFFFFFFFFFFFFFFFFFA9
:20176000FFFFFFFFFFFFFFFFFFFFFFFFFFFFFFFFFFFFFFFFFFFFFFFFFFFFFFFFFFFFFFFF89
:20178000FFFFFFFFFFFFFFFFFFFFFFFFFFFFFFFFFFFFFFFFFFFFFFFFFFFFFFFFFFFFFFFF69
:2017A000FFFFFFFFFFFFFFFFFFFFFFFFFFFFFFFFFFFFFFFFFFFFFFFFFFFFFFFFFFFFFFFF49
:2017C000FFFFFFFFFFFFFFFFFFFFFFFFFFFFFFFFFFFFFFFFFFFFFFFFFFFFFFFFFFFFFFFF29
:2017E000FFFFFFFFFFFFFFFFFFFFFFFFFFFFFFFFFFFFFFFFFFFFFFFFFFFF0426FFFEFFFFDE
:20180000021EF71958195D227FB8FF026AC55A2D5761766520342E353400FF026A871A75BB
:201820001A7AFF026ACA1B511B56FF02512EEF90183793901900730A20364CE560FF22EF04
:20184000F56022822D1C1613111010024CB71C871C8CFF026ACFC2D5E830E70FB2D5E4C38F
:201860009BFBE49AFAE499F9E498F8EC30E717B2D512188C1229BDE4C39BFBE49AFAE499EF
:20188000F9E498F880031229BD30D50DE4C39FFFE49EFEE49DFDE49CFC22789CE4F6D8FDAA
:2018A0009000007F007E10E4F0A3DFFCDEFA904FFFA3E583C394204011FEAF829020000EC3
:2018C0000FE48002F0A3DFFCDEFA121920021F0922323F241E16110E0B09070504030201A4
:2018E000F0C8A791776760463835323024222014000101020203030404050506060707FFF4
:20190000C0607419C0E0C082C08375600AE5FF54CF4490F5FF22C0607419C0E0C082C08353
:20192000756020E5FF54CF4490F5FF22C0607419C0E0C082C083756036E5FF54CF44A0F504
:20194000FF22C0607419C0E0C082C08375604CE5FF54CF44B0F5FF229080062116908218EB
:20196000211690824921169080D8211690830521169083CB21169083972116908C132116D4
:201980009081DA21169081DD21169081CF21169081F821169082DC2116908C3221169082ED
:2019A000222116909A692116909A6A2116909FF9211690A040211690BAE3211690BD3E2123
:2019C00016908D2A2116908C7C211690C3272116909B56211690C68E211690C6A321169060
:2019E000C6B5211690C76A211690C8FD211690C9772116908266211690CD5F211690CD0AA1
:201A0000211690CD26211690CC6C211690C291211690CD75211690C431211690CDAF2116B4
:201A200090BAFB211690BCB6211690BE8F211690BD4A211690835E211690BA0B211690BC8F
:201A40006C211690CB5B211690BC18211690CBE4211690CF94211690AAA6211690D116210C
:201A60001690BB1D211690C8FB211690C855211690C8AB211690D225211690ACDE2116906A
:201A8000DBFA212C908006212C90E165212C90E7C9212C9091CA212C90BD08212C90E1C204
:201AA000212C90E7E2212C90E7E3212C90E7E9212C90E7F5212C90B842212C90E81C212C6E
:201AC00090B943212C90B898212C90B7F7212C90CC36212C90BF1F212C90CF9F212C90DD23
:201AE000EF212C90CF63212C90CCF3212C90CC44212C90CBFB212C9099AD212C9087B42160
:201B00002C90A102212C909F23212C90E852212C90BA92212C90DFA5212C90E0C4212C90C8
:201B2000E2C3212C90E341212C908759212C90E049212C90E855212C90A50D212C90E8E7E7
:201B4000212C90E8F1212C90D40F212C90E8F7212C90C7E0212C90E8FD212C90CD06212C10
:201B600090CE8F212C909FDF212C90CFBC212C90D372212C909991212C90E36D212C90DEA4
:201B800016212C9086FA212C90EC4D212C90EFFE212C90CF75212C90DD4A212C90AF1E2102
:201BA0002C90D60F212C90BCD2212C90C7E2212C90E797212C90E755212C90BA3B212C9070
:201BC00087E7212C90DE9C212C9099E6212C90DFDD212C90F3DC212C90F41F212C9087BB90
:201BE000212C90BFA5212C90DEAB212C90DEA3212C90F4B0212C90F4BC212C90F4D8212CDC
:201C000090DCE9212C90F58B212C90B798212C90DAD9212C90DAFD212C90B584212C90F6B9
:201C20009A212C90D9DF212C90DAAC212C90DA13212C90DBD4212C90D9D6212C90B7E32198
:201C40002C90F72C212C90DBDF212C90F72D212C90CF37212C90CF45212C90F733212C9055
:201C6000B55E212C90F764212C90F7C2212C90F816212C90A8B4212C90CA82212C90A14E6A
:201C8000212C90AFE9212C90CF53212C90E2E2212C90F068212C9087DA212C908FC321422A
:201CA000908FD32142908FDC2142908FE5214290883B2142908FF32142908F64214290A8C1
:201CC00005214290A82D214290A87E214290A89B214290A8C7214290A967214290A9422184
:201CE0004290AD0E214290AE0B21429089B6214290933F214290840021429093B52142900F
:201D000090572142909021214290B05F214290909221429080AC214290B1492142908A5642
:201D2000214290B500214290A46E214290A0652142909F6D214290A114214290A06C2142F5
:201D400090B8AD21429093AD21429093A02142908FC621429088592142908FAC2142908F69
:201D6000AF2142908FB22142908FB5214290B8C0214290B8C3214290B8C6214290A03C210F
:201D80004290937F214290B8DC214290B908214290B90B214290B90E214290B91121429003
:201DA000A13021429087CE2142909CC3214290A12A21429090CD214290B9D1214290A17425
:201DC000214290B9DF214290B9F4214290BA0B21429093A32142909490214290941B2142DB
:201DE00090BAEB2142909EC6214290BB16214290AD43214290BC09214290884B214290A09F
:201E00003F214290809F2142908D98214290A1882142909F0B2142908C062142909B9421D8
:201E20004290B4D32142908B742142908039214290A1FF21429086AE21429080EA214290A1
:201E400086BD214290C094214290C278214290C31F214290C8DC2142908000214290A03722
:201E6000214290A17C214290CCBF214290A089214290A4C2214290CDAB214290A4DF21421B
:201E800000902DB0E47E0193700122A3FF543F30E509541FFEE493A360010ECF54E0B4E068
:201EA0003AEFFAEEF9E493FBA3E493FEA3E493FFA3E493FDC083C082C001C002C006C007C9
:201EC000121985D007D006D002D001D082D083A30FEF70010EDADAD9D880A954C025E06036
:201EE000105005A3DFFD809CA3A3A3DFFDDEFB8093A3A3DFFD808D75819C75FF03759E02E4
:201F0000121920023A3A0218D0902DB0E47E019360F4A3FF543F30E509541FFEE493A36021
:201F2000010ECF54E0B4E00EEFFAEEF9A3A3A3A3DAFDD9FB80D654C025E0604B5026E493DF
:201F4000A3F85407240CC8C333C4540F4420C8834004F456800146F6DFE480B0010204087A
:201F600010204080E493A3FAE493A3F8E493A3C8C582C8CAC583CAF0A3C8C582C8CAC58302
:201F8000CADFE9DEE78085E493A3F8E493A34003F68001F208DFF4021F0C5E86725985735E
:201FA000718480303170987A5AEF5E86725985737184803031707A5AEF5E98845AEF5E8629
:201FC00072845985737180303170987A1DBD1DC21DC71DCC1DD611224488012B7C012B7E1C
:201FE000012B7F012B81012B820201020101010204081019A319B219B719BC19C119CBFFCC
:20200000DFFE22A2AF92D5C2AF3104EF313B3188EC313B3188ED313B3188310474014F3102
:202020003B31887980800631BC31EDF709DBF831BC31FCF75135A2D592AF22A2AF92D5C264
:20204000AF3104EF313B3188EC313B3188ED313B31887980E7313B318809DBF85135A2D587
:2020600092AF22A2AF92D5C2AF3104EF313B3188ED313B3188516C310474014F313B31889E
:20208000516C7980800631BC31EDF709DBF831BC31FCF75135A2D592AF22A2AF92D5C2AF8C
:2020A0003104EF313B3188ED313B31887980E7313B318809DBF8516C5135A2D592AF22A225
:2020C000AF92D5C2AF310474014F313B31887980800631BC31EDF709DDF831BC31FCF7519A
:2020E00035A2D592AF22A2AF92D5C2AF3104EF313B31887980E7313B318809DDF85135A254
:20210000D592AF2275FF014353024357028553FD75FF014353014357018553FD516CC2818D
:2021200075FF015353FD8553FDC281516CC28075FF015353FE8553FDC280227808C28075E7
:20214000FF015353FE8553FDC28033400FC28175FF015353FD8553FDC281800C75FF01438B
:2021600053024357028553FD516C75FF014353014357018553FD516CD8C3C28075FF0153FE
:2021800053FE8553FDC2802275FF014353024357028553FD516C75FF01435301435701854E
:2021A00053FD516CA281724A924A00000000C28075FF015353FE8553FDC2802275FF01430B
:2021C00053024357028553FD780875FF014353014357018553FD516CA28133C28075FF0173
:2021E0005353FE8553FDC280516CD8DE22C28175FF015353FD8553FDC281800E75FF0143D6
:2022000053024357028553FD516C75FF014353014357018553FD516CC28075FF015353FEA7
:202220008553FDC280516CC28175FF015353FD8553FDC28122C28175FF015353FD8553FD05
:20224000C281C28075FF015353FE8553FDC280516C75FF014353014357018553FD516C755E
:20226000FF014353024357028553FD22000000000000000000000000000000000000000033
:20228000000000000000000000000000000000000000000000000000002202265BE86480CD
:2022A000F8E933E83360110460F0ED33EC337009E8FCE9FDEAFEEBFF220460DED3EB9FEA2B
:2022C0009EE99DE8C2E78CF0C2F795F0400CE8CCF8E9CDF9EACEFAEBCFFB12262685D0F0DE
:2022E0005804700320D5B3E80470075002B2D502266592D5EC0460F7E4CCC0E0C398F860ED
:202300003B94186008400DD0E0FB02263DE4FBFAC9FC8028E830E406E4C9FBE4CAFCE8305F
:20232000E305E4C9CACBFCE854076010F8C3E913F9EA13FAEB13FBEC13FCD8F130F52FC349
:20234000E49CFCEF9BFFEE9AFEED99FDD0E0FBEF4E4D4C701222DB03022662EC2CFCEF33AC
:20236000FFEE33FEED33FDED30E7EB02263DEF2BFFEE3AFEED39FDD0E0FB50130BBB000395
:20238000022665ED13FDEE13FEEF13FFEC13FC02263DEC4D6011E8497017ED33EC3304604E
:2023A0000DE4FCFFFEFD22E933E8330470F802265B12262658046009E4CC248150062850A8
:2023C00009022665284003022662C0E0EB4A7044B98006D0E0FB022651EF4E701CBD800878
:2023E000EBFFEAFEE9FD80EBE98DF0A4FEE5F002247BE9CDF9EAFEEBFFEF89F0A4FCE5F0DE
:20240000CE89F0A42EFFE435F0CD89F0A42DFEE435F08067EF4E7005BD80D780C3EF8BF023
:20242000A4ACF0EE8BF0A42CFCE435F0F8EF8AF0A42CE5F038FCE433CB8DF0A42CFCE5F0E4
:202440003BF8EE8AF0A42CFCE5F038F8E433CF89F0A42CFCE5F038CF3400CE89F0A42FFFBC
:20246000E5F03EFEE433C98DF0A42EFEE5F039CD8AF0A42FFFE5F03EFEE43DFD33D0E0FBEA
:2024800050070BBB000F022665EC2CFCEF33FFEE33FEED33FD02263D022665EC5D0460056E
:2024A000E85904700302265B122626580460F6EC4860F2EC7004FDFEFF22C860DB2481C85F
:2024C0005009C398600250060226629850CAF582E9294B4A7005AB8202265175F0007C1A20
:2024E0007880C3EF9BEE9AED99400DC3EF9BFFEE9AFEED99FDE842F0DC23ACF0D0E0FFD0B3
:20250000E0FED0E0FDAB8220E7101BEB60BAEC2CFCEF33FFEE33FEED33FD02263DE803F813
:2025200030E705C0F075F000EF2FFFEE33FEED33FD40B830E7C280AA74F8CC6480CCC86402
:2025400080C8F58204604FC3EB9FF5F0EA9E42F0E99D42F0E89C45F0603C501DE5825FFFDE
:20256000E582D313CB5BCBF42B5582FB50280ABA002409B9002008801DE5825BFBE582D34E
:2025800013CF5FCFF4C3132F5582FF50090EBE00050DBD00010CC3EB9FF5F0EA9E42F0E986
:2025A0009D42F0E89C45F06007CC4820E701B3EC2275F020800E75F010800575F0087D0058
:2025C0007E007F003392D530D503122A69EC334010EF33FFEE33FEED33FDEC33FCD5F0ED1E
:2025E00022E5F0247EA2D513CC92E7CDCEFF22EDD2E7CD33EC3392D524814006E4FFFEFDC2
:20260000FC22FCE4CFCECDCC24E0501174FF80EDC3CC13CCCD13CDCE13CECF13CF0470F062
:2026200030D5DE022A69E9D2E7C933E833F892D5EDD2E7CD33EC33FC5002B2D522EC30E74B
:20264000100FBF000C0EBE00080DBD00040BEB6014A2D5EB13FCED92E7FD2274FFFCFDFE24
:20266000FF22E480F8A2D574FF13FC7D80E480EFE709F608DFFA8046E709F208DFFA803E86
:2026800088828C83E709F0A3DFFA8032E309F608DFFA8078E309F208DFFA807088828C8390
:2026A000E309F0A3DFFA806489828A83E0A3F608DFFA805889828A83E0A3F208DFFA804C5A
:2026C00080D280FA80C680D4806980F28033801080A680EA809A80A880DA80E280CA80336B
:2026E00089828A83ECFAE493A3C8C582C8CCC583CCF0A3C8C582C8CCC583CCDFE9DEE780B4
:202700000D89828A83E493A3F608DFF9ECFAA9F0EDFB2289828A83ECFAE0A3C8C582C8CCF7
:20272000C583CCF0A3C8C582C8CCC583CCDFEADEE880DB89828A83E493A3F208DFF980CC01
:2027400088F0EF60010E4E60C388F0ED2402B4040050B9F582EB2402B4040050AF2323451C
:2027600082239026C073BB010689828A83E0225002E722BBFE02E32289828A83E49322BB68
:20278000010CE58229F582E5833AF583E0225006E92582F8E622BBFE06E92582F8E222E5F3
:2027A0008229F582E5833AF583E49322BB010989828A83F8E028F022500327F722BBFE0504
:2027C000F8E328F3228A838982F8E4932822BB010689828A83F0225002F722BBFE01F322EA
:2027E000F8BB010DE58229F582E5833AF583E8F0225006E92582C8F622BBFE05E92582C821
:20280000F222EF8DF0A4A8F0CF8CF0A428CE8DF0A42EFE22BC000BBE0029EF8DF084FFAD5E
:20282000F022E4CCF875F008EF2FFFEE33FEEC33FCEE9DEC984005FCEE9DFE0FD5F0E9E4A0
:20284000CEFD22EDF8F5F0EE8420D21CFEADF075F008EF2FFFED33FD4007985006D5F0F213
:2028600022C398FD0FD5F0EA22C5F0F8A3E028F0C5F0F8E582158270021583E038F022A334
:20288000F8E0C5F025F0F0E582158270021583E0C838F0E822BB010A89828A83E0F5F0A37E
:2028A000E022500687F009E71922BBFE07E3F5F009E3192289828A83E493F5F074019322D1
:2028C000BB0110E58229F582E5833AF583E0F5F0A3E0225009E92582F886F008E622BBFE81
:2028E0000AE92582F8E2F5F008E222E5832AF583E993F5F0A3E99322BB010A89828A83F0F9
:20290000E5F0A3F0225006F709A7F01922BBFE06F3E5F009F31922EF2BFFEE3AFEED39FDE5
:20292000EC38FC22C3EF9BFFEE9AFEED99FDEC98FC22E88FF0A4CC8BF0A42CFCE98EF0A435
:202940002CFC8AF0EDA42CFCEA8EF0A4CDA8F08BF0A42DCC3825F0FDE98FF0A42CCD35F01F
:20296000FCEB8EF0A4FEA9F0EB8FF0A4CFC5F02ECD39FEE43CFCEAA42DCE35F0FDE43CFC10
:202980002275F008758200EF2FFFEE33FECD33CDCC33CCC58233C5829BED9AEC99E5829876
:2029A000400CF582EE9BFEED9AFDEC99FC0FD5F0D6E4CEFBE4CDFAE4CCF9A88222B800C158
:2029C000B90059BA002DEC8BF084CFCECDFCE5F0CBF97818EF2FFFEE33FEED33FDEC33FC10
:2029E000EB33FB10D703994004EB99FB0FD8E5E4F9FA227818EF2FFFEE33FEED33FDEC33AB
:202A0000FCC933C910D7059BE99A4007EC9BFCE99AF90FD8E0E4C9FAE4CCFB2275F010EF06
:202A20002FFFEE33FEED33FDCC33CCC833C810D7079BEC9AE899400AED9BFDEC9AFCE8993C
:202A4000F80FD5F0DAE4CDFBE4CCFAE4C8F922EF5BFFEE5AFEED59FDEC58FC22EF4BFFEE58
:202A60004AFEED49FDEC48FC22C3E49FFFE49EFEE49DFDE49CFC22EB9FF5F0EA9E42F0E996
:202A80009D42F0EC6480C864809845F022EB9FF5F0EA9E42F0E99D42F0E89C45F022E860F8
:202AA0000FECC313FCED13FDEE13FEEF13FFD8F122E86010ECA2E713FCED13FDEE13FEEF9A
:202AC00013FFD8F022E8600FEFC333FFEE33FEED33FDEC33FCD8F122BB010789828A8302A0
:202AE0002B425005E9F8022D36BBFE05E9F8022D4289828A83022B4EBB010DE58229F5825B
:202B0000E5833AF583022B425007E92582F8022D36BBFE07E92582F8022D42E58229F58228
:202B2000E5833AF583022B4EBB010789828A83022BCF5005E9F8022D68BBFE05E9F8022D8E
:202B40007422E0FCA3E0FDA3E0FEA3E0FF22E493FC740193FD740293FE740393FF22E0F8DC
:202B6000A3E0F9A3E0FAA3E0FB22E493F8740193F9740293FA740393FB22BB010789828ACA
:202B800083022B5E5005E9F8022D4EBBFE05E9F8022D5B89828A83022B6A7401FF3395E080
:202BA000FEFDFCA3A3A3E0CF2FF0E582158270021583E0CE3EF0E582158270021583E0CDCE
:202BC0003DF0E582158270021583E0CC3CF022ECF0A3EDF0A3EEF0A3EFF022A8828583F023
:202BE000D083D082122BF2122BF2122BF2122BF2E473E493A3C583C5F0C583C8C582C8F0F7
:202C0000A3C583C5F0C583C8C582C822A42582F582E5F03583F58322E0FBA3E0FAA3E0F916
:202C200022F8E0FBA3A3E0F925F0F0E582158270021583E0FA38F022EBF0A3EAF0A3E9F07B
:202C400022BB010789828A83022C185005E9F8022D80BBFE05E9F8022D9289828A83022DA5
:202C6000A4BB011A89828A83D0F0D0E0F8D0E0F9D0E0FAD0E0FBE8C0E0C0F0022C38501658
:202C8000E9F8D083D082D0E0F9D0E0FAD0E0FBC082C083022D89BBFE16E9F8D083D082D04E
:202CA000E0F9D0E0FAD0E0FBC082C083022D9B22D083D082F8E4937012740193700DA3A314
:202CC00093F8740193F5828883E4737402936860EFA3A3A380DFD083D082F8E49370127476
:202CE0000193700DA3A393F8740193F5828883E473740293B5F0067403936860E9A3A3A3B9
:202D0000A380D88A838982E473EC8EF0A4CCC5F0CCCDF8EFA4CEC5F02DFDE43CFCE8A42E13
:202D2000C8C5F03DFDE43CFCEFA4FFE5F028FEE43DFDE43CFC22E6FC08E6FD08E6FE08E630
:202D4000FF22E2FC08E2FD08E2FE08E2FF22E6FB08E6F908E6FA08E6CBF822E2FB08E2F957
:202D600008E2FA08E2CBF822ECF608EDF608EEF608EFF622ECF208EDF208EEF208EFF22220
:202D8000E6FB08E6FA08E6F922EBF608EAF608E9F622E2FB08E2FA08E2F922EBF208EAF208
:202DA00008E9F222E493FB740193FA740293F922412CFD004102B20041349E00C151C139F8
:202DC000410415060114004104140141041301C12F011A00011700C130C132C12641253344
:202DE00000412599FF41259100C125C12441259A0041259B0041259201C12841253200C1D7
:202E000035C12C013000C129C12A4331E00000004131DF004131E3000120004129AD004117
:202E20003158FF413153FFC1B6C13841315200C137412C8F00412C9800412C9C00412C9B08
:202E400000412C9700412C9200422C900000422C9E0000C15F412C0A00412C1128412C17A4
:202E600000422C080000412C1600412C0700412C0D0043330B00000041330E00432B4500B5
:202E80000000412B4A00C160492B3B4C6966656C696E65004E2B4B20013003800331057142
:202EA0000584075A014134C20041320D0041320B0041320C00412AB532C161422A9A0000F9
:202EC000422AB10000422AA503E8422AA30000422AB30000422AA00000422A9CFFFF412A2E
:202EE000A800412DD500412DD3004132A2FF4132A0FF41329F0A4232120000C14041321456
:202F0000004133CC0A4133CD004133CE004129E41E4229F300004229EE00004229EC0FFF5C
:202F20004229FE00004129E8004229E502034129EB004121C3004122840041207000C1424C
:202F4000C14141206EFF412026004121C402412210FF4121FE0041271300412765FF605029
:202F6000271401030300000505001C370501001C37000701000002030300000201001C37F3
:202F80000306001C370301001C370101001C37010202000000080400000404050000000407
:202FA000051C410005000000FF03FE0000FFFFFE1C325927690207D01C3C0307D01C3C050F
:202FC00000141C3C0107D01C3C0407D01C3C412680FF4126FCFF41270FFF412710FF412785
:202FE0000E004127030041270D0043270800000041270C004326FD000000412702004127C5
:203000000B00422711000042270400004227060000609625E900000000000000000000004B
:20302000000000000000000000000000000000000000000000000000000000000000000090
:20304000000000000000000000000000000000000000000000000000000000000000000070
:20306000000000000000000000000000000000000000000000000000000000000000000050
:20308000000000000000000000000000000000000000000000000000000000000000000030
:2030A00000000000000000000000004132A7004132A5004132A400C144C1434132A3FF4168
:2030C00032A60041319300502ABAA81FFF7F3F3F079FFFFFFFFFFF1313FF502ACA0003000F
:2030E00000000100010080808080830300C114C10FC111C10CC116C108C10AC10BC109C142
:203100001AC118C11BC10EC115C110C112C10DC117C11C412B7B00412B7A00412B86004114
:203120002B8500412B8E00C119C193412B8800422B780000412B7500422EA6F448C178442E
:2031400030EC000000004230F000004130F300442B2B00000000442B2F00000000442B33B3
:2031600000000000442B3700000000422B1C0000422B1E000060402966004057340398748C
:20318000BC002B0A480000AFBB000A228D017E7248038E3A947B6B01000025352F0218A908
:2031A000FC001B199A00006DAC0006600600C30DEE0388EE64DB8F010041340C0041340DB7
:2031C0000041340B004132DE004132DC00442924000000006030292B0000177000003A9801
:2031E0000000753000009C400000C3500000EA60000111700001388000015F90000186A09F
:203200000001ADB00001D4C041292A00E00C0261250086000000020064010F043641341AEE
:203220000042341B000000000000000000000000000000000000001C4B1C501C551C5A1C27
:203240005F1C641C691C6E980500000E08F8000E0F3800000000020C00003F3F3F040404A9
:20326000F1000000000E1000000E1000000E100102040800000000000000000000000000F4
:2032800000000000000019F819FD1A021A071A0C1A111A1B1A2ABD441C0A1C0F1C141C1949
:2032A0001C1E1C231C281C2D0014012204881220488080000204061B331B381B3D1B421B4E
:2032C000471C321C371C3C1C411C461AB61ABB1AC01AC51ACF1AE31AE81AED1B061B0B1B40
:2032E000101B1A1B1F1B241BAB1BB01BB51BC41BCE1BDD1DEF1DF400000B69400000001A04
:20330000521A5C1B4C1B921BF11D271E1C902CF5E0122CB0333004333814333D15334217D1
:20332000335230335734335C363361370000334A5357EF855780802F5358EF80085358DFBD
:20334000800353587F855890801D5359DF8559A08015535AFE800D535AEF8008535ABF80D0
:2033600003535A7F855AB07F0CDFFE227F01B18690349B7401F090349BE0602ED1C491088F
:2033800090349BEFF091BD71F7902CF1EFF091BD90349BE05401F18960DCA3E0F460D7EF78
:2033A00030E7D3E490349BF080CC710D7F9F71EF9108902CF29106902CF79106902CF8EFDD
:2033C000F0B182902CF0E0F4601BA3E0F46016902CF7E0FD541F240FA3F0EDC413540744B6
:2033E00080902CF7F022122B427808122A9EE4E5C820E2FB8FEB22710D7FD771EF7FFF7162
:20340000EF910C902CF0EFF07FFF71EFE5C820E2FBAFEB227F01B186304F14D1C491089049
:20342000349DEFF091BD90349DE020E002C24F304F1771F7902CF1EFF189600BA3E0F460E4
:2034400006EF30E702C24F91BDE4FFB186A24FE433FF22902F65122BCF902F69122C38D11D
:203460007B9114EF6004D16680F791B1710D902CF3E0FFD15D600A902F65122B42781071A9
:20348000EB902F6571E6902F65122B42E48018902F6CF19B6015902F69F15D6008902F6975
:2034A000E4F1928001E4FF71EF80E491BDE4FFA1867F01B186D24F710D7F0671EFF1BFEF4B
:2034C00070FB902CF7E0F4600A90349A7406F0F16470FC902CF5E0122CB034F60434FA1418
:2034E00034FF15350417351430351934351E363523370000350CF182802F43581080084348
:2035000058208003435880855890801D4359208559A08015435A01800D435A108008435ABF
:20352000408003435A80855AB090349A740CF0F16470FC22903262122BCF903262122B4298
:20354000B192903266E06F6035D17B9114EF6004D16680F791B1710D902CF3E0FFD15D604E
:203560000A903262122B42781071EB90326271E6903262D1BE903266E0FFB180D322C3227A
:2035800071EF91BDE4FFEFB4010443FE202253FEDF2290325D122BCFD17B9114EF6004D1DD
:2035A0006680F7D155600A90325D122B42781071EB90325D71E690325DD1BE91089032613C
:2035C000EFF0B182903261E0FF22D17B9114EF6004D16680F791B1710D7F0171EF7F037130
:2035E000EF91BDE4FF809F902F6E122BCF902F72122C38D17B9114EF6004D16680F7D15594
:20360000600A902F6E122B42781071EB902F6E71E6902F6ED1BE902F75F19B601491089013
:203620002F72122C18EF1227CE902F73E4F1C580E591BDE4FFA186902CF0E020E0167F01F2
:20364000B186710D7F3D71EF7F2A71EF7F8071EF7FA6B180227F01B186710D7F0371EF9012
:203660002CF6E0640222E51530E20FE51520E50AE51530E0057F01123EA32275FF02E5E4B9
:2036800030E10675E40675E4032290349CEFF0902CFEE0640270267F01B186710D90349CCC
:2036A000E07FAB60027FB971EF91BD90349CE0902CFDF070047F1EDFFEE4FFB18622122B68
:2036C00042E461EF710D7F0561EF902888EEF0A3F1CB902890122BCF90288EE0FFA3E09019
:2036E0002894CF8069902894E0FEA3E0FF4E6064C3EF9440EE94004006A37440F0800590EE
:203700002896EFF0F16CE0FFF1DAEFF0902890122B42B1E7902896E0FFC3902895E09FF01B
:20372000902894E09400F0902890122B5E902896E4FCFDFE122917902890122BCFF154F1F1
:203740006CE0FDF1D1EDF01219F3902888EEF0A3EFF08091902888E0FEA3E0FF22122C189A
:20376000EA494B2290349AE014F0E0227B017A28799790289622D17B9114EF6004D16680CC
:20378000F72243571085578022F0902CF0E0FFF422E475F001122C2102276674FFF5F012B5
:2037A000287F45F02290341D122C38ED600C90341DF191FF12565A1D80F122E4FFA186E598
:2037C000C85404FF2275F001022869EFF0A3022B42903091E4F0A3227B01902F75E4F0A3AD
:2037E00022D1CA903429122C18EE8FF00228F8902CF2E01227CE902CF7E09000011227E068
:20380000902CF8E09000020227E07A2C79F57F03F1CF7A2C79FE7D017F081219E97B017AF7
:203820002C79FB7D027F0931CF7B017A2C79F97D027F0B31CF902CF9E0FEA3E0FF4E60067B
:20384000BEFF1BBFFF18902CFEE024FD600304700431D28009902CF9E4F0A37440F0902C0C
:20386000FEE024FD6003047008902CF67403F08006902CF67402F0902CF5E0122CB0389A62
:2038800004389F1438A71538AF1738C53038CD3438D53638DD37000038BA12709980477509
:2038A000FF015354EF800E75FF015354DF800675FF0153547F8554C9802C75FF015355DF7E
:2038C0008555CA802175FF015356FE801675FF015356EF800E75FF015356BF800675FF017E
:2038E00053567F8556CB1234BD7F1131C1E4FF12368A12336C902CF37402F0902CF7E02443
:203900007F600904701631C7740A800712363731C77458F0902CF67403F031D2902CF8E055
:20392000F4600221BE902CFBE0FEA3E0FF64104E7006902CF8740EF0EF64204E7006902CEA
:20394000F8740FF0EF64404E7006902CF87410F0EF64804E7006902CF87411F0E4B5070A13
:20396000EEB40106902CF87412F0E4B5070AEEB40206902CF87413F0E4B5070AEEB404069F
:20398000902CF87414F0E4B5070AEEB40806902CF87415F0E4B5070AEEB41006902CF874EA
:2039A00016F0E4B5070AEEB42006902CF87417F0E4B5070AEEB44006902CF87418F0023567
:2039C000CAEF4420F5FE227F1031C1902CF3220219E9902CF97401F0A3E4F022110A12651A
:2039E000411219D51252729002B3E064017F0060027F01121A3E121A431219AD126EFE7A1C
:203A00000279B6121976F1AEFE4FFDA3E0FC4DFDA3E0FB4D600BEE5FFFEC5FFFEB5FF470A8
:203A200002D1BA90121CE0FF540324B6F582E43402F583E06F9002B1F02275FF0275E404AB
:203A4000E4F5E4C22E75FF02901215E0603CE5E6540364017034121A66125BAE4020901236
:203A600022E0600DE014F0700812189AE4901215F0901215E070026101124B0261011218D6
:203A80009AD22EE4901215F0807712189A12665B9002B3EFF0901200E0B47A14901214E0F5
:203AA000B49C0D9002B3E0FF64056004EFB4032EE49002BCF09002BCE0FFC394405013E4B7
:203AC0002FF582E43412F583E4F09002BCE004F080E3901200747AF0901214749CF01219E4
:203AE000EE7B017A1279107D017F011219E97A1279117F21F1CF7A1279127D017F2212195E
:203B0000E9121A6B12665B1250CB9002B3EFF01219DF1250869002B3E0FFB40602800C3073
:203B20002E047F0280059002B3E0FF121A7FEF24FFB3925175FF0253E6BF9002B3E06401DE
:203B40006005E4901215F0125112121A7031DC901215E0700F20510C121A847B017A257980
:203B60009D121A2090121DE030E0028003302E047F01D1A3D2AF305179125254124BA3128D
:203B80001AA21219E440F29002B2E06043D179EF700712586394004037E51470FCE515205A
:203BA000E502F12F121971EF70FA126620500512660C50057F0112368A9002B2E0B4020413
:203BC000E4FF80099002B2E0B403057F01124B1F91C4E51530E1A2D18A4002E4F0E5152010
:203BE000E50791B27D011260159002BC91B5F1B6808712501E124FEC5002D1BA9002B2E081
:203C0000605F902533E07059D179EF70071258639400404DE51470FCE51520E50990121D8A
:203C2000E020E002F12F121971EF70FA126620500512660C50057F0112368A9002B2E0B49D
:203C40000203E480189002B2E0B403047F01800E9002B2E0B4050A9012157401F0FF124B97
:203C60001F125254124BA3121A989002B0E0700491C48015124FD1FF9002B0E0FEC3EF9E88
:203C8000C394064002E4F0D2AD121807E51530E119D18A4002E4F0E51520E50791B27D01A5
:203CA0001260159002BC91B5F1B6121A5712507161F29002B4E075F0AA9002BF122C0CAF1A
:203CC00082AE8322E49004491265DD75F0E5E55ED16854F064407002C123E4FE75F0E5EEDC
:203CE000D168FDB4010990044AEEF0E4FF8022EDB4020B90044AE0B4FF04EEF0800E75F09B
:203D0000E5EED16854F0FDBD80027F010EEEB403CBEF600690044A74FFF090044AE0F47061
:203D200002C1231258915002C123E51530E102C12390044AE0900004F199E030E40A900011
:203D400006126553E0549FF090044AE09000B8F199E0540FFEBE05099000BCF1A7E030E15E
:203D60001B90044AE0900003F1A0E020E52775F0E5EF9000BB122C0CE0B4FF1990044AE002
:203D8000F1C6C083C082E04401FFA3E0D082D083CFF0A3EFF090044AE0FDF1C6E0FEA3E087
:203DA000FFC006C007ED75F0E5A424B3F9740035F0FA7B01C002C00190044AE09000D9F122
:203DC000A0E090042CF0EF75F0E5A42409F9740035F0FAA3122C3890044AE0FF75F0E5906D
:203DE00000B2122C0CE0900430F09000DAF1A7E0900431F0E4A3F0D001D002D007D00612C3
:203E000058B8501F90044AE0F55E75F0E5D1684440F09004497401F09022A2F0E51530E289
:203E200002D322E51530E2357F04D17075F0E5E55ED168FF54F06440701F75F0E5E55E12AB
:203E400065D5540FF075F0E5E55ED1684480F0E55E1265C61219A880047F01D1A3900449B3
:203E6000E024FF2275F0E5EF900001122C0CE022C2AFEFF45215D2AF22E4FFD16460037FAF
:203E800000220FEFB403F47F01227F02D1709002B4E09002BCF09002B404F0C3940222EFEB
:203EA000F07F01EF600991B2E4FD1260158008F124F12FE433FF227F0122E4FFD1A3EF6052
:203EC0003AF11DD1FC9002B6E0C394C040F37B017A0279B8D1FCF1AE5FFFA3E05FFFA3E004
:203EE0005FF460EA90121DE030E0047F01D1A3E490121CF0F11DE0FD12197B2290043F1254
:203F00002C38C252E4FFD1A3BF010B90043F122C1812460792527F01D1A3A252227B017A9B
:203F20000279B6221265E5EF700491C480F622E51470221258A85004C259F157F1BE124F1E
:203F40009EE5D120E0FB4315205315FEE4F510A22D92EDD322C32290349FE5F4F0E0547F44
:203F6000F5F47F827E00F1DDF1E35005E5FC20E6F730590890349FE04480F5F4F1D9F1E3E5
:203F80005005E5FC20E6F775FF01E5D520E702C322E5F4D330E601C322FF75F0E5022C0CA6
:203FA000FF75F0E5022C0C75F0E5EF022C0C9002B6E0FFA3E0229002B5E0FD0219D0125FBF
:203FC000807F08021AA775F0E5900005022C0C7B017D011219E97B01227FE87E031263B93C
:203FE00002477D75FF03E591C330E701D322EF75F004A4FDACF0E075F011A42408F9740016
:2040000035F0FAE92DF9EA3CFEAF01E4FCFD023592FEAF01E4FDAB05E4FCFD903266EBF0D9
:20402000023534FEAF017B007A0079929031C07404F09031BD1151C0079031BD122C189073
:2040400031C0E0FF902F75E4F0A3EFF0D0070235E7122C38E4FCFD2290310E1151C0079014
:20406000310E122C18903111F1F2F0D007902E4D122BCF902E51122C38902E51122C18909E
:204080002E541249E7F0902E4D122B42F1FE50022120902CFAE024FFFF902CF9E034FFFEE2
:2040A000E4FCFD902E4D122B5E122A4F902E56126FCD60303140902CFAE09FFF902CF9E0C6
:2040C0009EFE902E56F0A3EFF0902E5412587C5003125F2E312231536004314A80387E00E8
:2040E0007F008032902E54E0FEA3E0FF4E602F902CF9126F8C400A902E56ECF0A3EDF08044
:2041000007902E5412702AF0312231536004314A80047E007F00902E52126EBD80C6D3222B
:20412000C322902E51122C18902E56E0FFA3E0902F6CCFF0A3EFF0902E4D122B4212345330
:20414000902E56E0FEA3E0FFC322902E56E0FEA3E0FF22902E55E09FF0902E54E09EF090DE
:204160002E4D122B5EE4FCFD122917902E4D122BCF902E51122C18E94A22902F5B122C3899
:20418000902F5EECF0A3EDF0902A52E07002414051467050F16E514F504A902F5E7135FD17
:2041A000A3515FE4FB7A18F9F8C3122A8D5035902F60122B5EC3E49BFF74189AFEE499FDA0
:2041C000E498FCE4902F5C8FF0122869C3902F5FE09FF0902F5EE09400F0902F60122BDB3E
:2041E000000018005156126FE7902F5E7135FD122917902A331270D74041126DF34024E405
:20420000F16E514F4035902F5EE0FEA3E0FBE49BFF74A09EFE74019400FDE49400FCA35115
:204220004F50185156C007902F5B122C18902F5EF1F2F0D007116DE4338001E4902F64F015
:20424000902F64E0FF22E4FFFE7D02FC902A33122B5EC3022A8D902F60122B42902A4A1226
:204260002B5E022917903429122C387132FD902A4E515FEF24087173FC7A2A79371237D848
:204280007402F01235E7902A377135FD515C7A2A793C1237D8740EF01235E7713DEE3480DF
:2042A00071767122902A3E71477F0F7E1D1237E17129FFAEF0C006C007713DE43EF1667125
:2042C00022902A407147D007D0061237E17129FFAEF0C006C007713DEE3480F166712290A5
:2042E0002A427147D007D0061237E17129FFAEF0C006C0077132FD902A4E515F7123902A59
:204300003DE02400FE902A3CE034E890288EF0A3CEF0D007D0061237E1712945F0C37001FB
:20432000D322FC90288A022BCF903429122C18022895902A31E0FEA3E0FFE4FC22902A4AFB
:20434000122B42E42FFF22E0FFA3E090288ECFF0A3EFF022FF7E04FDFCE0F8A3E0F9A3E04E
:20436000FAA3E0FB122932E47B7DFAF9F81229BDEF2401FFE43EFEE43DFDE43C22902B90BB
:20438000122BCF75FF0243E180125F80F1AE902BA5122BDB002DC6C0E4F5FFF5A490120E1B
:2043A000F0A3F0902BA07402F0F1DBFFF595EF14601314601C24027027902B9091F0F1588C
:2043C000902B9C8016902B9491F0F158902B9D800A902B9891F0F158902B9EE0902BA9F04B
:2043E0001268BE902BA9E0700FF5FFF59675FF0175D70975F418805D90120EE004F0902BDC
:20440000A0E0124FC0902BA591F0FF902BA112696DE0FBC3122A8D500A902BA191F0FFA397
:20442000122BCF902BA9E0FF12673F902B9FE0FFA3E0FDA257925512679EA391F0FF9032E0
:2044400072122BCF902BA0E0FF1268CB902BA091E2FF12641EF1E3600261A97402F0F1DB8C
:20446000F595E5F454077017902BA57154F1D5902BA012695D122BCFEB91E3FF12641EF1EA
:20448000E370DB75FF03759580124FB8400343F420A25792561267F0902BA591F02420FFCC
:2044A000EE344E7176FCE4FB7A04F9F87164F1D5C25412627AE4F5FFE5BD54F84404F5BDFC
:2044C0009012137401F07E127F01E4FDEF2DF582E43EF583E0FC901213E02CF00DEDB41257
:2044E000EB22E025E025E02401F582E43412F583E0FCA3E0FDA3E0FEA3E022903128124BBF
:204500004890312E7401F0C258123FD9123FE35005E5FC20E6F612638DBF0108E4F5FC7541
:20452000FC40800812638DBF0202D322124FB1903129E0FF12697775FF0153D5DF53FAFB6C
:20454000903128E0FF124E5E903129E0903128B4080991E224527173FC800391E2FF126429
:204560001E90312AE0FFF1EC75FF0175FF03759B04123FD975FC42E5FC20E105123FE3403E
:20458000F390312BE0F075FF03E59B20E705123FE340F3E59B20E70D75FF03759B1F125F57
:2045A00080D258804FF15F1263E7903129E0FD90120FE05D701C903128E0FFF15F125CAC63
:2045C00090120FE0FF903129E0FEEF4E90120FF091C01261687B017A31792C126370500F69
:2045E000C390312DE0942090312CE0940340E6F15F12648FF188305802A10190312EE0B46F
:204600000103D38001C322902E58126415902E5E122BDB00000001902E627401F0F5FFE529
:20462000D554C070051258B05002C322E4F5FF53967F75FF0175D5047F3FFEF18475FF0122
:2046400043D508E4F5FF5394FBF5FF53847FF5FF7598FF902E5CE5F4F075F49C75FF01A336
:20466000E5E4F075E4257B017A2E79621263E7902E62E064016002E136F5FF902E5B741435
:20468000F0902E5E91F0FF7801122AC5902E5E122BCFE5A730E1FB43A702902E5E91F0FFCC
:2046A000E5A730E005E47B018002E4FBFAF9F8EF4BFFEE4AFEED49FDEC48FC902E5E122B82
:2046C000CF902E5BE014F070B8902E5E91F0FF7810122A9E7B6D7A4E79C67841122932EFE4
:2046E0002439FFEE34307176FCE4FBFA7901F81229BDEE547FFEE4FDFC125F35CB902E5EBD
:2047000091F0FFEB6FFFEA6EFEE8CDEFCDCCEECCECFF902E5812625AEF1227CE902E581286
:20472000625A900001ED1227E090120FE030E606E4F5FF75968075FF01E4F5D5902E5CE0F9
:20474000F5F475FF01A3E0F5E412678D902E62E0B40103D38001C322FF902BA1022BCF7BD6
:20476000017A31792E22FEED3401FDE43C22FF7E18FDFC902F60227FC87E00F19175FF03D8
:2047800043918022F191F17D75FF03E59120E7FB2275FF03D3EF9402EE9400400874FE2F68
:2047A000FF74FF3EFEEFF592EE540FF59122F1CB53DB7F75FF0175D5027F14F179F188F14B
:2047C000CB43DB8075FF01E4F5D52275FF01438E1075FF0122FC7801022A9E75FF03902BCD
:2047E000A0E022902BA0E0FF14F0EF2275FF018FDA22E0FFA3E0902E54CFF0A3EF22902A27
:2048000007122BCF902A0B122C38E4902A2EF0D3902A0FE0941E902A0EE094004001227B46
:20482000017A2A7910902A0EE0FFA3E0902F75CFF0A3EFF0902A07122B421235E7902A0B78
:20484000122C18E94A600B902A2EE0F5821182FF80027F00902A2EE02410F582E4342AF5E8
:2048600083E06F6002C322902A2EE004FFF0D3902A0FE09F902A0EE0940050C122122C1884
:204880008F8275830002277F90306A122C3875FF01E58F20E0FB3122538FF075FF017E10BB
:2048A00090306D11D61182F593EE70F47E1090306A11D61182F594EE70F47F0111DD31BC0F
:2048C000EF70FB7E1090307011D6758300E5931227E0EE70F022122C181E8E8222EFB40196
:2048E0000221B075FF01E58F54F04406F58F22903257122C3875FF01E58F20E0FB312253AF
:204900008FF075FF01E4FF903257117DF5930FEFB410F4E4FF90325A117DF5940FEFB41003
:20492000F42275FF01538F0675FF0122903073122C3875FF01E58F20E0FB3122E58F54F0D5
:204940004402F58F75FF017F10903073122C181F1180F59490307931C5E41227E0EF70E953
:2049600031A7EA540FFD903079122C18EAC4F854F0C8E9C4540F4854F04DF59231A7E9F5AE
:204980009875FF01903079122C18E9F59675FF0175991075FF0175971075FF014391203149
:2049A000B0E58F20E0FB2275FF01903076022C1875FF01E58F54F64401F58F2275FF01E54D
:2049C0008F5401FF22122C188F8275830022903115124051C007903115122C1890311831DB
:2049E000E7F0D0070247FEE0FFA3E0902A0ECFF0A3EF2290342F122C3875FF01E4FF9034A0
:204A00002F31C5E5931227E00FEFB410F122E4F97D0CAC0109EC90180E93FC0FEFAA0670A0
:204A2000010E14F5828A83ECF0DDE77F03228F828E83E4F0A37404514174365141A3E4F035
:204A400022F08F828E83A3A32275FF0275E40475E40175E4022275FF0275E404E4F5E4225E
:204A6000900433714890121DE05430600671455002C322900433E0B4040BA351C790043354
:204A80007403F08025900433E06405701890121DE090043430E50651C77F1F800451CFE4B2
:204AA000FF713D800590043451CF900433E09002B2F0900435E0901222F012581A9002BDD1
:204AC000EEF0A3EFF0D322E0FB7D017F018006E0FB7D01E4FFEB600875FF0153CDFD80067B
:204AE00075FF0143CD02ED600553FBDF800343FB20EF600775FF0243E1402275FF0253E1D3
:204B0000BF2290121DE07B027D0130E5087F0151D57F1F8006E4FF51D5E4FF713D7F0143D6
:204B2000FB1075FF0243E640EF600D75FF02E5E120E7FB43FB0D800343FB0E80FE75FF02E3
:204B40008FE32280F8A22E22EFF0A3EDF0A3EBF02290326CEEF0A371487FFFA3E0F9E9C34A
:204B6000940C5022E97195E0FCA3E04C7015AF0190326CE0FCF1CAA3E090326BF09117E95E
:204B800004FF220980D8227BFF7D0A9032707402F080BEE55D75F007A42432F582E4342837
:204BA000F58322900000E0605DE014F0E4F55DE55DC3940C50ED7193E0FEA3E04E6043716B
:204BC0009391B045F0703B9107E0FF6008F460059107E014F09107E06010E55D916BE0FE69
:204BE000A3E0FF7193EEF0A3EFF0915AE0FEA3E04E600C915AE0FEA3E0AA06F9122D031280
:204C00003666055D80A922E55D75F007A42438F582E43428F58322903268ECF0A3EDF0AA1C
:204C200007AF03EF70010FEF75F00AA4FFAEF0EA916BEEF0A3EFF0EA7195EEF0A3EFF09087
:204C4000326BE0FFEA9109EFF0903268E0FEA3E0FFEA915CEEF0A3EFF022E55D75F007A440
:204C60002436F582E43428F58322EF75F007A42434F582E43428F5832291A8500E916AE46B
:204C8000F0A3F0EF7195E4F0A3F00EAF062291A85013916AE0FCA3E0FD4C6009EF7195ECC7
:204CA000F0A3EDF00EAF0622E4FE1FEFC3940C2274FFF5F0022869C0E0C0F0C083C082C0AA
:204CC000D075D008C0FF12638D8F18E51864027052E51424F8604224076002C10B90042561
:204CE00091B045F07029AB1CAA1DA91EF18DAD16AF1F125C1DE4FB7D01FF125A5D75FF001D
:204D0000F1E343FA0475FF00D134751408C10B43FA0475FF00D134C10BC2EB751400431594
:204D200004C10BE51864016002C10BF1AA4002C10BE510702A851282851183E090044BF0FA
:204D4000E0FF64556004EFB4540AD22EF1D3900424F0A1DC75100275FF0075D908C10BE56B
:204D60001064027056D120E090044BF01269AC1264F6900413EFF090044BE0FFD3940940D0
:204D800025900413E0D39402400CEFD394AA7F0040027F01800D90044BE0D394407F0040BF
:204DA000027F01EF6004D118803290044BE0FFF51675FF008FD97510038050E510640370BA
:204DC0004AD11875FF00900413E0C39403E5D350055402FF80035401FFEF6004D13B802B08
:204DE000C259123F5775FF00F1A1E5D120E0FBC2EB431502751000900413E0B4030715163D
:204E0000D120E516F09002B5E516F0D0FFD0D0D082D083D0F0D0E032302E04C22ED1792210
:204E2000E5122407F582E43511F58322D15E43FA04E4F5FF53D1FD43D10122F199E5D12015
:204E4000E0FBE4F5FF75D901900413E07F00B403027F01D12CD259123F57E4F5102275FFC2
:204E600001E5D530E602C322E4F5FF439A80EFF1C0E4F5FF539A7FD322C23BE490337EF05A
:204E8000C23CA3F0A3F075FF01E5D520E702C322C25AF138203B02E12A53F4DF90337EE0DD
:204EA000FFD15E75FF0143D810303C0543F440800353F4BFE4F5FF53F5F090337FE0FAA3E4
:204EC000E0FBEA42F5EBF5F6D25AF138124777E4F5FFE59320E605123FE340F3303C57E571
:204EE000F430E3047D288010E5F430E2047D288007E5F430E1027D28F1597F2812477912F1
:204F00003FE340FB7F78124779123FE35028F16050F7F187EFC39D50F0F16050ECE5F72097
:204F2000E5E7C25AF138F15980DF53F4BFF1B8400543F420F1B1D322AFF4EF547FF5F43057
:204F40005A05EF4480F5F475FF01E5D520E702C322E5F4D330E601C32275FF03E4F591228E
:204F600075FF01E5E43322E4FFE5F754C06002801675FF01E5D530E30DF16050F4F187EF88
:204F800060EFF16050EB22126463AFD922E4F5FFE9F1DAEA540F42D622C259123F57E4F5E2
:204FA000FFE5D154FE4402F5D122E5F754C024FF2275FF0153D8EF2290120EE0D3940122BC
:204FC00033333354F8F5F422E0FFA3E0FDA3E0FB22C2AD902886E0A3E022F5D7E4F5FF53B9
:204FE000D6F022E5D254804414F5D22290121CE07011123FAE4FFFA3E04FFFA3E04F70037B
:20500000D38001C3229002B1E064AA2411FFF022AE071105EE04FEEF8EF084AFF0223050F3
:205020000C902533E07006FF121A4DC25011320219DA302E25124FD3FF900424E0FEEFC366
:205040009E400AEF9ED394024010C22E22900424E0F42FD394014002C22E229002BAE0FC71
:20506000A3E04C700A9002BAEEF0A3EFF0D322C3229002BAE0FEA3E0FF4E6009CAEECAC9B3
:20508000EFC9122D0322E4F557F558F559F55A75FF0185FD5375FF0185C95475FF0185CAB5
:2050A0005575FF0185CB5622EF11AFF0020000901221F090349E22901221E0FFF4600590FB
:2050C000349EEFF074FF11AFE0FF22901221E0FE640690349E6004EFF08008EEF090122112
:2050E00074FFF090349EE0FF22EFB40109D2AD75FF0143AE4022C2AD75FF0153AEBF2275BB
:20510000C80122E5C85402FF75C80222E5C85401FF2275FF02D2ADD2BD75FF02758E71753B
:205120005B0975FF02E58E546F4480F58E22C0E0C0F0C083C082C0D075D008C0FF75FF020F
:20514000E58E30E42975FF02E58E54EF4410F58E900000E004F0E55B30E0020531E55B7000
:205160000B755B099028861237C58002155B75FF02E58530E40875FF02438510055CD0FF93
:20518000D0D0D082D083D0F0D0E032AB07AA06511E75FF02438510ED4C70050DBD00010C84
:2051A000D3ED94FFEC9403500AEDF586EC4430F5858052D3ED94FCEC940F5017EDAE04784E
:2051C00002CEC313CE13D8F9AC06F586EC4434F5858032D3ED94F0EC943F5016ECC4F85455
:2051E000F0C868FCEDC4540F48F586EC4438F5858013EDAE047806CEC313CE13D8F9F58659
:20520000EE443CF5859034325125D23AE4F55C75FF0243854075FF02438580D2392275FF1C
:205220000253857F22AF03EAF0A3EFF022511E75FF02438510C239E4F55CC23A223039133C
:20524000511E75FF02438510E4F55CD23A75FF0243858022303A13E55C600F155C903432DC
:20526000E0FEA3E0FF4E6002516B22AA06A907022D03E4F55CC23A22E4FB7D01E4903270E8
:20528000F0024B5190311A122C3890311A122C18125886AE04AF0590311FE0FDA3E0FB511C
:2052A0007C90311A122C18EF1227CE51B8B4FF04E41227CE51B8FF2290311A122C1802271C
:2052C000669031B7EDF09031B4122C38E49031B9F01227CE75FF014353025357FD717C90A2
:2052E00031BA7480F09031BAE0D3940040427173E47F01FEFDFC121B9C9031B8E0FF126CBD
:20530000FB9031B9EFF0E47F03F1E130E10E9031B451BBFF9031BAE04F1227CE71EEE47FEF
:2053200001FEFDFC121B9C9031BAE0C313F080B59031B7E07004F170800C75FF0143530290
:205340005357FD8557808553FDE47F01FEFDFC121B9C717371E575FF014353025357FD71F2
:205360007CE47F14FEFDFC121B9C9031B9E0FF228553FD75FF014353015357FE8557808595
:2053800053FD22E49034F2F0FF75FF014353025357FD717C7E80EED39400401671730000E4
:2053A000E58030E103EF4EFF71EE0000EEC313FE80E4EF1227CEED7004F170800C75FF01FA
:2053C0004353025357FD8557808553FD7173000071EE000075FF014353025357FD717C90E9
:2053E00034F2E0FF22E47F05FEFDFC121B9C5357FE85578075FF015353FE8553FD22903486
:2054000023EFF0E4A3F0A37480F0903425E0FFD39400403B903423E0FEEF5E7004F170807B
:205420000C75FF014353025357FD8557808553FDE47F01FEFDFC121B9C717371E5E47F01B9
:20544000FEFDFC121B9C903425E0C313F080BB75FF014353025357FD8557807170E47F016D
:20546000F1E130E1069034247401F071EEE47F14FEFDFC121B9C903424E0FF2275FF0143BF
:2054800053025357FD717C71EEE4FE000000000000000000000000000000000000000000E2
:2054A000000000000000000000000000000000000000000000000000000000EF25E0FF7188
:2054C000730000000000000000000000000000000000000000000000000000000000000059
:2054E0000000000000000000000000000000000000E58030E1010F71EE0EEE6408708CF172
:20550000708553FD0000000000000000000000000000000000000000000000000000000046
:20552000000000000000000000000000000000000000000071730000000000000000000087
:2055400000000000000000000000000000000000000000000000000000000000000000004B
:2055600000000000000061EE75FF014353025357FD717C71EEE4FE000000000000000000FA
:2055800000000000000000000000000000000000000000000000000000000000000000000B
:2055A00000000000000000EF25E0FF71730000000000000000000000000000000000000014
:2055C0000000000000000000000000000000000000000000000000000000000000E5803036
:2055E000E1010F71EE0EEE6408708C75FF014353025357FD717C0000000000000000000056
:2056000000000000000000000000000000000000000000000000000000000000000000008A
:20562000000000000000717300000000000000000000000000000000000000000000000086
:2056400000000000000000000000000000000000000000000000000061EE71EEE4FEEF309B
:20566000E70E75FF014353025357FD8557808002F1708553FD00000000000000000000006D
:2056800000000000000000000000000000000000000000000000000000000000000000000A
:2056A000000000000071730000000000000000000000000000000000000000000000000006
:2056C000000000000000000000000000000000000000000000000071EEEF25E0FF0EEE6418
:2056E000086002C15E75FF014353025357FD717C0000000000000000000000000000000080
:20570000000000000000000000000000000000000000000000000000000000000000000089
:20572000717300000000000000000000000000000000000000000000000000000000000085
:20574000000000000000000000000000000000000000E4FFFEE58030E10B0FBF00010EBE4C
:2057600002F3BFBCF061EEE47F01FEFDFC121B9C5357FD85578075FF015353FD22E4FE7DBA
:2057800080EDD394004023ED5F7004F170800C75FF014353025357FD8557808553FD71735C
:2057A000000071EEEDC313FD80D775FF014353025357FD8557807170E58030E1027E01711A
:2057C000EEAF062275FF014353025357FD717C000071730000F1708553FD000071EE0000EA
:2057E00022FEFDFC121B9CE5802271EEF1678553FDE47F01FEFDFC121B9C7173E47F0AFE41
:20580000FDFC121B9C75FF014353025357FD12537CE47F0AFEFDFC021B9CA2AFE433FFC2EB
:20582000AF902886E0FCA3E0FBAA04EF24FF92AFAE02AF0322903434EEF0A3EFF0111A9089
:205840003434117C5009C3EF9DFFEE9CFE80139034341173FCED2401FDE43CFCED2FFFECE7
:205860003EFE229002BDE0FEA3E0FF1135D3EF94C8EE22E0FCA3E0F4FDECF422E0FCA3E0F6
:20588000FDD39FEC9E22122766FF124C79E40227CE11B0500411A14003302E03D38001C31B
:2058A00022E5F754E024FF22C2EBA2ED922DC2EDE5F4C330E701D322900427EEF0A3F118D9
:2058C000C2EBE5146002413FE51530E202C32211B05005C259123F57124F9EE5D120E0FBC4
:2058E000E4F510C22E900428E05407C39403E494005022900430E0FF90042CE02FFFE4330C
:20590000FED3EF9440EE648094804009431504A22D92EDD32290042D122C18CFE9CF8A11EC
:205920008F12900430E0F516AE11F16451918B1C8A1D891E90042CE0F51F900427E0FCA33E
:20594000E0FD5460602E900431E0FF51D2514DFB7A00900425E0FEA3E0FF7C007D171228EB
:2059600002EF2BFFEA3EFEEF2414FBE43EFA7D027F014128900427A3E05407900414F0759A
:2059800014085191124F8D90042CE0FFAD16911D900414E0640370277B01FD514A519F5031
:2059A0000A5191E92407910A1227ACE4F5FF124FE3514D2428FBE433FA7D03E4FF80699079
:2059C0000414E0640270185147519F400251C09111514D2414FBE433FA7D027F018049E4D6
:2059E0005147519F400251C0E4F5FF519744104E7F0560027F0AEF547FFFE5D254804FF56B
:205A0000D2E4F5FF43D280514DFD7C00519744104E7E0060047F0A80027F05F11EFEEF2D0C
:205A2000FBEE3CFA7D017F01D1975197FF912A4006A22D92EDC322A22D92EDD2EBD322A224
:205A40002D92EDD2EBC322FB7D01FF515D900429122C18E92407F9E43AFA022766E4F5FF33
:205A600075D102E5D120E0FBE4F5FFF5D1EF6008E4F5FF43D2808006E4F5FF53D27FEB607E
:205A800006E4F5FF43D104ED6006E4F5FF43D10822900429022C18900427E0FEA3E022FF67
:205AA000900430E0FD90042CE02DFDE433FCED2401FDE43CFCD3EF9DEC6480F87480982268
:205AC000900429122C18E92407F9E43AFA74FF0227AC90043CF12C751401E4FBFDFF515D46
:205AE0007B017A047916124F8DE4FD7F02911D91119004167455F090043CE0900417F0903F
:205B000004147402F090043EE090042530E507E4F0A3743CF022E4F0A374F0F02290044581
:205B2000EFF0C25A124F38D23B900445E090337EF0D23CA3E4F0A3740DF0124E86E49004E3
:205B400046F011B0503E900446E07038E5F754C060F0719B719B900446EFF0BF5512719B1B
:205B6000900446F1256F90044670147402F080D2900446E0B454057433F080C690044674BE
:205B800001F080BE900446E0B40207C259123F578000124E79900446E0FF22E5F720E00884
:205BA000E5F754C070F5FF2243F701AFF9225315FEE51530E5057F01124E5E126091EF7050
:205BC000FA7F02121AA77F01711D90044CEFF0BF0202801390044CE0B43311E4F07F0171D7
:205BE0001DBF020D90044C7401F08005E490044CF090044CE0700C11B05005C259123F5727
:205C0000123FBE90044CE024FF22F9E43AFA740122E4F5FFE5D25480440AF5D222E4F5FF56
:205C20008FD4F5FFCFEDCF8FD5224315015315DF916BD1464004E4F514225315FB124E2E05
:205C4000D322900415E0FDFFC3740E91A5EFC4F8540FC868FFEEC454F048FEE51754F0C3D3
:205C60009FEE51B97F005002AF0522EF30E303AF1322AD1B202F04EE30E00BE517C394F096
:205C8000502091428018E51A6006FDE4F51A8012E517C394F0500BE517540FFF6004D134DD
:205CA000AD07AF05229FFFE49400FE229032EBEDF0901211E0FEF46006A3E0FDB4FF0C90E0
:205CC00032ED7418F0A37413F080089032EDEEF0A3EDF012276664016002C10E9032EBE0B8
:205CE000FE64086004EEB404089032EC7428F080069032EC743AF0EF1244E3FF122A69E46C
:205D0000D10FEF24D8FFEE343FFEED3493FDEC3416FC7B007A8079037800121856F135CB9D
:205D20009032EEE0FF9032EDE0C391A5E4FCFD122932ECC0E0EDC0E0EEC0E0EFC0E090320A
:205D4000EEE0FFE4FCFDFED10FD0E0FBD0E0FAD0E0F9D0E0F8EB2FFBEA3EFAE93DF9E83C9B
:205D6000F89032ECE0FFE4FCFDFE122932EF2454FFEE340B124376FCE47BA87A16F9F81262
:205D80001856CBEFCB9032EBE014605D14601B24FE600C24FC7077E4F5FF75CE318006E4D8
:205DA000F5FF75CE21F5FF8BCF22E4FAE4F5FFEA2440F5CEE4F5FFEAFFC3740791A5744368
:205DC0002FF58274183EF583E4D117C39DF5CFE4F5FFEA2448F5CEE4F5FFEA901843D11765
:205DE0002DF5CF0AEAB408C422E4F5FF75CE01F5FF8BCFF5FF75CE0EF5FFEB25E0F5CFE4E1
:205E0000F5FF75CE0FF5FFEB75F003A4F5CF227B64FAF9F80229329325E0FDE433FCEB753C
:205E2000F010A4FFAEF0122814CDEFCDEBFFE4C313EF1322F1412EFFC3940E40027F0DEF01
:205E40009018D293FF22900437EFF0900414E024FD6011047007D18D7404F08012D18D74AB
:205E600008F0800BE4900438F09004367402F07F01121AA7900438E0FF900436E0FDA3E0A7
:205E8000FBE490312BF01244FB50E9D3229004387401F090043622900442EFF0ED24FE6087
:205EA000191460282402703FEB2402FFE43AFE7C007D501228027D608022F10F7803C333B7
:205EC000CE33CED8F9FF7C007D288010F10F7803C333CE33CED8F9FF7C007D641228149027
:205EE0000443EEF0A3EFF0900442E0F14DC083C082122B5E900444E02401FF900443E03420
:205F000000FEE4FCFD122917D082D083022BCFEB2401FFE43AFEEF22EFF0A3022C38EF257B
:205F2000E0FFEE3322EFF090121CE022EFF0A3ECF0A3EDF022C8ECC8C9EDC9CAEECACBEF69
:205F400022E517C4540FFEEF9018F0932225E025E02418F582E43404F58322EFF14D122BE5
:205F600042022B28E4F5FFEFF5D8E4F5FF53D60FEE540FC4F854F0C8E4C4540F4842D62240
:205F8000E5FA30E1FB75FC8075FF0153D5EFE4F5FC75FC40124F59E5FC20E6FB22E517C396
:205FA00094F050205317F0F1412EFE740FC39F4005EE940E400543170D8003EF4217E51708
:205FC000540FFF227F0022AF14EFC36001D322EFC3940E5005900415EFF022E517540FFF20
:205FE00022E51754F0C4540F2FFFC3941040027F0FEF9018E093FF227E10EE60091EEE9007
:2060000018E093B507F4EEC3940E40027E0DEE9018D293FF22900439EEF0A3EFF0E5147073
:206020006F1258A85005C259123F57900439E0FEA3E08E11F512AE11AF127DAA916DE4F575
:20604000FF75D901F510E5155421602BE51530E505E4FF124E5EE490043BF090043BE004E8
:20606000F01191EF600990043BE0C3941040EC7F02121AA75315DE900413E07F00B403029B
:206080007F01124E2CD259123F57D2EBA22D92ED22E49032E7F0A304F0E49032EAF0E5FA81
:2060A00030E1FB75FF01E5D530E7037F0022E4F5FF75E508124FB1E5D530E61A75FF0190AF
:2060C00032E9E5DAF0E4F5DA75FF01E5D630E3FB9032EA7401F075FF03759B0475FC417542
:2060E000FF03E59B30E7FBE4FB75FF038B95EB1244E3FF911E0BEBB403EF75FF0375958027
:20610000E4F5FF758EC8316875FF0153D5FB124F597F1412477912478875FF0143D504908A
:2061200032EAE07009124F591247771247887B017A3279E8918F9032E8E09032E77006E04D
:206140004404FF8002E0FF9032E7EFF090120EE0B4010675FF0143D81075FF019032E9E024
:20616000F5DA9032E7E0FF22E4F5FF75C2E17F1E514F30E707E4F5FF75C2A122E4F5FF753C
:20618000C28122CDEFCDCCEECC31C6AB94EF4B7185CBEFCBFAE59130E71D31C9A994E9F5E7
:2061A00082EF4582FFEB2DF582EA3CF583C3EF9582E5F0958340DEE59120E709CEECCECFCA
:2061C000EDCF1247842275FF03AF93EF75F010A4FF229032EFEFF0A3911575FF01718DEFE7
:2061E00064016002C322E5F430E602C3227FE87E0312479112477D5163400122C259123FF2
:20620000579032EFE0FF124E5E53F4DFD259123F577F787E00318375FF0153E4BFE5E43053
:20622000E7FB91637F8A514F30E6055157E4800775FF015157E5D91227CE75FF0143E440F3
:20624000124FB8400343F4205163400122D322FE318390120FE0229032F0E0FBA3E0FAA36D
:20626000E0F922E5F730E510E5F754C07005123FE340F0124F59C322D322902BC3122BCF3B
:20628000E4F5FF75BB0575BB8575FF0175D5022054087F3FFE124784316875FF0143D52020
:2062A0003054026142E4F5FF538EF7438E077D04E4F5FF8DBCF5FF43B102E5B130E2FBE41A
:2062C000F5FFAFDFEFFEACDEECFBEBFFED25E024C1F582E4342BF5837169F5FFF5FF53B125
:2062E000FD0DEDB40CCA902BC31244F0FF7809122A9EA37169FDED25E024CBF582E4342BEA
:20630000F583E0C313FAA3E013FB715CE0C313FEA3E0132BFFEE3AFE715CEEF0A3EFF0ED43
:20632000240490120DF0EDC394075016CFEDCF0DEF715D124143902BC8E09F902BC7E09EF8
:2063400050B4E4F5FF758EC8F5FF90120DE0F5BCE4F5FF75BB8075FF01F5D522ED25E02463
:20636000C9F582E4342BF58322EEF0A3EFF0E42231C6AD94EF4D71858FF01228F8E591C346
:2063800030E701D32224FBFFE5F034FF227FFA124779E5FC30E605123FE340F6E5FC30E600
:2063A000037F032275FF01E5D530E6037F0222E5D57F0030E7027F01229032DFEE915C7A61
:2063C0003279E1717050149032E1E0FEA3E0FF9032E0E09F9032DFE09E400B9032DFE0FEDF
:2063E000A3E0FF1247912290337B91157F017C127D01E4FEED2EF582E43CF583E02FFF0E77
:20640000EEB412F0901213E06F600990337B515AE41227CE22EBF0A3EAF0A3E9F0229032BD
:20642000E3122BCF75FF019032E3A3E0FDA3A3E4FFFEE4FC7810122A9E8FE19032E3A3A30F
:20644000E0FEA391528FE29032E3A3A3A3E0FF8FE322E4FFE4FDFC7808022A9EF0A3EFF0EA
:206460007B012275FF01E4F5EA75EAFF22E4F5FF75D102E5D120E0FBE4F5D1F5FFEF124F07
:20648000DAEE540F42D6E4F5FFCFEDCF8FD422C25375FF03759B1F75FF0390120FE0FF20EF
:2064A000E71BE59A540FC394024012EF4480F0E4F5FF75C2A143FC0475FF03D253E5FC300A
:2064C000E609E59A540FC3940540CCE5FC30E611E41227CE75FC80F5FC75FC40E5FC20E616
:2064E000FB3053031244C022E4F514023F2FC2AFEF4215D2AF22EF24FE600C24FE600580A8
:20650000007F01227F02227F0322E51520E508124F99E5D120E0FBE4F51022900425E0A399
:20652000E0FF22E4FFFEFDFC900418B13890041CB138900420022BCF122BCFE4FFFEFDFCBC
:2065400022E4FF900001B153E4F00FEFB403F4E4F55E2275F0E5EF022C0C900447EFB1DD00
:20656000FEFD75F0E5ED123E68FC700C900448E0B4FF02EDF00F8006EC30E0027E010DED5F
:20658000B403DF900447E06401600DEFC394025007EE7004A374FFF0900448E0FFC39403BC
:2065A000501DEFB1C67DE5E4FF12196C900447E04410FFA3E0FE75F0E5B1D5F0EE80077BED
:2065C000007A0079002275F0E5A42401F9740035F0FA7B0122900001122C0CEF22F0A37476
:2065E000FFF0E4FF22E4FF123E6454F0FEBE40037F00220FEFB403EF7F0122122C18E402AA
:2066000027CE122766540F0227CE80F67F017E009017FCE4935EFE7401935F4E24FFB322F5
:20662000900001740193B40007E493B41802C322D322EF7011ED600775FF0143AE01227525
:20664000FF0153AEFE22EFB40110ED600775FF0143AE022275FF0153AEFD2275FF02E5E6B1
:2066600030E2037F0322E5E630E3037F0022E5E630E1037F0422E5E67F0530E0027F012258
:20668000EF600775FF0253E6BF2275FF0243E64022EF14600F146014240270188B8075FFEC
:2066A000018DFD228B9075FF018DC9228BA075FF018DCA22AF038FB075FF01AF058FCB2276
:2066C000903122122C38EF1460151460202402702A903125122C18E580F10AE5FD802890DF
:2066E0003125122C18E590F10AE5C9801A903125122C18E5A0F10AE5CA800C903125122C1B
:2067000018E5B0F10AE5CB0227CE1227CE75FF01903122022C18E4F5FFAF9122E4F5FFAFC4
:206720009222E4F5FF8FD422E4F5FFE5D1540133333354F8FFE4F5FFE5D354074FFF22EF37
:2067400030E00E43F401E4F5FF43A404F5FF759624EF30E10E43F401E4F5FF43A408F5FFFC
:20676000759624EF30E20943F402E4F5FF75961EEF30E30943F404E4F5FF75961075FF01F8
:20678000EF5403600475D7122275D72D22E4F5FF7584E6F5FF439404F5FF75981422CCEFBC
:2067A000CCCFEDCF74017E00C8EFC8088005C333CE33CED8F9FFCDECCDEF5D601B30551804
:2067C00075FF0175DCAD75FF0175DDCDE4F5FF759A74F5FF7594842275FF0175DC5375FF27
:2067E0000175DD33E4F5FF759A14F5FF75940422E4F5FF75933F75FF03759A40F18DE4F5B9
:20680000FF759C93F5FF75A1A3F5FF758531F5FF758628E5FA54304480F5FA75FF0175E70B
:206820004A75FF0275DF4975FF0143D30475FF0153D367E4F5FF53E6BF75FF0175D825F5BE
:20684000FF75B503F5FF75B215F5FF75BA02F5FF75AFB3F5FF75CD0AF5FF75CB08F5FF7507
:20686000CA12F5FF75BF0EF5FF75CC96F5FFF5BDF5FF75C281F5FF75AEE1F5FF75DA55F564
:20688000FF75F580F5FF75E903F5FF75E933F5FF75972A75FF01759B42759CA4759D2975DF
:2068A0009E48759F2475A11275A312759AF820560CF5FF43968090120FE04440F02275FFF7
:2068C0000175E46575FF0175D64722903271EFF0E4A31243541247D5903271315D122BCF93
:2068E000901210E0FF64806073EFC3947F5039EB315FC083C0821244F0FFEEC0E0EFC0E0A0
:20690000901210E075F004A4AEF0FBCAEECAEA3395E0F9F8D0E0FFD0E0FEC3EF9BFFEE9A09
