:020000040000FA
:200000008000018EE0312A921C0675E403229003C6E0FF1225129003CB84BA1F021DA9213F
:200020002F2134007FB8EF90181393902000730A20364CE56FFF22EFF56F22231F732378BF
:200040000278565A0124C7FF0268635A2D5761766520362E303400FF02789525E41C25E97B
:2000600025F825FD26022607FF02632A4103C0004103BF00E00202000069FA4006080212AE
:200080000FE001020009544005010AA520051F120B00E00502120C120F0206044108F90641
:2000A0000114004108F8014108F601C11801190C00011700C12F41447D0041447220030086
:2000C0007B2003007C20030F79FF433B40000000423B3E000041430E406503121101B04095
:2000E000520113004005009440581713BC01B0060604C11BC102412FAE00413038FF4130AC
:200100003000C1200900392003003A2003103101C105412FAD00414B2400C13B43404F2049
:20012000550241404E20030452004303B6200D0D4303B30103B642336998074348124010CD
:2001400017480F014812414A2602414A250D414A270860203ACD42DB01201BE01100202398
:2001600002ED0900E0150002503EC1E007201AC10E015800C10BC10C41498B05C11CC11E89
:20018000C1234226339840412635205201234BE0072FE00700084320009F0100502003E030
:2001A00006181501612728B5000201050101020E06010100040704010220250A0400060811
:2001C00005040208031404200B0614050108090805400E0005600E0E000600140802020A89
:2001E0000A0802030100084013000860130B010800140A020D000A0A020C400408080B0A45
:200200000A01050C0E0A4022000A4022000A4022080E000A0D110E0208042009205E000E61
:200220004018000E6018010105200909020F0E1211000C0C0E1140220011402200114022E6
:2002400000114022001140220211000A20040402050E121240220512020C0F00124027002B
:2002600012402700124027001240270012402701120220540712000C001413020C219F00F7
:200280000241810702100000140209012004060B0013140007102009000A400E20900014A9
:2002A00020BD2004000D400E000E40090E10010060242AC50200FFFF0602FF0040030403A8
:2002C00001FF0023200F212D01001320030302000101400B03462A1C0121521B0402422A65
:2002E000A2242C412B2900412CD701412B2F00432B2C012AEA432B20200502410A9D21B971
:2003000003095FEDFFE014001A7F016E00424AEA000142490200004249040000414B3BFF31
:200320004449C9002000185132895E855955702C2B2686725A73989F6C7A5B4531FF5E5540
:200340002009044C3279855940191F737A865A5B724932164C6966656C696E65004A326DE7
:20036000200326035B0370065A014A1E31F520012601260426052B01602E32350000200195
:2003800052657472616E736D697400E016000E4125F0004123A10041418201424187201096
:2003A00001417620030977004241390063414147200C044A0341413B23AF000A20030415A8
:2003C00000414B4B43A80313C1000723F50613C3000704030424181413C80013E00C021338
:2003E000CA0371038D0003008D03040604402103D60013FF802100DB22C9013D3A20910EA4
:20040000413D0F00413823014142DF004142DA200300D2200300DB200300DE200304D50003
:200420004242D3212D0142E0202F0144CE402F0144CC200309D100413E7E2860203E5D20B5
:2004400012E00F0000FF40180A413E5CFF4149E4004149E1200304E21E4149E3240B0BBBFE
:20046000014140BA034440B2038D9420060DB618002000C156413D6900503C674036E00378
:20048000000A453C770001020480473BF1A01602433BEE200902414B5E208A00D320030087
:2004A000D9200304D8004244D420140144DD200300DC200C00DA20B70144D6401120D11665
:2004C000313D0042313B01014130931941314603413145FF41313724B01F9500007581B099
:2004E00075FF03759E02122020023942021EC690184EE47E019360F4A3FF18543F30E50910
:20050000541FFEE493A360010ECF54E0B4E00EEFFAEEF9A320000DDAFDD9FB80D654C02562
:20052000E0604B502620211AF85407240CC8C333C4540F4420C8834004F456800146F6DF1E
:20054000E480B020C1040810204080202500FA200300F8200308C8C582C8CAC583CAF0E0A2
:20056000000905DFE9DEE78085201A401E1F4003F68001F208DFF4021DBEC2D5E830E70F1B
:20058000B2D5E4C39BFBE49AFAE499F9E4980CF8EC30E717B2D5121E82122B7DE00418011F
:2005A000800320111F30D50DE4C39FFFE49EFEE49DFDE49CFC2278B0E4F6D8FD9000007F8F
:2005C000007E10E4F012A3DFFCDEFA904B6AA3E583C394204011FEAF8226A2040E0FE480BD
:2005E00002801B410D1F1DBB223226E326E826ED26F226F726CA26CF26D426D926DE006420
:2006000001900384076C01083423AD0C14001E0064006E00780082008C2198001E200100B4
:20062000C8E0000F43C2002CE0022F0001201D4001621F05FFFFFF0001FE200A0102FD2076
:200640000B0103FC20110204FBFF200F046300000F0F204B60000725712576257B258F4013
:200660000C012580200100856009009420010299259E2013068A25A325A825AD4271600366
:2006800001FF612003205A40030200CCCC202D014C6322622547045C630021202009030161
:2006A00063000046F1024C6301200D02C80055E005000033E006000088E0050064170F723B
:2006C000013289110131FF050132790C031107400E03FF1FDB06200E000B200E16FFC06F49
:2006E0007420C0E0C082C083756F0AE5FF54CF4490F5FF22E003150020E00C15003660159E
:2007000001A0F5E0052B004C601500B02015079081AA01169081BE2004019FD2200401B872
:200720005B200401D02F4004004720040183BB2004019502200401D7A8200401B2092004E8
:2007400001AC35200401D85640040072200401CC03200401E90F200401B7A2200401A368EF
:20076000200401E97F200401DF36200401DC51200400CB405901CC924009007E200401CCC1
:200780008D200400EB405901EBD8200901C91E200401EA87200401C11B200401C612200497
:2007A00001ECA4200401ED3F200401EA14200401A122200401D96A4004404000ED405E0194
:2007C000EDE5200E01EE2A4004005E400400A9200401EF40200401EEF0200401EF6720047B
:2007E00001939A200400EF40950181F3200900F0402201F6C6200900F6402200C5600E0082
:20080000FE200E00C6406D01F725200901C5504004003B200400C6409F01C5B7200901F7F7
:2008200037200401EDBC400400AD200401F17C200401F75F40040060200401F1E8200401EE
:20084000F704200401C5B6200401F0CD200401F773200401C78C200401F77B400400E42035
:200860000401DD0E200401B338200401D9DF200400F5407C01F5DC200901F220200401C6CD
:20088000CA200401F33C200401C717200400CE40EF00CD409500D140FE00EF406301EFCC17
:2008A000201801CF08200400D1418A00D6405E01F869200E01F526200401F43D200401E7E6
:2008C0000D200400E3416C01FAB3200901F64D4004002E200401E0C920040180974004007C
:2008E000FB400400002004008140C206C4B301429080D0200401C563200401A61520040120
:20090000AA4E200401A6B6200401A2FC200401C0D9200401A04C20040180A3200401BD7B27
:20092000200401C7CA400400F5200401C8C2200401C9AE2004019A1B20040181D820040100
:20094000CD8E200401A3F7200401D02C2004018625200401D1204004002E200401C0EA2015
:200960000401D13B40040074200401B81C200401D1E6200401D20B4004003D400440400191
:20098000D41A200901A2EF200401D53640040083200401C07A200401D6B1200401D7B520DB
:2009A00004019A51200420CC200400E0200401D7BC4004403101D90E200901C83C2004018B
:2009C000A5AA20040198C4200401DC404004004D200401DD80400400BB200401E00C2004BF
:2009E00000CD404F0197A5200901CEA8200401BFEE2004018396200400E1401D0198102083
:200A00000901BF6D200401E14A200400C240360195DE400900DD2004019513200401E1B8CF
:200A2000400400C0400400D6200401C131400440BD01E202200901E21E200401BFE8200441
:200A40000089405901C555200901C543200401C0E4200401C549200401C32D200401C1141C
:200A6000200400E2408B01C88B200901E39D200401D4D7200400C140E000A0400401E76C9A
:200A8000200E01E7B9200401C139200401B137200401E83E200401BDB2200401E8474004E4
:200AA000401D01E907200901E90840040011200401C55C200401E93540044112009440770D
:200AC00001E987200E00DD41AD01CCE1200901E9984004412B00D9408601DBC5200E01EA4A
:200AE000422004019D84200401D3F3200401AD76200400AC415D00AA419E01AB69200E0001
:200B0000B2406801AFF4200900AF411700B2423E00AF403101AB6F201301FC9E226600FCE8
:200B2000433801FD2B200901FD4B40040057200400FC43C901C4D7200901D8C8200401FD50
:200B4000884004008B200400FC6324059B012C90B482200401AAA22004018ABC4004006C78
:200B60002004018BBA200401B4A0400400B8200401B87F4004008D2004018003200401B8E4
:200B80008E4004008F20040197244004005D2004019A29200401B8F32004019AF4200401E3
:200BA000B127200401B386200401A2C62004019D4020040186D3200401ADDF200401B3F970
:200BC000200401B448200401D79D200400D9403B01D9E3400900E5200401DB3F200401DCB8
:200BE000B9200401AC6B200401DD57200401DF4D4004004E200400DB404F00AA404501DF27
:200C00004F200E01AF2A200401D89C2004019AFF200401ADD1200400CC402C01F27A200991
:200C200001F32C200400F4406D01F508200901F65F40040064400400A4400400A92004228F
:200C4000D4201800B0200401F71E40040033200400DF411700E6404001AF34200E01C4C3CC
:200C6000200401961A200400F7409F01D649200901F876200401D5A62004008A408101F8E5
:200C80009A4009005B200401F8CF2004018004200401D322200401D1FB200401A01D200470
:200CA00000A5407C019D0B200901FB1F40040044200401945E200401C9C72004019688202F
:200CC0000401FA67200400D540A901FBB2200901F25C200400E76004417B01FB0A21E9016A
:200CE000FAB0200401A072400400BD20040198DC200401A159200400F3444B01FBC62009C9
:200D000001F8582004018A06200401FC78400400884004427500FC437401FCAB400E00B70D
:200D2000200401FA7140040060200400FC428401FCD3200901F46A200400F9443701EDD4E7
:200D40004009002B200401F65A200401F78F200401F2E2400400FB200401F3A6200400F0F5
:200D600042AC01F052200900F3438301F357200901DDA9200400DC409F0EF58C014200E7CD
:200D800009F608DFFA8046E709291108FA803E88828C83E70928A803FA8032E3801B017844
:200DA000E3801B0070401B00E3801B076489828A83E0A3F640330058800B603F1F4C80D2BE
:200DC00080FA80C680D4806980F28033801080A680EA809A80A880DA80E280CA8000334096
:200DE0002B00EC49A849A403CCC583CC89A4400969A4000D402029A8205907F9ECFAA9F062
:200E0000EDFB22401102ECFAE0E00B3104EADEE880DB401F2031207F05F980CC88F0EF2A5A
:200E20004E0F4E60C388F0ED2402B4040050B9F582EB80090CAF232345822390279D73BB40
:200E40000106403509E0225002E722BBFE02E360640EE49322BB010CE58229F582E5833A36
:200E6000F5401E0506E92582F8E62022600801E222E0011C602C0009404508F8E028F022C6
:200E8000500327F720260905F8E328F3228A8389822A690028204E010FF8E001326027038F
:200EA00009C5822920130126F6202D600B0BE22582F222F8EA2583F583E96032609A205121
:200EC000000240500601F322F8BB010DE0014400E82019408C00C840400005209E0EC8F2BE
:200EE00022EF8DF0A4A8F0CF8CF0A428CE200A082EFE22BC000BBE002920171984FFADF0A5
:200F000022E4CCF875F008EF2FFFEE33FEEC33FCEE9DEC984005200614FE0FD5F0E9E4CE48
:200F2000FD22EDF8F5F0EE8420D21CFEADF080290EED33FD4007985006D5F0F222C398FD73
:200F4000202803EA22C2D52B1900094B2C6AF803EE30E715400C6B0B03122924C38B0F2BB4
:200F60002406292430D507C3E460180422C5F0F8A320F9200613E582158270021583E038E7
:200F8000F022A3F8E0C5F025F0F0E0001303C838F0E8212F000A415103E0F5F0A3219B0524
:200FA0000687F009E71921270607E3F5F009E319A1A403F5F0740141A90010E10114A03027
:200FC0000009210E03F886F00841B0000A400B03E2F5F00821B401832A415B205400E9408C
:200FE00037000D21810BC582C5833AC5830229AF5011200E0BF808E5F026F618F5F0E58226
:20100000364157801308E225F0F5F0F218E23541A0A06C2049207D401802E49338C0AF03FC
:20102000F0E5F0A3419603F709A7F040AF0606F3E5F009F31941B90011A037224E00E8A025
:201040002640A504C8F608A6F020D9600B03F2E5F00821C41F2BFFEE3AFEED39FDEC38FC58
:2010600022C3EF9BFFEE9AFEED99FDEC98FC22E88FF0A4CC8B05F0A42CFCE98E4005028AEC
:20108000F0ED200B00EA200B02CDA8F02017062DCC3825F0FDE92025052CCD35F0FCEB20F4
:2010A0001803FEA9F0EB200F10CFC5F02ECD39FEE43CFCEAA42DCE35F0FD2009062275F021
:2010C00008758200820E1FCD33CDCC33CCC58233C5829BED9AEC99E58298400CF582EE9B17
:2010E000FEED9AFDEC99FC21F81FD6E4CEFBE4CDFAE4CCF9A88222B800C1B90059BA002D20
:20110000EC8BF084CFCECDFCE5F003CBF97818804C2234225E12EB33FB10D703994004EBD3
:2011200099FB0FD8E5E4F9FA22E0052015C933C910D7059BE99A4007EC9BFCE99AF90FD840
:20114000E0E4C9206000FB209A0010E0004A209715C833C810D7079BEC9AE899400AED9BA2
:20116000FDEC9AFCE899F8209315DAE4CDFBE4CCFAE4C8F922EF5BFFEE5AFEED59FDEC58A2
:201180002137827482891522EB9FF5F0EA9E42F0E99D42F0EC6480C864809845F0E004159C
:2011A00001E89C201011E8600FECC313FCED13FDEE13FEEF13FFD8F1401202EFC333432FE3
:2011C00080D3201202BB0107429B09022D055005E9F80231AF437E200700BB801500112228
:2011E00058E101EB4025000742816027A00900BBE0031F202FA04F005D804F00F1A04F0064
:20120000FD2069E00449005DC0492021A04910FD22E0FCA3E0FDA3E0FEA3E0FF22E493FC68
:2012200022930AFD740293FE740393FF22E0237006F9A3E0FAA3E0FBE0074B0021C04B00F5
:20124000C7E0004B00D4E002951931E1ECF0A3EDF0A3EEF0A3EFF022A8828583F0D083D060
:2012600082122D80E0000201E473256B05C583C5F0C58345C200F0E0020B206CA0D20069CE
:2012800060D201320980D20132222019E004D20069A086402180D2202304F5F0C582A423CE
:2012A00098205900A4450D0822A42582F582E5F03525190222E0FB60D002F922F820092066
:2012C00007E4033A00FA244F03EBF0A3EA23DF24EB0193FB210C00FA210C00F92075A08F5D
:2012E00000F5808F003BA08F004D61B2042E1EBB011A40090ED0F0D0E0F8D0E0F9D0E0FAE8
:20130000D0E0FBE82E5B07F0022E155016E9F840FCE000184E7104023244BBFEE00D180001
:2013200056206EE004E400F5C0E42076A0E4004DE1026B407E0020E0010FE00E8400184219
:2013400044E00D86E00F1A015622402F267F017012210905700DA3A393F8200805F5828814
:2013600083E4732117076860EFA3A3A380DF4025E01024006C203C1003936D700C7404937A
:201380006E70067405936F60DD203620000180CA46DF03E473E569619F0068419F09B568B5
:2013A000048582692210AF06200602F56822600503D2AF22EC248A0BCCC5F0CCCDF8EFA4D6
:2013C000CEC5F02D447F06E8A42EC8C5F03D400A07EFA4FFE5F028FEE4600C002245E5089E
:2013E000E208B5F06BDFF58067400C00E6200C005E200C015A87800B0452DFF6804E200BBF
:2014000040240046200B00424891200F04E0A3B5F036200F0032A00F22A102B5F025203854
:201420000021401040494021001420100010C010602200023203073108808780E98090288C
:20144000B2173E8015806E807E809D80B7808D80A380518074803C023114422348B32640F2
:2014600042F248AB203EC00A08B5F076DFE3DEE1807040266024409E0462DFF4805E401159
:20148000469A40C70051207D62774010402100402010003C402160334022002E2033042A3C
:2014A000800280574015E00670E801FE14B5F006DFE4DEE280007FFFB5F0020F2240027F68
:2014C00001228031405AC096E0033006D5DFE5DEE380CFE00924E004C600AF605600A9C9F8
:2014E0004100ABA93F0198F5C93F008E893F06305073EF4E6012496703EDBB010B40552A5E
:201500002F32F40A2289F05007F709DFFCA9F026DA01FCF380091FE6FC08E6FD08E6FE08AD
:20152000E6FF22E2FC08E2FD08E2FE08E2FF22E6FB08E6F908E6FA0E08E6CBF822E2FB0876
:20154000E2F908E2FA08E2200C01E49342AF00F922AA00FA228318FB22ECF608EDF608EEF1
:20156000F608EFF622ECF208EDF208EEF208EFF262E603E493F60822DC20040002400405A3
:201580000393F674047382D900F24018200400024004020393F220184073207009F922EBB1
:2015A000F608EAF608E9F66078207520111FF208EAF208E9F222023620E86480F8E933E8AE
:2015C0003360110460F0ED33EC337009E8FC1FE9FDEAFEEBFF220460DED3EB9FEA9EE99DD1
:2015E000E8C2E78CF0C2F795F0400CE8CCF8E91FCDF9EACEFAEBCFFB1235EB85D0F05804A0
:20160000700320D5B3E80470075002B2D502362A1492D5EC0460F7E4CCC0E0C398F8603B11
:2016200094186008400D246F1F023602E4FBFAC9FC8028E830E406E4C9FBE4CAFCE830E3C8
:2016400005E4C9CACBFCE854070E6010F8C3E913F9EA13FAEB13FBEC13268A0330F52FC31D
:201660003478E8002220440FEF4E4D4C701222DB03023627EC2CFCEFC6BA03ED30E7EB20F5
:2016800060E8005B202A0450130BBB002027002AE600EF2054202307EC4D6011E8497017CA
:2016A00040EF0804600DE4FCFFFEFD224105020470F8211320D60C58046009E4CC24815032
:2016C00006285009204001284020460927C0E0EB4A7044B98006205B13023616EF4E701CB7
:2016E000BD8008EBFFEAFEE9FD80EBE98D288B04E5F00234404120214003EF89F0A42834DD
:2017000000CE2006052EFFE435F0CD2008012DFE2008018067203A0C05BD80D780C3EF8B2D
:20172000F0A4ACF0EE2005012CFC201902F8EF8A200906E5F038FCE433CB204F002C203F7D
:20174000023BF8EE401420090438F8E433CF2044600B02CF34004059002F2456043EFEE495
:2017600033C9202D002E207E0139CD202CA014033DFD33D0210500072105000F20C4E103E3
:201780002D21054011055D046005E85921C0E000F619F6EC4860F2EC7004FDFEFF22C860A9
:2017A000DB2481C85009C3986002500621000C9850CAF582E9294B4A7005AB82210105753A
:2017C000F0007C1A7820C5069BEE9AED99400D200801FFEE69CB05E842F0DC23AC266D0F74
:2017E000FFD0E0FED0E0FDAB8220E7101BEB60BAE0068406E803F830E705C02B8AA9A528D1
:20180000840C40B830E7C280AA74F8CC6480CC28C906C8F58204604FC3E803E200E828CC00
:201820001F603C501DE5825FFFE582D313CB5BCBF42B5582FB50280ABA002409B900200842
:2018400080201C015BFB401C14CF5FCFF4C3132F5582FF50090EBE00050DBD00010CE0094F
:201860004E0707CC4820E701B3EC29990720800E75F01080052A3E027D007E36ED0C339287
:20188000D530D503122C1CEC334010E2007218EC33FCD5F0ED22E5F0247EA2D513CC92E701
:2018A000CDCEFF22EDD2E7CD23470692D524814006E4225903FC22FCE42A3E1FCC24E05030
:2018C0001174FF80EDC3CC13CCCD13CDCE13CECF13CF0470F030D5DE022C1CE902D2E7C99E
:2018E000238702F892D5A04000FC434C0822EC30E7100FBF000C20B7000820B711040BEB9A
:201900006014A2D5EB13FCED92E7FD2274FFFC41A711E480F8A2D574FF13FC7D80E480EF50
:20192000000001002000011706200401001840050006600500016005000860050101014065
:20194000230101152021020001023AC80200010B4005000660050008600501010D20160293
:2019600000010E401700013BA02005774E010405403B01040640590204070820173BD22099
:201980000000036017010108600C4016216540290101124011020803024011002220040205
:2019A000000816401E00084004020001164023000660050105095BB301050A20160100050F
:2019C000602F0005407C0200061B406B0001600502061C074011001D400501070540420115
:2019E000081E400B000837832005001F200402000821200402000811603560050008607709
:201A00000106194011000638382005602F01061A4041010614408300076005000860650171
:201A20000724202201000860111D3F241E16110E0B09070504030201F0C8A791776760464E
:201A40003835323024222014214A0A02020303040405050606074089E01300018788E005E8
:201A6000000026E0060007000DFA20000DDC7040430B020C00013F3F3F04040435353C08BF
:201A800038680169669C331F496E76616C69642067726F75700020B220B720BC20C120CB83
:201AA00020DF20E420E9244F0D2459245E24632468246D2472247C220E060200040008007D
:201AC0001038BF174000802058205D206C20712076233223412346234B23500A38E61F2115
:201AE00022232140FF822D1C16131110104671481E46FA6DFE6E7569652175217A21B11F81
:201B000025CB25D025D525DA25DF26112616262526342648264D26612666FF0201209922FA
:201B20001DAB22BF2445260C261B267F2698E4FD7C0CAB050DEB90182E938F828E83F0220F
:201B4000C406010EDCEC7F0322400E09E4F0A37406F011F9740420040AA3E4F0EF2404F5D5
:201B600082E43EF56018015BF0602318A3A322AD07901217E054FCF0E0FFED54307E00604A
:201B8000027E02EF4E20134010067E0030E0027E01800F10229003C87402F09003BFE0FF3B
:201BA00012250D3100400F1A05F02275FF0275E404E4F5E4127F49C330E001D34017E5E6FD
:201BC00030E012204307E0540C600A1222E7600A03F7F0C21720221F30E039E5E654036457
:201BE00001703112211B12610B401F90123FE0600BE014F07006121E0F90127D0B90121572
:201C0000E020E002413B1250812004031E90D2172015600915126F479003C1EFF090120075
:201C2000E0B47A14901214E0B49C0D20120DE0FF64056004EFB40330E49003C720A609C7FA
:201C4000E0FFC394805013E42F20F701341240F840140304F080E3203C01747A20421A1439
:201C6000749CF0D21312230F400312230A7B017A1279107D017F01122305600C0011200C47
:201C80000021C00C0012200C0022200C20240C297F02127671901229E0B40105202E0474AD
:201CA00024122120209902122116208907EFF0122094122111200A0DE0FFB40602800C3082
:201CC00017047F028005601008122508EF24FFB3923B21370753E6BF1247DC600320DC0BA4
:201CE00012684012212A12404430130B607B082B7D1012615F122166410C8157050E203B50
:201D00000B312B201D093079411220D090122AE0219F038003301740841F5FF7D2AF203BDC
:201D200002615512232812581412251712230040F29003C0E060421221481FEF7005126A0C
:201D4000C34037E51470FCE51520E503126017122260EF70FA126D24500512076D1050048A
:201D60007F019194403006B40204E4FF8009600A01030520E110508612213EE51530E1A2AA
:201D8000126BE64002E4F040411005916F12604E127C71EFC0E0917D127EEA268B14122067
:201DA0008A41D31267DF1250AA50031250CA918BEF70064047076053902FAEE0704DE001F5
:201DC000890042E00489014A05E00F8C017011204404600C1240274247044408F0800840A0
:201DE0005003FF1222E2A0EA0F22F112400112400FEF702312403CEF60204A02E780382091
:201E0000350B7033126D6FEF702D12497AEF22710525124020802040450220E219602900A7
:201E20000EE001FB03E4FF9194223A04C6F020140520EC118022126A8B9003B9E0FEEFC3BC
:201E40009E4005EF9EFF40760DB9E0F4042FFF7406D39F5002C21441100022E119101F12CF
:201E600022B012215212682B61559003C2E0FD75F0AA9003CC122DE9ED75F002A424BB0B06
:201E8000F9740335F0FA22124035B4014B7F0A904AC8EFF0E4A3F090430F224012020A74B3
:201EA0000F127F3174B9F0800DEF64047040743D400E0379F0D12D20280FE0600790430EB8
:201EC000E0FF80027FAB91FDF108401220100FF07015904AC9E0D39400400C7FFF91FD4068
:201EE0000C1F14F080EBE4FFD19622122D057808122C51E4E5C820E2FB8FEB227F01D19678
:201F0000904B031D7401F0200508E06038D1317F05B18F200B10EFF0F108B18B904301EFE4
:201F2000F0B191904302EF200F201611E05401127F2960D2A3E0F460CDEF30E7C9E4201489
:201F400002F080C22037009F2037024303EF602E000880060409EFF0D1922043202C001B94
:201F60004031001620190EE0FD541F240FA3F0EDC41354074480201101F022203D02D7918F
:201F8000FD40AD609700AF8097023039162018608E011EEF607E001E441B04C23930391F03
:201FA000E0049A4091000B405F00062091201F01F10840EC03A239E4333D8D0C48C4F090B5
:201FC00048C0122D5DF1ECF186200D07E06F6030F1F2B19D422B0E580080F6127AD16006B9
:201FE000F1EC781091F920270491F4F1ECE42134202705FFD190904305211902D322C38113
:20200000271F4306E0122F223E54043E5C143E61153E66173E76303E7B343E80363E85377C
:2020200000001F3E6E5354EF855480802F5355EF80085355DF800353557F855590801D538D
:2020400056DF850A56A080155357FE800D5357401E0157BF201E09577F8557B07F0CDFFECC
:202060002241C310E4FFEFB4010443FE202253FEDF229045B020B7059045B4122E15E007A4
:20208000B2000A601C000560B60345B091F42004200E01E480203405B7127D13601E403613
:2020A000032DF5E94A22E801284342070745B512658980E0E4200B0180DA419640DB2075B7
:2020C000001233550170FA218721A5030B904B1C263B04127F3970FBA0EE163F43043F4B3A
:2020E000143F50153F55173F65303F6A343F6F363F7420EE043F5D43541060EE0C435510DE
:202100008008435520800343558060EE0243562060EE06435701800D4357401E01574020AF
:202120001E01578020EE4064000C8064219F00BB20E3E003DD06D12D7F03127AEB20E1408B
:202140001A80E10148BB20E1600E00E422650248BFEF42570048268E0022E0033942CC014C
:20216000D23922330206F1062005000122520603F106E4FFC19621D9334A257706E5E4301A
:20218000E10675E42002000326D500C6244A0425129003CB32A5200503E07F007043856418
:2021A0000B201000C621FC60060402F0221135601A20142025200D01B40240291C12749DBE
:2021C00012213912220112208F12232DF1DC700221297FFF1221C0900A0521B52ADE0509B6
:2021E0003187BF540D2008000A200800A5256723AF274020C21B3170E94A4B701D7F04FE19
:202200003187EF2401FFE433FEC37401124F917F0050205C6023200400E024BE0E4C317005
:20222000127C007A0A790B71AE900A0B73AF20120B7DB7E92407F9E43AFA900A08206D025B
:20224000E92408200C02FEAF012628E0002A0C64037004A3E0640460081221C5204E8053C2
:2022600001702220911804C006C374FA9404FE74699400904764F0A3CEF1EAD006F1F42BA3
:2022800059021221CA202C211F0421EDF1DC7F281C260A1720F8122102122062127B73127E
:2022A00022651250C2FE4FFDA3E0FC4D20040DFB4D600BEE5FFFEC5FFFEB5FF47045FE10E2
:2022C000901221E0FF901225E06F9003BAF00222FB211132CC00E064F80785F9740F35F051
:2022E0007B0220AB05E4FCFD023F8621620290476120C3200E01C007400A012DF520910930
:20230000127D8ED00771A0904341201A0290433D220F1B90430BE024FFFD127E465EFEED0F
:202320005FFF904346127D87605A717E127D6E200C547106904344127B849E2685117ACAAD
:2023400091D66029714EC004C005C006C00751A52310020571414534160051A3F1D5127CFF
:20236000B2D007D006D005D004123EA2717E7188802204127EAA8077212202008071204D01
:20238000616F014E60205F020AE0FC353006D3EF9DEE9C400A206E74E701800D402304FFDC
:2023A000A3E0A3CF407EE032720004407208904342127C2A8087D321A320F921341BEFF451
:2023C000045FFFE4FEEF70037FFF22EFD3940F4009EFC4540FFFEE4404FE200E0703400A3E
:2023E000EF1313543F200F1102FEEF30E1010EAF0622AB07AA06EB241FFF22101FEF7805C3
:20240000CEC313CE13D8F9F9EB541F904B1FF0AF057146FCAF0551B0AE01EE14C3169FC41C
:202420003354E0F9AF04C3EB9FFFEA9400FEE9FDC3EF9DFFEE20091FED600FE0FD6007C3F4
:2024400074209DFD80067D0080027D007C00EF2DFFEC3EFE2290434A04E0FF51ABEF403D03
:20246000200C00466125401405FD51DF90434875FC365720212DF403A4FFAEF021DB61C3FF
:202480000321022AD7C02F00C320390245E09F41B301E09E200521E20021202700124021CE
:2024A000003D36B462CC0540797E9047F0622300ED2208201F422300ED622308F0127A8707
:2024C000D0079045B92446029045BD201E05123FF2123D9DA5DF02F5123EA44F000B6023DB
:2024E000244F01123C253202B9123C253320340705E4123CFD9045C045340311123D914091
:20250000430469EB9045BE452D02E7123F259305023E96127E7E20590AE4904488F0A304E6
:20252000F090448560EC084E700281D0D3EF9420212B0540047F208006201920F20290449C
:20254000872285004436F000F5200A200F013DC72B944012007E207004127695400E204999
:2025600000E0223100FE2B612053602503C39044864109205C0194002006202B0021201861
:2025800002127ECC407D65CB0007200F67F11200904483E48FF01229AF904489E025E0F07A
:2025A000813B2047250F2230202A415D205D204A6291214A207701912D219C44E9054B189D
:2025C000EFF0C22F43A00A601F7E127F0B3187BF010824B501253524DA05904478E060085A
:2025E000401C401001B1D8202D04E07002A1B020FB007C2094201C0202B1FD401402FFB46F
:2026000001208E047C740180092B7B0010400A0602F0B1D090447A2C7801804948B000362A
:2026200040460E701FD22F126D46EF700FB1D0126D3E4070047D01B1F4B1209D00784029DF
:20264000003A4B1C09B40505E4F01222CEB1D0408220720264027020FC007A6050007820B1
:202660005801801360804048208000D840140201F0D121060078258F449D002249DC0354A4
:2026800003F022406003E4FDB1F4E205060122FE246A02FDAB05223B03EB023DE6203C40A5
:2026A0003A206504237C467D7144DC00EE333E2883061220DA7E467FFA442D03127BB9D081
:2026C000241C01E197602A07037019904474127B408700E040342B2A037F0380112BDF00BF
:2026E0000D402002B4040B4015017F04204A01C1FA601107010BF1E3F1C8B1D0203200784D
:202700002649014AC6231003EDF0F1C82009201C001241A00179F0413207787405F07FFED3
:20272000805F40184093214C4007035590447340A7027403F0E009932043047034122157DB
:202740002ADE036029302F2BF6012BEF2B2B2010066006904AC774FF21E3612881B1004A3B
:202760002D150602253512216122208020152A5E01F1E32008205C00C1614720E1006A2134
:202780007202E06057407E2CDF041222D3800A600B03020312222173097AE014F0E06020CE
:2027A00012494123D2024684E532590A64A4FFEF24A0FFE5F0340F33280FFDE433FC800770
:2027C000E47FA07E0FFDFC904665239340B806E4904669F08025406C41B4017FFD208820E3
:2027E0000C21320710126D36EF6007F12A9E0202481E207002221259213B147DEFF022AB7D
:2028000007E4FF1BEBC3940E501C126A2E122D692FA503001258DCA00905EB125963E4F04D
:2028200041F706447DE0FFF1A0E4200708F022E92FF9EE3AFA224252006427C813FDFCFFBD
:202840000220EEF07B007A0079002280AC319074FF323328082EB80575E40175E402A00CA7
:202860002EC50622126A8B9003C964B70622126D52EF700880C80401BF126D89218A01EFB0
:20288000F04BFE064067E0605A3139259B184473E014FDE5F0A805088005C333CE33CED822
:2028A000F9FF31323124902226092D21C000C001C002C003602606FF74107E00A807E00215
:2028C0002812EE3395E0FDFC312A122AF2D003D002D001D00024F41280283139AFF07E0007
:2028E0003132801E90447BE0FF600F22B106FEFB7AF47901F8202A0D80087F007ED07D0758
:202900007C003124314C415B42A804311D127BC042AA19124797126D63EF703F311D312A26
:20292000D3122C404007E47F01FEFD8025401002122B7D20350F1DE47B01127E0D501431DC
:202940001DC3EF9401FF24BB09FEED9400FDEC9400312320490322EC1112215400742930FD
:2029600000FC6006105DE47BE87A03F9F8227C007D64022FAC3141FD01A084216406BAE0BE
:2029800064AA2411FF412D21C5001081F7013123638900E722F0300702FF74E021320805F3
:2029A000E02410F022EF6410201204F022200229200707E030E10AF1E9500626F201018008
:2029C00066F810EF4E7010122364EF700A31A9EF7005111221DD240E0831D1E9240F31C220
:2029E00070094008030D31C260A9440822F9EA3402FA02284323F10095212502903B4027F9
:202A00002B049044C1746E31011C75F031D1127D377A3B792C022206F1D7123F86EF600F14
:202A200031CAE924E0F9E425EF05F1DF1243CD22203301512434EE0015C01801434420180C
:202A40000841A9F1D704123DE622254A02E924DC295406FA0229DB900A3226031AD22BC2B6
:202A6000EBE514600281BDE51530E202C322B10C24E3126B86126791202011B117512A5426
:202A800007FF9008F8F0126737900A35EF4F2F05E072126046404F4D015FF7201301E0FF6F
:202AA00069A00B36125EC2E4337004D2EB819B4015032463127F257502900A3641320F3F99
:202AC000D2EB126747A21692ED900909E0601260660E7B961228DE4315041269C7D322902E
:202AE0000925990016204A0B0979187C6A7DDE90474F74644E3D04126990C3222071135038
:202B000005C237125DE612631EE5D120E0FBE4F510C217E000A307C39403E4940050302060
:202B20005703B1B105FF200603D8B1052F4A8426D00740EE648094804013201503E3127E00
:202B40005A8074408B00D340EE4A6505CFE9CFF5118F4095203D06F516AE111277BC202DF7
:202B600000B2212B058B1CF51D891E200C205001F51FA07006FDACF05460602E201500D942
:202B8000206D1F126BFBC22B91F5FB7A00900919E0FE7D18127EA2EF2BFFEA3EFEEF24146C
:202BA000FBE43E01FA7D2A6F018185A03B015407414F09751408B10CF1EC1265BB2044202F
:202BC0005A05FFAD16126710201944B809247B01FD91C5D3F191502CD508122889E4F5FFD1
:202BE0001266FC2CF9092428FBE433FA7D03E4FF204E402B0402702B91C8202803400574A1
:202C0000FF802807E5D25480440AF5D2402D207C202D207C0A126C38D1178063E4FB7D018C
:202C20006057E0012EA09405441045F07F052679030AEF547F6043024FF5D220760743D2AD
:202C40008091F5FD7C00E00226017E0022B2070A80027F05EF25E023F808FEEF2DFBEE3C2D
:202C6000FA7D016066A028291F08A22B922A1265D74006416921C10169C74216419A00E50C
:202C8000215604FAEF1228DE401903D2EBD322800704C322FFD11C203F62A600B1402320B3
:202CA000C340A0601000D8A01061D46C60013EFEC02C41A700FAAC3C2341A01603229008AE
:202CC00052603A0404229043C922EC05B18CE92405B12B7300D1284302C9D110400A02D28B
:202CE000B18B2065069043D3F0E92406401013D4B18BB102049043D5F0C39043D0E09402C6
:202D00009043CF28C1014028403D0803B10530E1031220A320142B3922AD054379D19047C8
:202D2000E8205C029043CC206C0312267A22405C000223BA01416240160141676068024102
:202D40006CF0200A4021206D01416D206D204B0290416E401501F1C8400A0470F0903B3C53
:202D600068E701417488E704416A127DAA203506B117B105149041273C205220580142B5F4
:202D8000205811AF059042B8ECF1D07A41796C122409EF6003245F203A2032244C00FF20D0
:202DA0002701E924263321F100FF21C70275D102A33505FFF5D1EF6008200721DA018006A0
:202DC00020070453D27FEB6040080343D104EDA00804082290422620640390422BD14126FF
:202DE000034230F18640B8024231F031CF02E9240220B0034234F18660C503149042372054
:202E0000BB013EE049A3013B4380BB03422EF19A404340AE00C5204940AE00C840AE0542AA
:202E20007930122427A0AE033B43F19A20AD079049E8EDF09049E52027206504FCE412350B
:202E400080CCE301F133C64F01F1A722600124B820264092E01124000280244154E0112494
:202E6000010302404909E8E0FCE402358090466B2079255B030D126E61400C21C721A50115
:202E80003B0E20E9000120E9023B0DF02015418502903B0F20E9001227F702904671803093
:202EA0000656126E6A90466E20330202207B20F7002B21FA0433FEE0C39F247404F874803A
:202EC00098228116003E61160B221233577B007AFF797F7847800A0E3A79C5784612346004
:202EE0001235B4AD07AC0685A301022267B6017B0149FE0694E4FCFD223AFA207307A374C5
:202F000027F022A2172282EF0322900A642B0C020A66EB20040965EDF05402901240F012CC
:202F20003421027002C3401C289000112ECB057D017F01114D202C291A01801320074A9E54
:202F4000041222DD8007203601117A601A03E09003C020450466E090123F32210AEB600803
:202F600075FF0153CDFD800620070743CD02ED600553FB31FF0243FB2028DF0575FF024304
:202F8000E140486A0353E1BF22406102E4FF222051047F0143FB10401C04E640EF600D2059
:202FA0000807E5E120E7FB43FB0D4038020E80FE2011018FE327472B45031011C24F222EE2
:202FC0006003047003D3800120B1011223412A0222E4FF265709EF6041127BCC311450093D
:202FE000401603C394C040210D36B100252012030E11C25F203B600302F460E8963E868E8E
:2030000000E4205C00F0203804E0FD12226A27F607EA12702D9044F012696E03019044F453
:203020002145252204D554C0700546522128430101967F20E60475D504F13020070143D58D
:20304000431D025394FB200405847FF5FF75982D0106EEE5F4F075F49C201E06A3E5E4F06F
:2030600075E425208D044479F4126F29DE00F4299C0360024131254C0344ED74142AE20718
:20308000F051737801122C6420090A122D5DE5A730E1FB43A702200D015173200C01E0050A
:2030A00028B300805EDF0CF9F8EF4BFFEE4AFEED49FDEC48289E402D204304E014F070BAFD
:2030C000200D2045001034DE077B6D7A4E79C67841293008EF2439FFEE3430D1142BDD0999
:2030E0007901F8122B7DEE547FFE2A18021273B6603011EB6FFFEA6EFEE8CDEFCDCCEECC1F
:20310000ECFF1270364567200609ED12768F90120FE030E643EA0275968020CA02E4F5D532
:2031200020D902E0F5F4200B01A3E038F80170E840CD01B401819008E0FB25E025E02401AD
:20314000F5987620C900EBE00410703C00A36E3A0322903EA1201F02903EB1216004E4A34D
:20316000F0F14021EB593D030E903EB2201205FB7A3E79B212212C013EBC418B022DC6C00B
:20318000217601F5A4209003F0903EB32D100275FF0320080EE0FFF595EF14601314601C7F
:2031A0002402702720540B5173F1BB903EAD8016903EA5800B05AE800A903EA9800B08AF5E
:2031C000E0903EC0F0127219200600E021D1067D59806590120E391B204C02127D9B207C03
:2031E00000E02CE7093EBC5173903EB8B148C32A432251043EB85173A360AE577D04709AA2
:20320000903EB028A8207E07FDA23592321271C7603700126027029048B76029209B01B122
:203220005440060751661262A0127EB321F100BF60270237A374C0BF03F1E97014206D03C7
:20324000B143D10241FF0051202F015153802E0170DD401800E5A01634CC085D125FE94034
:203260000343F420207303331270F9404B0324FF9231201C20DC00DB211F1975E5081267F5
:203280001DE59B30E7FBD11CF1C843D5047FC8D12EB11DF137227C053E79B112704240EC86
:2032A00021AE021262F4217A40098349014000205F04F140904015E1056D010EF0378C0135
:2032C0004010A0AF014010E1076F014000207A03B590400C216F014004800B000D216F013A
:2032E0004008800B040EE0904019616F014019A16F00552055416F014010416F01401521F4
:2033000031014011E10069014011A169202F616901400F43E302FDA234616700A3202D81E7
:203320005F408B215F2006A15F04BC6002812FE000A821580519FF7E04FDFC206101B148D7
:20334000C15D014010A15D02BC70D8E1004D0034814D2027816C06C231F1DB901213228476
:203360002B582F345C5301EF2D22D33C4201E0FC201908E02CF00DEDB412E722606007E09E
:20338000F8A3E0F9A3E0FA253804229048B6EF22CDE101CE0548B6E0FBF16F215B0790123A
:2033A00010E06480606E24990E7F5037EBF16FC083C0825173EEC0E03A42401C0A75F0042D
:2033C000A4AEF0FBCAEECAEA2D1901F9F83A5110D0E0FEC3EF9BFFEE9AFEED99FDEC98806A
:2033E00029204E01F16E403801B148403201F404403429388D4B01EB2F4A4008E93DFDE894
:203400003CFCD082D0437E0022E30171122420FFEE344EFEE43DFDE43CFCE4FB7A04F9F8CF
:20342000241E02E47B7D24532415A91F801E44E204758EC8F17D23E60A53D5FBF1C17F1478
:203440007E00F113237201439137610140F820D0426E04BB0575BB8520230475D5022031B2
:20346000250B60300743D520303102C1F9202006538EF7438E077D2E5C02FF8DBC282E058E
:20348000B102E5B130E22B880BFFAFDFEFFEACDEECFBEBFFED243000F6215C0134402430C1
:2034A00003695EF5FF203601B1FD215F010CC9206824D00009231600A3201900FD402900F3
:2034C0000040290041218701C31321700D13FBF1CE127F412BFFEE3AFEF1CE67011FED24DF
:2034E0000490120DF0EDC394075016CFEDCF0DEFF1CF1243819040FDE09F9040FCE0029EC3
:2035000050B8207E20DC257B04120DE0F5BC400D00BB44DB01F5D5269F0403D3EF94022E71
:203520001103400874FE3AED00FF2B900EF592EE540FF591227F3FFEF113D132202304E55F
:203540009120E7FB202C26D30280F19920FF01438E26C4020153DB86140202D12C237B60E2
:20356000120143DB405925350022251720E8C519616009C2E17F1E125FE130E707408301A5
:20358000C2A18014038122E5FA25FD0175FC40390E53D5EFE4F5FC75FC40F1C1E5FC20E65E
:2035A00022600140112E9024672005208900E4209701F137207B0022411C00FE411C214680
:2035C0000222D139205116E5BD54F84404F5BD22E0F595E5F4540722AE07124941EE3531C7
:2035E000058EF084AFF0224DBE000E5CCC0009200900E02E5306F1F722D39000012ABA02D5
:20360000900000200505500201DBC2AD437D02904AC4688C00E42018241007D2ADF56BE5E4
:203620006B316333170101C5201B05516DE56B11DD2FF200D3452D094A11EBE0FF6008F44E
:20364000600520080114F02004066011E56B126A2F33828027015D802010003130BD00E5D5
:20366000603670D8083151E0FEA3E04E6008800805515F11008022401F42EE20394FE6407E
:203680006A00796FE6012AE4A2E00005208800C331220202013E201D404237B109FC22EBA2
:2036A00075F00CA424A3F522560032210F01E56B600F00ADC00F0290465C76B80890465B88
:2036C000EFF0FB90465E20607163015D11315E20048074002120EE01516D3095A06C04901F
:2036E0004662E0FF203303E0FE11ED294701465C635D02EE3153604CC06500ABC06501E048
:20370000FF607500AEC00F04904743710B297A03474874FF20050447E09047492007024934
:20372000E0FF40C10164EF41420205E4FB309B01704F401E057E0170027E022020033161B8
:20374000EEF020FD034745E0FF2D4A00093086040A122912802D7A29E860BD045D9047469C
:20376000E0209E204E0043609403D00711FB203902E004FF206E3089400A02F08092200C21
:2037800000E0277A014663632B017FFF26D30921E8494A4B605090466A29ED200501E0FEFE
:2037A000408D0140EE41DE0032200F013161339B207D52CC0005A06C014669806C0146631A
:2037C000E0016C203900045E28400709F080B622AA06F9022F8220C72056022171E021DCF7
:2037E00000FF20AD2BB80069400B03FBAA06E43151200D41120B51767101AC00AD01AE0284
:20380000AF0361E801496923D601517D41EB2253022A7E005FA020F00000401D402D06D038
:20382000E02FFFD0E03E202856570253ECFC2009608B04EC540342EC239A07EDF5AF75ED1A
:203840000275ED39FB1F600543EC08800353ECF790496CE0600443EC042253ECFB227F8023
:203860007E387D01FC02011E4C610D03A3EDF0A321280258710E41A3005E25FE07C236D1C0
:2038800028912E5005437A02F7D15F3624838C018007200C080202D322F1D2904759227162
:2038A0000173C323820453D5DF53FA21740458E0FFD1A64017200A05B4081412576E609868
:2038C00068F60A24521256118004E012526627E40290475A403C00ED203C23CB07759B0457
:2038E000D12875FC42206D09E104912E40F490475BE048E603E59B20E7601040082B2420BD
:2039000029091F125799D236804F91274922208300FD291803E05D701D207301E0FF201504
:20392000017226401021FC0059776229350512551D12577D28071147795CD191500FC39012
:20394000475DE0942090475CE0394000E72033097042125737303602611C20FEE8001A60A9
:2039600031005E24ED24F60FC330E701D322C21FE49049EFF0C220A3240B20BB03E5D520C5
:20398000E72B160BC238B1C5201F0281E953F4DF201F00E02105071262F430200543F43C37
:2039A000F90253F4BF24930153F52DB400F0672B06EA42F5EBF5F6D22034047FC812562E9F
:2039C000201C04E59320E60440F80B302058E5F430E3047D288010200800E240080007209C
:2039E0000808E1027D281257C17F28202F202702FC7F7860080D502AD18A50F81273F3EFDA
:203A0000C39D50F0200B05ECE5F720E5E7408F202D0180DE207A02F1EF4020860220F1D260
:203A20003235010A8220BB207600D2319A0182E020A904F0D220A3E42D2A080DF09146E4D4
:203A4000900A83F04BE70076200812E07070E5F754C060EFB1AAB1BD6455704EB1BD2C2D71
:203A600003E06F600E401C09F47039901215E030E132401C0060381008644A6012EF640A21
:203A8000600D402530860583E0FE6F7005200729100308F7E06E20090270197437CB009EDC
:203AA000200901800F200408E0B454057433F0808D200B22700180852007366D0806C237FC
:203AC000B1E680009139400E01FF2220CE01E00840890B70F5FF2243F701AFF922B1AA20E4
:203AE0001A04EFF022AFF4317D07F5F4303805EF44806B96A18D04E5F4D330E64D23054B91
:203B00001BE5F4F0E04024057F827E00D12C212F82D002303708201C00E04036E202E6E1AC
:203B200001CFC041127FE87E03D131025632904955124FCF7A497957223F0414904957E0B4
:203B400043D4029049562759054955E09E400B4006401305125713227FFA219C02E5FC30AC
:203B600061D200F7400802037F03224620A0400A070222E5D57F0030E7326A60140AE4332E
:203B800022F19EAD94EF4DF1D939D6012A8BC26CA030225F222106439A80EF127D9C200900
:203BA00002539A7F21CA044965EFF0A32DB0202401D15F5807202601E5F4602D40B520867F
:203BC00007125632F1454001224150202E42940353F4DFD2215E057F787E00F15B20390459
:203BE00053E4BFE5E42B311212741A7F8AF1E130E609904966127039E4800B201D800B04C9
:203C0000E5D91228DE200D0243E440224A4B83605500D3219A0230E50F619A0004229100E3
:203C2000F1226F00C320158D4C1CF19EAB94EF4BF1D9CBEFCBFAE59130E71DF1A1A994E962
:203C4000F582EF4582FFEB2A4F0DEA3CF583C3EF9582E5F0958340DE48540309CEECCE28FD
:203C6000B30212573320F70203AF9338650210A4FF60BCF401C406FF75D9019008F639F65D
:203C800001B403213D021265C740CE34DC2033060153D8EF2224FB588E04FF22FEF15B2383
:203CA000F800E020160403759580902B7503D394012236A719123C6F7B01AF82AE83E4FD36
:203CC000126056800A12214D126017E433FF22218C06E5147021113E50953A023157719516
:203CE0003B054315205315FE206400A2359001D32223ED08EBA2ED9216C2EDE5F4841480EB
:203D000050047D01900A1A254D0151E120460077E0004620144217038E11F51226710EF5A5
:203D20009008FA122E15AE11AF127DAA11EA80D111F510E5155421602BE51530E505E4FFA2
:203D4000125EA6238A001F3061001F264E0431ECEF6009400A04C3941040EC31AF042521D9
:203D60005315DEE1020400B1210335E901D2EB409E0B221146500451ED40033017036CDD9B
:203D80004061F200CD05D1F5FFEF710B29D20142D62017216D048FD422F1916053214C008A
:203DA0005C369F0295EFF025DD018014200905E0B43312E4F0601702BF020D201043A4008C
:203DC000052099009520990395E0700B206AC1294010002430D50957997F08022521900A95
:203DE0003720E403900A3AED2C1003F0ED54FE200A02F0603020DA045FF7BF0128401E32DE
:203E0000340A5114501D900A38E475F0025CCB040A3BE02402205A003B2357050A3AE06F38
:203E200070D8207B5733201003229048B140510148B426A801F0D3210908037410F0904896
:203E4000B5E0FF30E6022B51FB201F0151E7200420576015017103202B05E0C39FFD215F33
:203E600025B0005D5DB820070160F08A5F638801E703334B21064E38015FD24399001A2051
:203E8000180890495FE5DAF0E4F5DA200B04E5D630E3FB203520F800F18E5900E4203B0CE0
:203EA000038B9512526551A00BEBB403F1200E225F0512561C1257C82E72202C21182309CD
:203EC000007F45D7265226410249795E265E0290495E256F045D7006E044282A000220E3A3
:203EE00003495DEFF0429803B40102515053207902E0F5DA201640EE01495928D82082209F
:203F0000082E0007A3A3E4FFFEE4FC7850DF018FE14013475101E4FF30CA0178082C2201AC
:203F20008FE260132866323104E4F5140117241B0002341E042DF502228323A2419C204D34
:203F40000243D81022AC02904794201B047C0029F9EC331701F5D721030C53D6F0227D022F
:203F6000315FEFC36001D320410DFFE5D154FE4402F5D122C0E0C0F04A1106C0D075D0089A
:203F8000C0FF2044412904047F028009E400C41F8F18E5186402600261FFE514122F226330
:203FA000760163890263ED08639409639F0A63AD070B63CA0C0000656E203C0C75C3551500
:203FC0001AE51A6002A16E75144004401203F0751409200F400A035575140A600A08900944
:203FE0000AE0F5C375140B800D2642400D0301751A14383501B1B180401B0CA16EAB1CAA6B
:204000001DA91EB1BBAD16AF1FF110124E1775FF00D1FC43FA04200701B1D0383706A16E98
:20402000C2EB751400393802D1EE40207103B189A16E20AE252F03A16ED1E0401105E510CB
:204040007022B18226C20C556004EFB4540BD217AF67900921420481F17510022047017517
:20406000D9204501E510383E0262B1A5215300E5451103F16DF15923850FEFF0B199E09032
:204080000A94F0E0FFD3940940252012246A0902400CEFD394AA7F004024A53E22010A9440
:2040A00020140040800E05EF6004B1908027100994E0F516F105901222EF2849060085166B
:2040C000D975100360670003409B2069014E1057C5606D01B1902022405B39BA1BE5D350D4
:2040E000055402FF80035401FFEF602A30E111C3900904E094FF9009032005025013802853
:20410000E0010906200A029009052005085002B189125FAA80787A112047027121E55A1341
:2041200006C2EB431502B182223508901224E0FEEF6EB1812F8D0223B17B2248029012256D
:2041400040072266029012262BE7026D4F6040650008204E02900907200540542065000299
:20416000200A0190092D37601001751060A30CB403071516B199E516F09003C3200504D0A5
:20418000FFD0D0D02F9405D0F0D0E032FE604D05FF85128285112E0B1275F0010229AF302D
:2041A0001705C217125C3922E51224072C33033511F58342B004F5EA75EAFF2532042274DB
:2041C000FFF5F024240245F022229C03E9710BEA44C30022252921E920111153D1FD43D152
:2041E00001224315015315DFD117D190402015011422201C0B5315FB302A04B1CD800A7F78
:20420000553E7D20035942226B282B475905E5FA540360FA200F1F8FC3D322EF30E303AF72
:204220001322AD1B201804EE30E00BE517C394F05020D1628018E508196006FDE4F51980E3
:20424000128014201B0E540FFF6004D151AD07AF0522F12AFF2C3A21ED050DEF903785938F
:2042600024B01708F9E0FDFFC3740ED189EFC4F8540FC868FFEEC454F048FE203704F01201
:204280004F907F2E622037019FFF3B8800FE2998026BEFF05AA201FFF13C38006C800B0A0A
:2042A00024FD6013047008900A6A742C552977056A7408F0800640070102F0251B456700CE
:2042C0006C21BC010A6A242102E0FBE42B3307F0125B1550E9D32223F200C0258F01D1EECC
:2042E00041A60422C39008FE21A1029008FD20050122E55AF20314F5D2222F1806181313FB
:2043000013541FFF4154028FD4F56611700905759B0475FC4124DC0622E517C4540FFE2005
:20432000D404A3932E22EF2092030680007E2C8E03E4FEAF06205800092F2C205800FF20B0
:2043400005606A04EF24FE600C20030105803DD9002228E928F7208C0606FFBF06037F08F6
:20436000A00A0304037F04A00A0002490D2029227701E0F436A6006FE00003238D0109EF76
:204380002A552392020A010F240029F11FA2EB922EC2EBEBC0E0EAC0E0E9C0E07A0879FDE0
:2043A00051FBD0E0F9D0E0FAD0E0FB7F0C19122283A22E92EB2230150C902FAEE07006FFD6
:2043C0001220ADC21530172363D122E305C39E400AEF9E43A03D0F002223E502E0F42F28C1
:2043E00019014002400D0103C44CAD024C700A200927C801EFF047EC200B47BF03FF4E607F
:2044000009329F0AC9EFC9122F8222D2ADD2BD2D6805758E71756A09200803E58E546F2AC3
:204420004C038E904951AFD3E5093820240230E43A60070354EF4410A02C030512560E608E
:2044400035005D2F700D126589E56A30E0020559E56A700D205A0B0567E5677002056680F9
:2044600002156A4039028530E4386B0502438510056DE3045540AD047E697F65E438C022BD
:20448000080747F0025971904B192248013B3EA0BE00353A3F05315E903B3EF034D6094B3B
:2044A00019E0B40219903B4574399C023B43E021760B903B46CF11D1EFF4703F8028401F7E
:2044C00000FF201701802E5B654AD6014E60601410B4020EE4903B45F0A3EE11D1BFFF15F6
:2044E000801B602926E5013B79204D063C31F3122F8622613B00E43AAF004526DC0303A3C3
:204500008009C01F074631877F02022F864C2304FD903036E0205902F5828E501E004D7005
:20452000470290474A27E600312E5A044D31FD11DD200E0131EB20040012282D052843B4E4
:20454000FF04E42A8AE0000F22B63F1E58E9050979189049E9203920050431BF1247A0206F
:2045600007203303E40228DE5BDA00EF400741DA03FDF5828C309B207520EF43330622ABB1
:2045800007E4FA1BEB23BA09500D512E5126600712585105050AAF022280E3219D04EC4D90
:2045A0004E4F22915101A7F5B151011FEF402F0309EF125831F70005291205FFFEFDFC2253
:2045C000E4225C20461313EF125963E05D7C00B505027C01EC2EFE0F80E72329057D02E4FC
:2045E000FF80DC3A5C08035153AB075171EF2B20BD13FD7F0380C8A2AD9229C2ADAF67AE99
:2046000066A22992AD225AD619518BC3EF9DEE9C4008EF9DFFEE9CFE8013EDF4FDECF4FC62
:20462000ED240154BF05ED2FFFEC3EFE229700C960C801519A33B600C833B60322518B7C60
:20464000311D0202291221160118F0211A00042D23001487D200EF409B000524942345247E
:2046600081000F240684DB0F5317F012672AFE740FC39F4005EE940E2E2B00173A8102EF41
:20468000421780262923029003C821F70B0D8F1B900A17E0F5131221256317010A6741700A
:2046A00020052710021B717F26AD017186200E03718EFAE4200D052DF5E92403F93E6801B4
:2046C000E513200D014D17601B2015017198218C41C5020A6722401E41A320163BC5200DA9
:2046E00000223E71200601FAE4209D0154F02478022FFFC329EB02027F0F248000932555FC
:20470000067E10EE60091EEE400C03B507F4EE20D40340027E0D200F457206C2AFEF42154E
:20472000D2AF400701F4524008067F0271DD9003C23BAE00C7268906C204F0C394022268FA
:20474000440013285E231B0108F8254900ED28500230E5074F05003A265E2F0C00E63234B3
:204760004EDD072C044402F02254FD200E030919E0A34997040A6DEFF0ED24DF0E19146093
:20478000262402703BEB2402FFE43AFE2178005032960D7D60801E91A6C333CE33CED8F9F0
:2047A000FF20140228800EE0040F0664122924900A6E6320204B02E091BA495B328802903F
:2047C0000A6F3521201A0191B1B37334E401EB243E8D093AFEEF780322FFE034002A010168
:2047E000FD22754A000B428A0609F58322EF91BA228202022CC721F2020B91E82005020FB7
:2048000091EF628F0290091320414299E00106253E022DC2EB4535057D0CB109A22D252938
:204820001A7B01E4FF02225B7F017E009017FCE4935EFE7401935F4E24FFB322350E200BF1
:2048400006B40007E493B4182E5C2E73041217E0540826DB20070044225C4007037F0030DD
:20486000E228E3600B055414FFBF140428F032AC6010201C00E0601C104478E0B4040D909E
:20488000447DE06007B163EF7002204420132005204A03C41354072009032FCAE07044295E
:2048A000052F79C21221CF400E00443D65062FCDE054FEF0A3800B00D1400B08227405D36F
:2048C0009F500B746342B10290447B214901447B204A0212240E2645210E05122413903B36
:2048E00040229C041249ED7E2331280724311221F7EF54076ADC0C022440904B1AEFF078A0
:20490000197C3B7D20F6047F1312281D201106E0FF7DF47C01023742014673203B24D002BD
:2049200013D161400B647B02903B142527001334BC08E92404124D05903B1534020079606C
:20494000250856D16A904676024F8024532B5D0109EB2B5D037B017D066159049009EE7445
:204960006D225320B7050224229042F2205B039042F5ED2FBB014E10204803FC9042FA2C93
:2049800006450F0342F9F10424E60C540C7E0060027E019042FCEEF0200F059042FEF07E97
:2049A000003200097E02EE44059042FDF104235A203A039042FFF0405060A006649F702D70
:2049C000E92401201607B40405AF04122418801A0190406D8A0142F525CF0D403AE4124F74
:2049E000D07A4279F912241D22203B01F6022C2004237D0221CF3EDE091249E0FD7F01EF42
:204A00007011ED5EB3020143AE709C0753AEFE22EFB40114201E01EDF0A0182344401800A4
:204A2000FD20065CB600E250DC3CBE00E34D50200700E167DE04E67F0530E041FC00EF4082
:204A400035030253E6BF402E3EEC00223CB3030F146014233E01188B57E8038DFD228B2A39
:204A6000DE05018DC9228BA0400705CA22AF038FB0200903AF058FCB349600522133203488
:204A80000113147CE80C24127DA4E580127B5EE5FD8022400B0090400B02C98016400B0081
:204AA000A0400B00CA2FD6202300B0400B03CB0228DE2A2001AF9148E30CAF92229049EC3E
:204AC00012702D7F017C12272801FE8D260F01ED2E234D308E07E02FFF0EEEB412EC5AE4BE
:204AE000006F2F720349EC1139466F0722EBF0A3EAF0A3E922EF0544EAE0FBA3E0397C0308
:204B0000F922C230291D02759B1F200550680620E71BE59A540F2460044012E044802E403E
:204B200058D50143FC2C860203D23052010009801F020540CD400D001140590875FC80F55B
:204B4000FC75FC40E558DE0230300334A62A8203E00E43F4393603FF43A4042044049624FC
:204B6000EF30E1E000110008A01104E20943F40220230575961EEF30E3200C2AEE200C5927
:204B80008900EF2ACF070475D7122275D72D40F3027584E6204B0094404B019814601001E4
:204BA000933F209404759A4011E84034019C93202301A1A3200400853F9306758628E5FA74
:204BC000543028CB4B130275E74A21BA0275DF49218B0143D320CB030153D367203421CC5E
:204BE000200B0275D825203001B503200401B215200401BA02200401AFB3200401CD0A209D
:204C00000400CB40AC01CA12200901BF0E200406CC96F5FFF5BDF521160081200401AEE172
:204C2000200401DA55200401F580200400E9404401E933200901972A4059199B42759CA4A9
:204C4000759D29759E48759F2475A11275A312759AF820330C20CB01968041710A4440F09C
:204C600022CCEFCCCFEDCF7423C505C8EFC8088005C57909CDECCDEF5D601B303218404CF9
:204C800001DCAD400501DDCD20B802759A742004019484228A20170053400501DD336017FD
:204CA000001440170004601701E465401701D647222B006128920F1211E0F46005A3E0B445
:204CC000FF0C904963741823CC0313F080104017200F201F00122007006443A94E5401612A
:204CE00090203511E0FE64086004EEB404089049627428F080064007033AF0EF1236FB0768
:204D00002C1CE47191EF24D83C92163FFEED3493FDEC3416FC7B007A8079037800121E4C91
:204D200071B6204E23AD064963E0C312668925F43CAB07ECC0E0EDC0E0EEC07D31401E20BE
:204D40001605FE7191D0E0FB6AFB2B010CF8EB2FFBEA3EFAE93DF9E83CF8206E8022203AFC
:204D600002EF2454206A080B125614E47BA87A163CF1011E4C339640A60514605E14601B6D
:204D800026CE040C24FC707B410703CE31800660070721F5FF8BCF22E4FA200C04EA2440D9
:204DA000F5CE400703FFC3740720911074732FF58274383EF583E47199C39DF5CF401B018B
:204DC000244880230B90387371992DF5CF0AEAB408927D01CE01404A215E00CE220602EB08
:204DE00025E0602F0775CE0FF5FFCFEBCF295A0603A4F5CF227B643D8A09022AF29325E0CE
:204E0000FDE433FC201633FC00AE2DF20024344F0DEBFFE4C313EF1322C8ECC8C9EDC92BAE
:204E20008520BE41A950890F02C32253FACFEFB4080543FA308012EF24FD0743FA2080098E
:204E4000EFB4022008021080006DEC108FDA22911AAFD922E4FFE5F754C060028031B840CC
:204E60003E0BE30F125E8A50F371F3EF60EE400900E9405600E46E75A4B70143E6545B2432
:204E8000BE03EF2275ED221F00ED35BC03ED30E2FB200C02AFEF222002018FEF20100220E1
:204EA000E0FB20072FD9D95F600A04082253ECF7201D2FAC4005000460051301FF22904314
:204EC00001E020E017123E2D7F3D123CFD7F2A40040080400403A6123E902793037A437929
:204EE000064A2B02122305200A040F7F08D1712007040C7F09D1572007070A7F0BD1579094
:204F0000430A69FE124E6006BEFF16BFFF13D15E50028004D1678009201A48C50140F060D5
:204F20001203089043073A86228220071F02F0904306E0122F22751D04752814753015754C
:204F40003817754E30755634755E367566043700007543211A075350EF8550FD8047400A82
:204F60000351EF800E600702DF80066007057F8551C9802C400A0652DF8552CA8021400A4F
:204F80000353FE80166007A02D0153BF802D0B537F8553CB123F087F11D14933FF073C94A7
:204FA000123D0590430460891008E0247F6009047015D14F740A8006917E2007005820A1DD
:204FC00040AF04D16790430923780502C14690430C60EA0464104E7006201505740EF0EF21
:204FE0006420A00B000F200B0040A00B0010200B0080A00B0811F0E4B5070AEEB401603110
:205000000012A00D0002600D0013A00D0004600D0014A00D0008600D0015A00D0010600DBC
:205020000016A00D0020600D0017A00D0040600D0E18F0023FC6EF4420F5FE227F10D14981
:2050400020D421B9037D02022320DF050FE024FE24FD21E8000A2D5F02A3E4F04019000133
:2050600060190403E01228DE40FA01D18F20CA09E09000020228F09000014005023DC012B7
:205080002E06013DC426EE08E4903DE9F0D3903DC85AA6063DC7E0940040012044037A3DEF
:2050A00079C9400E2CBE029045C07E97603503051243CD40382B48024A600B203B2D56018A
:2050C000F1193467017F00400C0124C926E201343D26E3016F60233040120104FF805E0097
:2050E0009F404E04940050C122203C0A8F8275830002285C90494D40830AFE904950E0FDCC
:20510000EEC39D50124011022DF58E205401B5073BFC020E80E420460445A6125B0E2028E8
:20512000295D07122670AC07EC602B201306E06C70249045A8202E208B031A9045A724CBF9
:205140000145AB24B50550F0F11F4007401001B420204302EC7009E0000B029045AC802FDD
:20516000000F4012202F00AF602F01E11F24420AFF023E96904305E0FF22E420062BA10448
:20518000F5FFEFF5D820050253D60F36CA315C08F0C8E4C4540F4842D6401B36D2201B09A1
:2051A000E5D1540133333354F8FF400C03D354074F23D003B40109D2460B0443AE4022C244
:2051C00040080153AE289404C80122E5C823A20275C802400843A500C863A50148A520DB3E
:2051E000029048A8A00569660460089048A92FA60180ED401E032DF5AF014020052DF5C30C
:20520000E99FFFEF04F20B00C000C001C002C003C004C07FC004C0FF12253A2FB30E07D053
:2052200006D005D004D003D002D001D000F3021900C0F5026AE00A3E047F0112270637AB7D
:205240000427069031374F5805122710D0FF004000E01254280E06FFE58954FC4FF5319CD1
:2052600003600443893DFF0D89FB22AF8CAD8AEFB58C04FEEDFF200B03EFFEAD8A200803FF
:20528000EFC45430402C00CF602C0324FF92AB6005008E80380040203808BF22AF8DAD8B0D
:2052A000EFB58D8038008D2038008B203823F8430800A440080143A445300401E5A454109C
:2052C0002051204400E94015407A02A41122201C254C0243F6022052000760094A640402A8
:2052E00053F6FE224EF8203705ECF5A9EDF5A7403206AFA9EFFEE5A7FD805E06AFA6E5A587
:2053000070011F206F08A5ED24FFFDE434FF4E40BA203004EF54C4442A807A018FA92A30FF
:20532000603B01E5A943650148AE219901E5A72A0101AD6E372C07F5FFED540F4FF5DB4207
:205340001F00EF268700DC401101F5DD200500EC60050643DB1022904AC121EE201204E501
:20536000DB20E4FB200702F5DCFD20054016012DF538A80BEDA4F58285F083122A06AEF0F3
:20538000603407EEF5DD0DEDB404DB2024403F200604E5DBC330E43745087BFF7A1F79870A
:2053A000904524205027DE050079009045272C1A027D017B28B00402281D7B0142E900C03A
:2053C00025AB2F940590452A7463F0392D017BFF803900728039047A26790C2250C408A89B
:2053E00001AC02AD037B012243FC00FC2C6A916602A3ECF03FBC0022221C083E96D2391213
:205400003E317F06264802123F08200A24923C8F113CFD904307E064022229F9EA3CA801A7
:20542000FCAD032BF503E9240BF92F680822E01475F005A424005B350165FE246008497963
:20544000429048387405F02F8B002D4022017D04238101225B31E331B20146D020AD206E3B
:20546000210C0290000424296008050322F09041832033017F2020D801253F217B21982B76
:20548000B7206880B62008205B05127921904830210E200901232260C402D39FEC604C016C
:2054A00046192119406E0274012221F26F2071A80129F928D4502960B90A22E47FD07E07BC
:2054C000FDFC904665252A03E4904669455A604E00FF4A0602A8070820B700074048002246
:2054E000AEFB21227A85253D017D13268101225B214302AE02AF2185214A017E00806A006A
:20550000C455082010721A20AD0EF0A3E05480F0547F22EE8FF00229AF20E325A00435F06F
:20552000FA7B0120A702E9242C4061017440225941CD00FE41CC00FF21ED0075429008436A
:2055400052015356FE8556A0271B0122FE212000EE202630820EE0FD75F0AA9003CC122DB4
:20556000E9AF82AE832CE34C5620E648F9032D057B01211805E4227E007D01203320512013
:205580000500E420396092252101434841F8029045B765F50322900A03203C422A022779B8
:2055A000294006031F797822204102022E2A61580D4C22FDEC9000061228F0ED9000072009
:2055C000BC067B017F070222834CF103022F86EF52592040204830E92F61B76102C545F04A
:2055E000E1017F007B21C3008E21F00122A342982142029044C32062017B0141B2017470D9
:20560000209C20A3007426BA01DE9093CB01FF222330009621FB0575D70975F41840260280
:20562000E9240820BB030BE09FFF270C08E09EFE22122FACE47B69ED012B7D617B004E217F
:205640008620D801434480D800E065B601F5F42DF700552188601B013B3C801B256504F9D0
:20566000EA9EFA22218E407600F02093400121F2000C41900222AF05230D20D3210C039D85
:205680000225B221FA017425348820FA03060222833D4C00E0393E0322740129602D029034
:2056A00000136045217F06C3022C40900005342800F020D202E9240A6020609E02AA06F946
:2056C00020F041002006012420601820230290000220D7010AE03E6B02EDF0A34214012F2C
:2056E000F9A2A906FA740222FD7C0020BC0290479B201920862C4609414CE022E99582EA32
:2057000095832146007E22BD06904482221222834FFB09FF22A804A905AA06AB0742E9001D
:20572000FA4230214C204204291290434662010C22903EB3E0FF14F0EF2290401080085B0D
:20574000BE020228434C0902022AD720E4000420E427E342C3225D2EB3210A21C30303C36F
:20576000E0FD40B2008F5569632503050822FF21D720980422FF907FC031E6838D31C73160
:205780001022EA011DF5282F0207F58323D82AAB00FF218C014AC9200A0C0E22904B1CE035
:2057A00014F0E022E0C3132066001322EF000242400122FFE0230011020002120B120F0285
:2057C000060402121113BC01B00620090713C113C300070403200907C813D60013FF030432
:2057E000E009530E7FC67EDB7F8B7F9B0371038D84BAFFE030000890455C7420F090455664
:2058000061E200A3223521C4213000EB2013075CE0FB904558E0F9569A0FE9F5837880EB70
:20582000F9E0A3F608D9FA90455AE001150030C0152CD100F9204842A703FAF582EF2D1406
:2058400004F0A3D9FCEA600A1FEBFE7980E4FAEBFC7830C083C082E6F5F0E7A4FFE02FFD34
:20586000E435F0FFEA2DF0E43F06FAA308DCE9EAF05B1B03A309DED5260400F8E00A900038
:20588000FE409000FA507602F582EA609000FA409000DA209000FCE001150030E0011500BB
:2058A000F8E0001510C378807930E709FFE6083FF0A3DBF6E4332247014601E009630146AC
:2058C000072063014603E0003720F4C063014605E00115E00163014601E00015E00163009F
:2058E0009FE0016300C3E00263029046C8463A00C5E00031027880EDA05D02EBF404207767
:2059000000C344B102F582EC401900E020AB0E6FFEEB5EFEEF6EF0A3DDF122900783401D4D
:20592000024C60092009021269F5585F0322900A70248726F30B5FF7128F30124A2A45F07E
:20594000601E4014012DF529700202C00180150212F0A029620202D003403417E4900A8EC2
:20596000F1EF75F0EBE56C7148E054F06440700241FCE4FE201100EE201000FD2A1C04906E
:205980000A8FEEF037A70423EDB4020B200C2FF20404EEF0800FA0220354F0FDBD2B5100DC
:2059A0000132250304C9EF603B88018F743381202700F4404A031260DA50205101E51533F2
:2059C000AA0141FC40161190000AF1E0E030E40990000C129009549FF0801500BE2015045A
:2059E000540FFEBE05201800C220180230E120401800FF206702900009261F03E020E52E4A
:205A0000200C02EF9000287600E92086601F20110290000B2010424C02E0440125354239A5
:205A200000CF43C8403F05F1CA124A3150602A01F56C202C20D5312420F62C83039006711F
:205A4000F0209900E22B774006053C7F04126BDD2023610C00FF610D001EA00E03EF540F77
:205A6000F0A00A00E032C907E56CF1CA31BF800A203601E0056172205100E03C5C202320C9
:205A8000A00E07022DE9EBF07F02900A8CEFF1EFFE26E301EBED203805FC700C900A8D20EC
:205AA000B90802EDF00F8006EC30E034D1492800DF202800E031280A0DEFC394025007EE3B
:205AC0007004A361440C8DE0FFC39404501EEFF1CA7DEB67A6402801441020E441A2209650
:205AE00006F0EEE1CA0247EB363C04A11FB1214A400604E924BBD10D205A40100D24B8D11D
:205B00000D9009DEB12012E843F1C43A1203DF127CF3201600B6401600E620A1077152904C
:205B200009DB12C91740384009044E10128F3A28AA139009E1E0C4540FF404FFC3740B9F53
:205B4000B12924D8F1B9401F018FF340052BF505948F9009DFE0201809B6F1B9B12A128FE1
:205B6000B54480203605B12A24B1D10D201504D8D10D2F04200700B9403600DE21D8200B49
:205B800000B8400B02E6E0FF204101F1B3406004FFC454F0FE203205BB12FE1B4401203EAC
:205BA00001440420043D2D398A401F201D004F203702BCF1B9201002BF0F0B202A04B7D1C0
:205BC0000D4440202400EE209C05FED39404AF0639080404B12AF1D982E328F7040979E249
:205BE000F1C4A2E2012283206C02128F292035002020350290066560B202D10DFD204B0548
:205C0000BAD10DFBC003402004B2B412FB31201120BB0212FE473A2580330212FE31400A22
:205C200001FB1F232C068C8922F090404F20FA00E9261E20204008401048F90AE3D10D6023
:205C400014E4904066B120366D058FB77E217F2F26EC01807A216A0201D10D5D4B033A129A
:205C6000A7A320203C90201B201620C80230E719200821AC0220E010200800BC407007A2FF
:205C8000B504047D078008200F208C01F1E7204400354058E0283602900A86646D02904053
:205CA0004E22E909AE04AF05F1F7AC06AD072017670B050223199043D640C500247A9157AE
:205CC000530143E126CE80135A78474703900A9AEF20D420AD09FF30E775540F6401706F43
:205CE000209B21410E12C6AA7064900666E0705E90405204202420C90230E337201D20C9B4
:205D0000411917FDE924BD129093540F7022B1211292B624BED10D54606015802121C00F7B
:205D2000240412FEAB7D6E7C00029F98E490066B2043203A20180C75F03EA4FDACF07E207C
:205D40007F6CA1CD202E207E0C20E717900768E0F4600312A002201213B212E29812A43C75
:205D600012A1221290017A07798712FE7620AC03E0900786347D293D202302E4F1B9220FBD
:205D80000D0779867F019049791262E1128FC0232458F10A4002E1AE12FC925013E0FF23F8
:205DA00060000224C10F04B121F1D9F1C412FE5A12884B12FE90208C00DF40C7005D200832
:205DC00000E640080063200800E740080064200800E840080065200800E44008005B2008E3
:205DE00000E54008005C200800E9257A0912FE23F012FBCC12934421BC0152F0207D03E0DC
:205E00006011A3216D01F1C42091044079567F05429B2016027F0160508F014979216602C2
:205E2000124A2825B3001D200C0212FE7F82CF2138044A2812FE99A2CF042F861247EB41B4
:205E40005B012E154285008A205103E924BAF921AB29A500DE2B8802904794295C246F006E
:205E6000A42BF00174006B9C022224BD40210122FF201624980875F00A842406FD22F044F5
:205E80006300E426FB010A84622940F61A29DB5407FF64026005EF64037016F1AC25E0FB8E
:205EA000EC33FAEDAE047803B64603801CF1ACE0020E02FBAA06401DD664042BFFEE3AFEEF
:205EC0002C3040A2409A00048078800E02900A4120B7254907FE918124B812860D263B0203
:205EE000EF54F02405010F4D239C0EEE14605D147002617924FE700221B140050C61E024E1
:205F0000036002816A9181124FEC811004127BCC1287A3DE047F04127E88204B00B6406565
:205F200006EF917E24B7F13A2005805A0912FDBD4F917EF19E740A20050B1F740981671252
:205F400094899181F1B5408604860730E0332039000320850230E70C2009403464C2801E4B
:205F60000020601400B7201E646E20200401F13A8007400702127B9620AD80260130E1409E
:205F80003B6026445F201E605100E2E000150010E0012AE0015145290290122A4D680F305A
:205FA000E5027E20EF7F0030E4027F40EF4EFF2041408906549FFEEF54604E20CC00BA2005
:205FC00082401505D91287B97F09201E00B1201006916BF11FEF816780830420E602415981
:205FE00020180009201826B4214D08FE900A45F07404C39E3C100104F0217060C320140009
:20600000E03D98202900BB412F814E211001D212C14F2292201D406000FF602C0003567578
:2060200008D3EF9DEC124F9340362421601600FE201700C32D2A215600D2804402EE240A6E
:2060400040290291812D2F4C00FAE0034E018004206000F7A178034480F197217920B5021B
:2060600030E0072669215000062006814F2078609600E420F3E1014300BB20D3C14301119F
:206080004E429E00602215002D202C00B6201944820077200B402503FF20E06C200A403AF4
:2060A0000220E4622009604D02EF4408204F00BC202B20752490051287D91247D54063401E
:2060C00013212A410E44A4034410F197A0604012401D01F1EC40D008EC3AFAE924BE128723
:2060E000B920408020049F12C8998041E040760154F721E0406D20620230E3182009403A2E
:206100000212C79D20094057206200047471200F4019200F02240B2F40624166A1C7611F94
:206120000424B7127E5A6120E2085427BC01741D20C760D281720290066D23600012C1B942
:20614000017F1D81BB0401F1B77F262172001F430D406103FEEF042E206D01F19E222E20C2
:2061600063625B030F900A44290143050220E643A07C01F1E38011E0087C803300F021FAAE
:206180000244E04F809F00E040E762F4478A01800A20A105DB4274FF1228235F631F221AE2
:2061A000021F741120B14082207E0124D8211E012F042009208821300022409622A5004176
:2061C00020C302E924B9428E00EE2016A01003229009802C792C7601098D26BB0390098F48
:2061E000EF24A702900987245703098AF129282D04900986E05438B205A19F900985E02897
:2062000008009F25D00B10900981E0B4FF08EED39436400E06300A11F1D9400D22B70530C3
:20622000E6047F01805D89804021170120E62A630486E020E40B404102D39497403103EEA6
:2062400030E60620322ACE4950205B406D225000E6205C25B7040979907D07898605098030
:20626000E0900990209B0081200700912007208F0ADFF0300A06E04420FF8005400F20B14A
:206280000094277F040988E0FFA326968A9201F119261304C20A90098220FA03903F421266
:2062A000354C20C105903F45127F022D7D02A374582F524069051224544009E420372FCD7C
:2062C00000FF32CA20BA0480E0F118E922F9228C20770C1287AFF119E924DFF1F9300A0EB7
:2062E000405280AC034401800F407E0430E60BF1A520200212FE3E415A40A001907020B8AC
:20630000008D2A68017053208704A7C5EF604B203582D50160602A28A04100102030203990
:2063200062B00354F06002604720688A18048FE05498F040DDA0390367FEEF4E201520E9A9
:2063400000812C3001FF07606A00FA20E92032213C01706C60100E0564057062AF0512A6D6
:20636000FC505412C7AD203004EFF078A9E6228C06098EF06034E0FF24AF029F402C2035DA
:20638000011287A9CB0312C8A112C2E022DE20282A9200F0410203BC1287B9609404F1E1AB
:2063A00078A8E621083FA940E000FBE001750205740620C5206640A9008D2D6A41650109AC
:2063C000D420A50086200700D520070288E0FB21970209D6CB426A04F1199009D8618C4159
:2063E000980212C341217021230393447F0026BE01098A30B70124D842A730DF89210003BE
:2064000027384D5B03E924DA2240180274032221B8052F79D99049FE4048200524DB22FE74
:206420000230E11B400C04DB9F30E708203623E501801F201022C7047B968015EF200A0368
:2064400030E30AF1717D0574048004F12981676021203E002240C6020A41228326220500F7
:206460008D25D3207B00844E0103FD2224B7607C526F067A407953127BF4200604567D0580
:206480007F7F349F012408401C203342E1032E2224DF400E017405282A24872AA0510002F4
:2064A000E924B14015535528AB044EF002231E282700EF2D5100E02065005440CA010A57E8
:2064C0002EAF2AFB241D01E20AE9018504110151ADE966760230E32D400A000A20AF24FAC1
:2064E000200A011191205F05BD011751AD1233C20447D512FBD921CA298A057B127ED3806A
:2065000007600849AF00572318017AF069AF01128529B021D721440707797A7F010286DC4C
:20652000958E04E92FF9EE3A8A8B0020208D087F02128352900A23124CB401419B40092193
:20654000678CB4202001F51F208424AC032012E154200905C39F14FF51A5247F2333030AC2
:206560002051B0C0AF053651A5128F1F854B24204030401C40C103FE128FEC602B0912B7CE
:20658000F012FEB4FEC3EF9EA97D0128DE604A202202D394266C7900262046C8998033E2EA
:2065A00002B0201B04DB42E451A2661C8CDF030212D823204363C280710004204E207D036C
:2065C000231287B32018462200FF27C000EF28BF0128DE257501EE14379DC0420008200846
:2065E0004021416301A51266CA017401A01321D040E804BD11934440E0041200512B770199
:20660000519C60378023201000BFE0071000C0E0071002C1519C211F01740525D3409C6117
:2066200061205665CF20A7410425CF200901B912415900232D6320C8690402300908401025
:20664000032DF5918F4D6F402447AC00FD202C00BA20232D72200900082D702006404F6D0D
:2066600071C0414D72200BAD72089003B9E070031281F38361007F2113401D22B4629A3676
:2066800011012E2A621D200F0444A2127CD73B5C00764B210144AB2229201203805E713E1D
:2066A0002013026290445A9781EE01713E50200ED0E06B7008E965827003EA6583702C405D
:2066C000312056074A9044A8700D51B080294040000BE0010C402105122E4A22713E400B9B
:2066E000405F02A851B02004200A018098208000A8242400E420A20312F6C6EF25630B4917
:2067000012EFD312F09D8039900A7C605B0160378009408C03EFD051BD400D213671A80002
:206720000FE0000C05AAF0F9122F82200E205B2038205B04BF2290497D200800E9ACB901D5
:206740008181400F0086278704199183E924478821FC12BF0503D38001C3400591830285BA
:2067600032128FC091834CE00116E0EC00E0202C001222340187C42CE3404106884E12FE07
:2067800090918285A62CE8400A00E621A102904063400A00E7600A0064400A00E8600A0055
:2067A00065400A00E4600A005B400A00E5600A005C400AACF3400A00E340150649807003DF
:2067C000F0800347BD20BA014A242CD6001E2014EC00D68015EC03D703918371442F61012B
:2067E000497D214424EE213002900A7620F40430092291FAE30063641C008B20C283912C88
:2068000000072283C2092230032120190A2F79CE12C59A12C5307013E00532042F79CA80CA
:206820000EE00212EC0543361F406A21FD03229009E72072029009EA391C06900670F09068
:2068400009EB216701543721D4400A014D1720DB05FF12D0E74009201D3FAD261CE0001719
:20686000288C00FB400C088607FFC330E501D39227E403EB126B8E2A834C1A00C25CA5244D
:20688000B80109F064B804A1F5126A8B400C01A8F1400504FB09128FF9402F01B3312062E6
:2068A0000230E00E4014221B23524962401908DB9FFF12CAE790122146CB400E23480512C6
:2068C000F76D12FB3520AF26C70085A0AD26E02009A03D02900987200C03EE12FDDC4012FC
:2068E000A35504EF6002C180400F062DF5714412C8A8E003C50364047039406326F3406341
:206900002736205B01460F204440D902904610200900EE67380A4611CBF0EB12F76B12237E
