:020000040000FA
:2000000080000185E0F0ED17BB08122C67E42275FF0275E40475E40175C75A1F021CE76D44
:20002000EE6EB3FF7FB8476574456E64706F696E74446576696365436C6173731F20002570
:200040008F2594212F2134FF02584C0D0A4D756C7469206465737420677270204901443ACB
:2000600020211785258AFF02010244FD4103C8004103C700E002020000785C40060802127E
:200080000EE0010200095440051F0AA5E00502120B120E0205034107E5060114004107E45D
:2000A000014107E201C11401190010011700433BFA000000423BF80000414384404903126A
:2000C0001001B0203C02121200400501930020421D13BB01B0060503C117C108412F820065
:2000E000412FFCFF412FF400C107C106412FFD200F00FE200310F501C10A412F8100414C96
:200100008600C1334340C02057024140BF200304C3004303BE200D0D4303BB0103BE423408
:200120000198074348EA40101748E70148EA414B8902414B880D414B8A0860203B8742DB2C
:2001400001201BE01100202302A70900E0150002503F50E0072016C10E015800C10BC10CC9
:20016000C118C11AC11F42238C984041238E204E01234BE0072BE00700084320009F01004F
:20018000502003E0061815016127260E000201050101020E06010100040704010220250A99
:2001A0000400060805040208031404200B0614050108090805400E0005600E0E00060014AD
:2001C0000802020A0A0802030100084013000860130B010800140A020D000A0A020C400474
:2001E00008080B0A0A01050C0E0A4022000A4022000A4022080E000A0D110E0208042009E9
:20020000205E000E4018000E6018010105200909020F0E1211000C0C0E11402200114022ED
:200220000011402200114022001140220211000A20040402050E121240220512020C0F0051
:200240001240270012402700124027001240270012402701120220540712000C001413026A
:200260000C219B0002417D0702100000140209012004060B0013140007102009000A400EC9
:200280002090001420BD2004000D400E000E40090E1001006024281E0200FFFF0602FF00F7
:2002A0004003040301FF0023200F212D01001320030302000101400B034627750121521B57
:2002C00004024227FB2431412A7900412C2701412A7F00432A7C012A3A432A702005024169
:2002E000096E21B903084BEDFFE01400127F414192004241900000414195FF423221000113
:2003000023250313C0000742D601C20021AE0006401010C70013E00C0213C9037104A400E8
:200320000300A40122EE402103D50013FF802100DA20420B4875FF41487304C1B6414870A6
:20034000200D007420030471FF4331D120BD0A41311A0041287201414120206A001B200367
:20036000000D2003001C2003001F200300102083010E0020040021224B004540E502414566
:20038000012003040600444B0C203D0900C13D413DF700503D83200BE004000A453D93007D
:2003A00001020480473CA8A01702433CA520090141452067014526200303250042452056C3
:2003C0000241452A20030029200C002720680145234011207A053FE9285B3FCD2030E00FF5
:2003E0000006413A2B004139DF200319E000433F0AFF26B1433F07FF26AC413EEB11423F24
:200400000D3AA9443CD5203B0F55413CDA004147D6644147D9014147D5200B00D720031FBC
:20042000D8FF434B3D040404414B3CFF414A7A01C148414CC900007581B075FF03759E02B0
:200440001F122020024907021EA190184EE47E019360F4A3FF543F30E509541FFEE493A3FA
:20046000600C010ECF54E0B4E00EEFFAEEF9A320000DDAFDD9FB80D654C025E0604B502681
:2004800020211AF85407240CC8C333C4540F4420C8834004F456800146F6DFE480B0211675
:2004A000040810204080202500FA200300F8200308C8C582C8CAC583CAF0E0000905DFE962
:2004C000DEE78085201A401E1F4003F68001F208DFF4021CFC2A2A4F54415F5355434345F0
:2004E00053535F4352432A2A00E00311074E4F54494D4552008027044641494C2020240186
:200500002121202625A81F742046004F7461486F73744657555F53746174757320423A005A
:2005200025B225B725BC251FC125C625CB25D0C2D5E830E70FB2D5E4C39BFBE49AFAE499F4
:20054000F9E498F8EC30E71707B2D5121E25122B93E0041801800320111930D50DE4C39F3F
:20056000FFE49EFEE49DFDE49CFC224E6F6465206C69737425FA012D3EE0000D19206572F6
:20058000726F7220233A004C6966656C696E6500496E76616C696426291F6F75700078B0B2
:2005A000E4F6D8FD9000007F007E10E4F0A3DFFCDEFA904CCBA3E583C3940D204011FEAF91
:2005C000829020000E0FE48002801B41AA081CF92232EF901EAC93201A18730A20364CE53D
:2005E00074FF22EFF57422556E6B6E6F776E206576656E40880A235023550100000100640B
:200600000623C800054008031100030260110001C0080003C00803050003042243020064A4
:2006200009C0080012C008000B203E0391013ABD201D05000260013AC6200705FF038001C6
:200640003ACF40080004200800D840080005200800E14008030690013A463A01FF07200824
:2006600000F340110008200800FC400803540A964220801101540A0541C8C80A055C0AFF2F
:20068000211C1C00005420070600004B4B540A01200703C832540040070064201725B0203C
:2006A000B902540A032017010505200F20070132C88007074B4B4B1914033232240D012135
:2006C00001402043B5000A4002202404015463FF43C27F207BE013001F875A2D57617665A4
:2006E00020352E303300C0747420C0E0C082C08375740AE5FF54CF449002F5FF22E0031549
:200700000020E00C150036601500A0E0062B004C601500B02015079081AA01169081BE20EE
:200720000401A036200401B894200401B614200401C80A200401CE91200401CFFF200401EB
:20074000961E200401D048200401BB40200401D196200401B570200401AF61200401E01365
:200760004004002F200401A6FD200401E0E5200401E7EB200401E80E200401CA67200401C7
:20078000E8454004403601E87E400900BC400400D5200401C871200401E1EE4004006820CF
:2007A0000401E290200401E727200401E98D200400E2409501A179200901C4F3200401AA4E
:2007C0003A200401EB244004005440040099400400B7200401EC024004400E01EC49400917
:2007E00000C02004019D5A200401ECCF200401B72920040181F4200401ECE4200401BAE3E7
:20080000200401ED26200401CF6A4004407C00CD409001CDA7200E01E339200401CF85204C
:200820000401EDB5200401D4EC200401E44F200400ED40AE01EEE2400900D0200401F06B6B
:20084000200401ED37200401E3FE200401EE81200401E62C200400CF407C01F06C20090148
:20086000E507200400D440C201ABD2200901AAA0200401E69240040033200400E44027001D
:20088000E340AE01E66E200E01E395200401C628200401C5AB200401D0A3400440DB01D417
:2008A000BB200901D2182004019FDE200401DCEA200400EE40C201D7E1200901D872200477
:2008C00001F61B200401F5B3200401F64C200401D776200400F740B301F47C2009018097A0
:2008E000400400FB40040000200401815F200406C057014290810B200401CA7B200401C67B
:20090000CD200401CA7E200401CD4F20040180F3200401B667200401ABB7200401809D2099
:2009200004018B1E200401CF46400400D9200401D008400400184004004D20040191B12041
:200940000401D1332004018CBD200401D3C6200401834A200401D65C200401B6C820040151
:20096000C01A200401BFF0200401DA5420040180DB200400DA402701DADF200901AD6F2071
:200980000400DB409501DBA72009018230200420AE200400D1200401DBAE400400C0400467
:2009A00000D5200401CCC7200401B150200401BA662004018340200400DC406D01DC5B4032
:2009C000090078400400AA200401CC31200401A0E9200401D156200400C840E50188A02032
:2009E0000900DD40F901A9B540090052200401C97C200401C8972004018780200401C7FADE
:200A00002004018276200401CD3F40040047200400DD408601C7F2200901C836200401DD52
:200A2000FD200401DE19200400C840CC018344200901C968400440EF01C85D40090062201E
:200A40000400C840D101889A200901DE88200401C3C2400400A6200401DF9E200401D6379E
:200A6000200401A914200400CD408601E2FC200901E39240040096400400A5400400B04068
:200A80000400C9400400CF200401E66D200401E8EB200401D0F6200400A9413500E9405E51
:200AA0000192CB200E01E9A3200401EA164004006440040065200400E040FE00A9413F003C
:200AC000B4416C01EA6E2013008240D101EAA4200901EAE4200401A084200400EB41F30182
:200AE000EC0A200901A6C3200401C7EF200401ECA9200401A153200401ED87200401BF053D
:200B00004004412600BC406801BED3200E00C9408101C8BA20090180DC200401BC2320044B
:200B200001C85F200400BD424801FACB226B01ED08200401FC054004004D4004005C20045E
:200B400001FB78200406BF79012C90C0C0400400CF200401C10A400400364004003E40043F
:200B600000514004001240040065200401BB1A200401C19F200401C0FB200401C1D42004E8
:200B800001A891200401C1F0200401C2874004008840040099400400E0200401A686200495
:200BA000019402200401CAEF200401CBB620040098403B01BED720090182B2200401DD33BA
:200BC000200401DE47200401E226200401E35B2004019434200401E60E200401E56F200498
:200BE00001DA32200400E6403601E9BA200901E828200400E540B301E5F52009018F0420D6
:200C0000040186D2200401A689200401E629200401E5E3200401F0144004001E400400250E
:200C2000400400CA400400FE200401F137400440A901E59D200901C2B7200401F18D2004FD
:200C4000018EE7200401C9A9200401B3572004019C114004402701DE69200901B194200400
:200C600001B722200401AC9A40040097200401B395200401DAF3200401DDE9200401F5FDF3
:200C80002004018572200400F6406301F66A200900D040CC0189A8200900F642BB008B42FA
:200CA0009800F742AC01F5E221A301F7D84004420201F8FE200900E7426600F943C401CF44
:200CC00072200E01CE86200401F5BB200400E6437901F38C200901E50D200401CD7F200453
:200CE00000E7420700F3403101C0C5200E01F2EA200400D842C500F9420C0086429D00D64A
:200D0000440A01F9E7201801F087200401F3D4200400DA42ED01F46C200901F3BC2004007D
:200D2000FA427001FA1740090073200400C143C901FA38200900FB433801FB8D200901F0D3
:200D40005A200400F120400A00E709F608DFFA8046E709298D08FA803E88828C83E7092896
:200D60008703FA8032E3801B0178E3801B0070401B00E3801B076489828A83E0A3F6403310
:200D80000058800B603F1F4C80D280FA80C680D4806980F28033801080A680EA809A80A890
:200DA00080DA80E280CA800033402B00EC4A2400C82A2003CCC583CC8A2040096A20000D36
:200DC00040202A24205907F9ECFAA9F0EDFB22401102ECFAE0E00B3104EADEE880DB401FC0
:200DE0002031207F05F980CC88F0EF2ACA0F4E60C388F0ED2402B4040050B9F582EB8009A7
:200E00000CAF232345822390275773BB0106403509E0225002E722BBFE02E3606405E493EB
:200E200022BB010B40180AF8E0C828F0E822500327C7201E0B07F8E3C828F3E8228A8389B6
:200E4000826023090CE58229F582E5833AF540420506E92582F8E62027600801E222E0014A
:200E60001C602C000980500128F0404E00F720260405F8E328F3604C2B0900282072010F64
:200E8000F8E0013260270309C5822920130126F6202D600B0BE22582F222F8EA2583F58392
:200EA000E9603260BE2051000240500601F322F8BB010DE0014400E82019408C00C840405F
:200EC0000005209E0EC8F222EF8DF0A4A8F0CF8CF0A428CE200A082EFE22BC000BBE0029AA
:200EE00020171984FFADF022E4CCF875F008EF2FFFEE33FEEC33FCEE9DEC98400520061466
:200F0000FE0FD5F0E9E4CEFD22EDF8F5F0EE8420D21CFEADF080290EED33FD400798500657
:200F2000D5F0F222C398FD202803EA22C2D52B540109B22B676B3303EE30E715400C6B460D
:200F400003122902C38B4A2B5F06290230D507C3E460180422C5F0F8A320F9200613E582A4
:200F6000158270021583E038F022A3F8E0C5F025F0F0E0001301C838219402BB010A41516E
:200F800003E0F5F0A321BF050687F009E71921270607E3F5F009E319A1C803F5F074014152
:200FA000CD0010E10114A0300009210E03F886F00841B0000A400B03E2F5F00821B401836C
:200FC0002A415B205400E94037000740620D02298D500B09C5F027F7C5F019374169060D10
:200FE00009F8E325F0F3200E01E338217440242067002540B802E49338209A000D21B906C6
:20100000C582C5833AC583403D0011200E0BF808E5F026F618F5F0E58236418F801308E220
:2010200025F0F5F0F218E23541D8A0A42081604D01F5F0804C60E703F0E5F0A341CE03F77D
:2010400009A7F040E70606F3E5F009F31941F10011A037228600E8A02640DD04C8F608A6E3
:20106000F02111600B03F2E5F00821FC1F2BFFEE3AFEED39FDEC38FC22C3EF9BFFEE9AFE4E
:20108000ED99FDEC98FC22E88FF0A4CC8B05F0A42CFCE98E4005028AF0ED200B00EA200BA3
:2010A00002CDA8F02017062DCC3825F0FDE92025052CCD35F0FCEB201803FEA9F0EB200F25
:2010C00010CFC5F02ECD39FEE43CFCEAA42DCE35F0FD2009062275F00875820082461FCD1A
:2010E00033CDCC33CCC58233C5829BED9AEC99E58298400CF582EE9BFEED9AFDEC99FC224D
:20110000301FD6E4CEFBE4CDFAE4CCF9A88222B800C1B90059BA002DEC8BF084CFCECDFC9A
:20112000E5F003CBF97818804C226C229612EB33FB10D703994004EB99FB0FD8E5E4F9FA5D
:2011400022E0052015C933C910D7059BE99A4007EC9BFCE99AF90FD8E0E4C9206000FB202F
:201160009A0010E0004A209715C833C810D7079BEC9AE899400AED9BFDEC9AFCE899F82092
:201180009315DAE4CDFBE4CCFAE4C8F922EF5BFFEE5AFEED59FDEC58213782AC82C115229A
:2011A000EB9FF5F0EA9E42F0E99D42F0EC6480C864809845F0E0041501E89C201011E860FE
:2011C0000FECC313FCED13FDEE13FEEF13FFD8F1401202EFC333436780D32012C270082DAD
:2011E0001B5005E9F80231FA43B602F8023263E602022D272258E101EB4025000742B9609B
:20120000278009013206E0031F202F0007429B02022DA8604F01323CA04F00482069E00415
:201220004900A8A0494021A049104822E0FCA3E0FDA3E0FEA3E0FF22E493FC22930AFD74EC
:201240000293FE740393FF22E023A806F9A3E0FAA3E0FBE0074B0037C04B0012E0004B007A
:201260001FE0029511322C7401FF3395E0FEFDFCA3A3A3E0CF2FF0E300D701CE3EE0010BEC
:2012800001CD3DE0010B1BCC3CF022ECF0A3EDF0A3EEF0A3EFF022A8828583F0D083D082DA
:2012A000122DCBE0000201E47325FC05C583C5F0C583465300F0E0020B20A1A10700B4816B
:2012C000070054A107006D2019E1040700B4C0BB2021A107066D22F5F0C582A423CD205993
:2012E00000A4457A0822A42582F582E5F03525860222E0FB610502F922F820092007E40339
:20130000A700FA24BC03EBF0A3EA244C25580193FB214100FA214100F92075808F012E409B
:20132000808F0086A08F009861AD042E69BB011A40090ED0F0D0E0F8D0E0F9D0E0FAD0E010
:20134000FBE82EA607F0022E605016E9F840FCE000184EBC0402328FBBFEE00D1800A12084
:201360006EE003E42074A0DA2076A0090098E102A0407E0020E0010FE00E8400184279E0DD
:201380000D86E00F1A01A122402F2521017012210905700DA3A393F8200805F5828883E4A5
:2013A000732117026860EF22110180DF4025E01024006C203C1003936D700C7404936E707D
:2013C000067405936F60DD203620000180CA67990273E56F619F006E419F09B56E04858240
:2013E0006F2210AF06200602F56E22600503D2AF22EC24BF0BCCC5F0CCCDF8EFA4CEC5F0DD
:201400002D44B406E8A42EC8C5F03D400A07EFA4FFE5F028FEE4600C0022465208E208B59E
:20142000F06BDFF58067400C00E6200C005E200C015A87800B0452DFF6804E200B402400B9
:2014400046200B014288293E200F04E0A3B5F036200F0032A00F22A102B5F0252038002140
:20146000401040494021001420100010C010602200023310073153808780E98090294317B9
:201480003E8015806E807E809D80B7808D80A380518074803C02315F4223494426AD42F2FD
:2014A000493C203EC00A08B5F076DFE3DEE1807040266024409E0462DFF4805E401147076D
:2014C00040C70051207D004DC010402100402010003C401060334022002E2033042A800277
:2014E00080574015E00670E9018F14B5F006DFE4DEE280007FFFB5F0020F2240027F0122F5
:201500008031406BC096E0033006D5DFE5DEE380CFE00924E004C600AF605600A9C9D200F7
:20152000ABA9D00198F5C9D0008E89D006309B73EF4E601249F800EDA9C02AC033640A2242
:2015400089F05007F709DFFCA9F0270F01FCF380091FE6FC08E6FD08E6FE08E6FF22E2FCD3
:2015600008E2FD08E2FE08E2FF22E6FB08E6F908E6FA0E08E6CBF822E2FB08E2F908E2FA5C
:2015800008E2200C01E49342AF00F922AA00FA228318FB22ECF608EDF608EEF608EFF6226B
:2015A000ECF208EDF208EEF208EFF262E603E493F60822DC200400024004050393F6740464
:2015C0007382D900F24018200400024004020393F220184073207009F922EBF608EAF6088F
:2015E000E9F66078207520110AF208EAF208E9F2224C69669455115E8670725985738E606F
:201600005A55989F6C7A71795E4007600402727086201902608E5A20150D72FF32B311FF76
:2016200032C405FF32CF0C0337DC600E01C906200E000B200EE0004E1F5A017006710579DB
:201640000A7907200120014F6E2F4F666620636F6E74726F6C20284272046F77736529F3BC
:20166000004F012002E009230854616D706572696E67A026012003E0092309446F6F726248
:20168000656C6C20318024012004E012230032A0230005E012230033A0230006E0092307C0
:2016A000456E7669726F6E6D35196024002020D9E007D70753656375726974796020200034
:2016C000012008E0092307456D657267656E63E000240601710E0800405E21750285598E74
:2016E0002177C008215C0A343309FF343C04FF344005E0590DE1FDAEE117AE0022E0160117
:2017000002FF32AAE00C02080201020302020403023C2F1F06050207060208070209080217
:20172000010A0906010106010206020106020206030106030102063AAF202606040506040D
:201740000606053AA5050206120106122005190306120407061607070107070207070307AA
:2017600007040707050707060740000408070709083C3A1F0A02080A0352096AD53036A56A
:2017800038BF40A39E81F3D7FB7CE339829B2FFF87348E431F44C4DEE9CB547B9432A6C266
:2017A000233DEE4C950B42FAC34E082EA16628D924B2765BA21F496D8BD12572F8F664867B
:2017C000689816D4A45CCC5D65B6926C704850FDEDB9DA5E15461F57A78D9D8490D8AB00C1
:2017E0008CBCD30AF7E45805B8B34506D02C1E8FCA3F0F02C1AFBD1F0301138A6B3A9111DF
:20180000414F67DCEA97F2CFCEF0B4E67396AC7422E7AD3585E2F9371FE81C75DF6E47F193
:201820001A711D29C5896FB7620EAA18BE1BFC563E4BC6D279209ADBC01FFE78CD5AF41F48
:20184000DDA8338807C731B11210592780EC5F60517FA919B54A0D2DE57A1F9F93C99CEFFC
:20186000A0E03B4DAE2AF5B0C8EBBB3C83539961172B047EBA77D626E16914046355210C31
:201880007D38041F089110D0365A3ED8439977FE1823200770A16C0C7F628B4046C74BE031
:2018A0000EEB16E81FADCFCD39536A273593D44E48C32B79542809780F219087142AA99C4C
:2018C000D674B47CDE1FEDB18676A498E2968F02321CC133EEEF81FD305C139D2917C411C4
:2018E000448C80F373421F1E1DB5F012D15B41A2D72CE9D559CB50A8DCFCF25672A6652F27
:201900009F9B3DBA7DC2451F82A757B6A37A754FAE3F376D4761BEABD35FB058AFCA5EFA2F
:2019200085E44D8A05FB60B71F7BB8264A67C61AF86925B3DBBD66DDF1D2DF038D34D99262
:201940000D6355AA49ECBC953C1F840BF5E6E7E5AC7E6EB9F9DA8E9AC924E10A156B3AA083
:2019600051F4EAB2979E5D2288941FCE1901714CA5E3C531BBCC1F2D3B526FF62E89F7C041
:20198000681B640406BF833801E54C1FB5FB9FFC120334D4C416BA1F36055C67573AD521EB
:2019A0005A0FE4A9F94E6463EE1137E01F10D2ACA52933593B306DEFF47B55EB4D50B72A12
:2019C000078DFF26D7F0C27E098C1A6A621C0B5D821B8F2EBEA61DE79D2D8A72D9F127329D
:2019E000BC77859670086956DF99943BEC1FBBFA7AB0A7F8AB28D6158ECBF213E678613F78
:201A000089460D353188A34180CA175F53831FFEC39B4539E1F59E195EB6CF4B3804B92BAE
:201A2000E2C14ADD480CD07D3D58DE7CD8146B1F8747E87984733CBD92C9238B979544DC62
:201A4000AD406586A2A4CC7FECC0AF91FDF74F811F2F5BEAA81C02D19871ED25E3240668B3
:201A6000B3932C6F3E6C0AB8CEAE74B142B41ED3491FE99CC8C6C7226EDB20BF43515266B9
:201A8000B27660DAC5F3F6AACD9AA075540E01E75F641F3C41F8ACE8577F201AB35B269403
:201AA0000702010001C9C38008110104000718010808111F0204000806040A051124010331
:201AC000527266A5DA50A995B7CF19064F96C22DD7C1DCB91F5E7F23FF0A55A1F57902B1EA
:201AE00061CCC83DC7112A332F5625E3611315A689E78DD1731FC711624A4BBA3B733639BD
:201B00006635AB7489745B99D98BE372C512D3A51A83ABC2585B1F04EAEABDFA3C39EFD271
:201B20005680387FE356CA2FEAEEE74AB29D05ADA597AB4D477E381F0100706621F816097D
:201B40009C5B43DF61B3BCAE6FA07733820DEFB22651740F2D8955101F8E7BA795EB2FDE94
:201B6000EFE512885405C332D2487239749AE00E9F847B918E4FA7D9FF1FD0CAF0616D0ADC
:201B8000F4FF3EAEC090EE200D1F6E0DE3953ACC913CE9D521CF69F3E8C619BC7100BD8CCF
:201BA000C41A3CD343C9C13B348876060D900319920F081300A00009FF3995001103F00009
:201BC00000C5E00700A020E01F000326B126AC26CA402E0117064005001840050006600565
:201BE0000001600500086005010101402301011540223B59200601010B40050006600500BC
:201C000008600501010D20160200010E4017010110200A0200010F200402000405403B258D
:201C200011400B010708200501020520040100036017010108600C40160200010C40290127
:201C4000011240110208030240110022200402000816401E0008400402000116402300062E
:201C6000600502050903201100053BF72005602F0005407C0200061B406B000160050206D3
:201C80001C074011001D4005010705404201081E400B01082020160200081F2004010008B8
:201CA0003C34200500116035600500086077010619401101061E201C010006602F01061A1C
:201CC000404101061440830007600500086065010724202201000860110055E00500003317
:201CE000E006000088E00500093F241E16110E0B09070526641001F0C8A79177676046386B
:201D0000353230242220142178090202030304040505060626311E090B020D071F060B0613
:201D200023052629252E233E0F070840040A040C0105021B0000E0055A018826E0060007FE
:201D4000000DFA20000DDC7020AA0D00020C00013F3F3F040404353535200F00003D731FB7
:201D6000C801F403E807D00898001E001E24C724CC000020B220B720BC20C120CB20DF20BD
:201D80001FE420E92454245E24632468246D2472247724812058205D2076207B2080230FCB
:201DA000231F1E23232328232DA00001AAAE1FAF00C3CB26202625262A262F2634822D1C32
:201DC00016131F1110102170217521AC253F2544254925622567256C250325085A01257171
:201DE000257B251F8025D525DF26ED26F222A622BA244A255825AD2607269826CA77BEE401
:201E0000FD7C0CAB0D050DEB901FF4938F828E83F00FBF226A04DCEC7F0322400E15E4F03F
:201E2000A37405B1D87403B1D8A3E4F0EF2404F582E43EF56016032BF022F0402210A3A383
:201E4000229003CF7402F09003C7E0FF122517400D1F05F0221242E71221391221FC122086
:201E60009E12230AF1ED7002C1DE7FFF1221BB9008E70B122E607E007F09F13ABF540D208F
:201E800008000A200807A5047F0180027F00204601EFF060221A40E94A4B701D7F04FEF138
:201EA0003AEF2401FFE433FEC374011257CD7F00502CF6802720730364017052802F0C1230
:201EC0007C457A0879ED1275419008ED51534016117BA3E92407F9E43AFA9008EA122E609C
:201EE000E92408200C04FEAF017B01E0022B20430904A3E0640660081221C0205420812079
:201F00005901701C209B1804C006C3745C9404FE74781279D3D006127E59E4FFFE1221C533
:201F2000402108FF1221E8F1ED7F006020901C1220F8122102122062127A337A12791E12AE
:201F4000226012501BFE4FFDA3E0FC4D20041FFB4D600BEE5FFFEC5FFFEB5FF47003124ECF
:201F60005D90121CE0FF901220E06F9003C2F0100222D8E075F002A42485F9740F35F07B55
:201F80000220A41FE4FCFD9049ED122DA812401912419DEF600512477C80F51241E77F031D
:201FA0001242DD600008401D0347E5F183200701F1F860060B122D1BE412418D9049F1F12D
:201FC000DA2004325740110AE5C820E2FB8FEB229049F2204D6005091BF13D9049F6E06FCC
:201FE0006038E0065C0142C6405700F2A05700F2805702F2F17F402D1FFFF183F1DC9043B2
:202000007B7401F0D322C322EFF012408CE4FFEFB4010443FE202253FE00DF220C00C921F3
:202020004E0422E4FF80E92063127808122C67E42275FF0275E40475E40175E402A00C01EB
:20204000E4F5601606E5E430E10675E42002040322904605409C01460921A702111931205B
:20206000EE0504F17C80F751408F064605F1E5123F83200702123FF8A00820E908801D9012
:20208000460CF1F6601B603522310D600A127E4390460A91F680E5E4FF20280380DE123FB1
:2020A000A0B10022200E1FF1BEEF70FB90437EE0F4600A904C7E7406F0F16C70FC90437CEC
:2020C000E0122F6D40C5041F40CD1440D21540D71740E43040E93440EE3640F33700004015
:2020E000DF435410855480801E2C43551080084355208003435580855590801A127A6C8038
:2021000015435701800D4357401B015740201B0457808557B04060000C60600022221F0480
:202120003FE1904C7F2138200508E0603731EC7F05318D200B10EFF0118C3189904377EF1E
:20214000F03190904378EF200F201607E05401F1CB60D3A320A805CEEF30E7CAE4201302DD
:20216000F080C32036009F2036024379EF602D007E8006037F123FDA2041202B001B4030BF
:20218000001620180EE0FD541F240FA3F0EDC41354074480201101F022203C00D72103232C
:2021A00085023F83E5421101AFEB809802303116201B608F0180EF607F0980E020E002C2CC
:2021C0003130311EE0049B2092000B406100062092201E001121FC20D704A231E433FF80EA
:2021E00049A14916420F04421714421C15422117423130423634423B36424021490442298A
:202200005354EF41490D2F5355EF80085355DF800353557F41490F1D5356DF8556A08015C4
:202220005357FE800D5357401E0157BF201E01577F214C047F0CDFFE22E20216615101D2BB
:202240003120B7020611892005216007837F031189E4FF02208601460E624A011212E204F1
:202260004A003123370051433601460EA24E000EC24E2008037F904615224B000F21862084
:20228000380461F4904613224600EA40E420524060A06F206921B303EC90437A24012294B9
:2022A00005437DE064022224510443797C7D01239A0122E2200A05857F08127CF820080017
:2022C0008224E900C420071D807F0BF1C49043801250956006BEFF17BFFF14F1DC500280B3
:2022E00005127D8B80092018456E0140F0601300082054047403F0800640070102F0A15609
:2023000016436604437114437915438117439730439F3443A73643AF21560C438C75FF018D
:202320005350EF8550FD8047400A0351EF800E600702DF80066007057F8551C9802C400A09
:202340000652DF8552CA8021400A0353FE80166007A02D0153BF802D10537F8553CB118CBA
:202360007F1191F0E4FF918F310420EB6086107EE0247F6009047016F174740A8006F19D28
:2023800020070058209E40AC20C6228A228401028122A10082458104FF64104E7020C3062F
:2023A0007F740EF0EF6420A00B000F200B0040A00B0010200B0080A00B0811F0E4B5070AD0
:2023C000EEB40160310012A00D0002600D0013A00D0004600D0014A00D0008600D0015A07F
:2023E0000D0010600D0016A00D0020600D0017A00D0040600D0A18F0414B904C29EFF0E42C
:20240000A320B41585E0FFB40209740FF16474B9F0800CEF64047042743D200D0379F03108
:20242000E7202607E06007904384E0FF269700AB21E7001123970129E020110BF070169064
:202440004C2AE0D39400400D634C400D0314F080EA630D0A22EF4420F5FE22E475F0013A7D
:202460009856510AC083C082C0D075D008C0FF216C0CE5D530E6047F028009E5D57F00231F
:20248000460D7F018F18E51864026002A1D8E514248618454901455C0245C508456709458B
:2024A000720A45800B459E0C00004749203C0C75C355151AE51A6002E14975144004401283
:2024C00003F0751409200F400A035575140A600A089007F6E0F5C375140BA00D00E3600DEB
:2024E0000901751A14900805127B0B80411E0CE149AB1CAA1DA91E12762BAD16AF1F1276C4
:20250000561257ED75FF00127DD343FA04400812665A751408E149C2EB751400431504127F
:202520006AAC4020770391F6E14920B40001404601F1EF401105E5107022F15D21F1145518
:202540006004EFB4540BD213AF6D900803EFF0C1CA75100220490175D9204616E5106402F9
:202560007064127BE0E5D91228BC12748C126A6A9007E226480D7CFFE0900967F0E0FFD37D
:20258000940940252013215F0802400CEFD394AA7F0054E801800D201F20140040800E4660
:2025A0001D02D3806D401309F51612748190121DEFF02066058516D975100360690003409D
:2025C0009D206B03127D51FA606F01F1D32020405A1EC39403E5D350055402FF80035401D6
:2025E000FFEF602A30E111C39007F0E094FF9007EF2005035013800F201000F2200A029006
:2026000007F120050D500291F6126629807AC22F124E1720470E127ADDE5D120E0FBC2EB78
:20262000431502F15D22EC0F90121FE0FEEF6EF15CE090121EF156A32881011220400739A6
:20264000E108901221E0FDEE6D4F60406600F4204F029007F320054055206600EE200A02F8
:202660009007ED2005401001751060A404B403081516211705E516F09003CB200505D0FF6A
:20268000D0D0D08234E138B40132FE604E07FF85128285118322228100F022992007007E1B
:2026A000228904E0227F1091200F0B7A22E51530E20FE51520E50A200901E00524C4024D09
:2026C000D522E50245002246360220E0192519003D22E2017F2A40040080400400A6200423
:2026E000273A0522E5C85404FF24DC047D020222E220530C77E0FFF422301305C213126348
:2027000032203E0585E024FE24FD486501781067EC0DE5F754C024FF2274FFF5F01229A37B
:202720003B980290093B295002093DEB2004073CEDF0540290123A242C0E84600712693AD0
:202740005002C322122341EF604007016D20A00702563008200F203804E0B4040BA3237805
:2027600001093B450D0025200707E064057018901224222D033C30E50624A40A1F800411A9
:2027800094E4FFF1D9800520130111944024029003C8206D003D21800639F0F1F39003D0F8
:2027A0007AD600D33A4B25A002018006400704E4FFEB600823350253CDFD64F50743CD02B9
:2027C000ED600553FB26910143FB2089000728B60243E14048B00853E1BF22901243E0FD98
:2027E0002140016F52607D01123AE0067D047F0143FB10403204E640EF600D200807E5E16A
:2028000020E7FB43FB0D404E020E80FE2011290428F701C213200A09901215E0603AE5E6CD
:2028200054032A7C0D3212211BF177401F901239E0600D21C0057008121E6BE4202300F00F
:20284000200308E0700221E311C721E3201301D2136015600B05126F7F9003C9215A0C1228
:2028600000E0B47A14901214E0B49C0D2012238400054384060330E49003CEF020030DE020
:20288000FFC394805013E42FF582E434124BC140140304F080E3203C01747A204209147453
:2028A0009CF0D20F1222EC4026BE00E726CB02127910412A26CB600C0011200C0021C00C00
:2028C0000012200C0022200C202402237F0226E505901223E0B401425E0474B012212020DD
:2028E0009902122116208923D70420A3122111200A08E0FFB40602800C301344FB00056006
:202900001008122512EF24FFB39233210F0453E6BF123F217E60DE0B12582612212A123D2B
:20292000F5300F0B607D08257D10126AD5122161610E060F20330C123DE0201906307905DD
:202940001220D090220D0430E0028003405C1001B1D5D2AF20330241FA12230571ED12250A
:2029600020B501DD40220208C8E0604312214DEF702276001F25BA0436E51470FC431A116B
:2029800002B1F012225BEF70FA126CC35005126CAF5040C801448F403204B40204E4FF2783
:2029A0009C203D01B403205C0411E9122143234A08E1A2127B154002E4F040400B0471CFF7
:2029C000B146127B39C0E071DD23A902E0FDD020DB0D2099417812503C1250025002D15DD5
:2029E000404007605F902F82E07059E00384004CC084000940C4297300B1E0138B0303E4EE
:202A000080184049608A01800E600A0005203900152A5600FF209A60F00722CE12251C204C
:202A2000100520A801802142FB00C1249406C39E4005EF9EFF2857200E0BF4042FFF7406D1
:202A4000D39F5002C21040CB0022E019CB191222AB12215712508441FA9003CAE0FD75F0AD
:202A6000AA9003D2122E34ED6CB313C3F9740335F0FA7B0122D3900001E09400900000203C
:202A80000503500281BF21DB09C2ADE0FFA3E0904C27CF5E5B00E4201B01F0A325AA0D02AA
:202AA000D2ADF57191C012680F700281A9201E01F1E8200D0A2D37D3122C565052E5719118
:202AC000214604600AF46007600A0114F0600606600FE5711268182BFC402B02A8801020A8
:202AE0000E0361E4E4F0400D01B400200001B1364878024E600C800806AA06F9122FCD12CF
:202B00002D36022191C04788203903C006C007206E041267E0D0072DD1012AFA4554204C3C
:202B2000060571E571C3940E20B5001D201E40462DE009F722E57175F00CA4243B433B032E
:202B400033F58322600D0045C00D039046C3EC5F38089046C2EFF0FB9046C52060021268F9
:202B600017204E02EB91C280058076003720F704F1E8122AEDA06D0190462313203503E06F
:202B8000FE91D023C40446C3E0FCA325D301B138604EC0750043C06708AF82AE837D0190BC
:202BA00008F564C900A32AD8223A0878F1C15004C22FD117201740AF038E11F512201A1D65
:202BC000409007E6122E60AE11AF127DAA127601E4F5FF75D901F510E5155421602C21F22E
:202BE00001E50528AA05648FE49008FA2F6C00FA240905125EEEEF6009400B04C394104037
:202C0000EB23D504252B5315DE472C047F00B403022409026652D220690BD2EBA21292ED4B
:202C200022EF600C71CF40930AE4FDB14C8009122152B1F08C05002220970021C09705F195
:202C4000D1127ADAE54726084315205315FEE4F510403E4E3C1E904C7DE5F4F0E0547FF52C
:202C6000F47F827E001264461263275005E5FC20E6F6302F08201E07E04480F5F412644266
:202C8000E0011725AD03E5D520E7261B06E5F4D330E601C32E6804B1D5EF6049240B4F7330
:202CA000025C8550230E001E20C302C040EC601300204013000F2F89005F2282600302F4B8
:202CC00060E6436B0130E023CE01B1D5246F011CF06029051EE0FD12226526740959EFF0DA
:202CE000C2301263EFD21B200B06E0904B52F0D21C30FE0FA3740DF012633FE490095AF0A9
:202D0000F1C9506F200702E0706946ED0B60F0F15CF16F64557047F16F204E2F5300074016
:202D20001C02F470324015016018258F004A3D3403640A600D401E00FF401C02FE6F702606
:202D4000AD025A800A499A006E20090170192B600180A6200901800F200408E0B4540574E4
:202D600033F08095200B23DD01808D2007248D000641EC018000277A400F00FF276C0220B2
:202D8000E00840830B70F5FF2243F701AFF922F15C201A05EFF022126C4161C50D7F01D122
:202DA000AE900968EFF0BF02028013200905E0B43311E4F0401601BF0229530068405E2596
:202DC0007701096827310368E0700A20DC625301F1D1400F27CA17C2EBA2ED9212C2EDE5AE
:202DE000F4C330E701D3221272847F0802252B23C20B8FE322C2AFEFF45215D2AF2242808A
:202E000000FF30B2102280E6A2AD9223C2ADAF6DAE6CA22392AD273A031CE0701121840006
:202E20004F21846003037003D38021BD41AB20120022310018E064AA2411FFF022AE071111
:202E400023EE04FEEF8EF084AFF02230110C65340006255006ADC211301323AF4A5500E032
:202E600064D1020AEF9E4A230410C2132290201306F42FD394014002400D0103CC434C00CA
:202E80004C2C7A0403CC02488520680B03CC11956009CAEECAC9EFC9241080AC034E2271E6
:202EA0007223271DE49044D5F0A304F09044D2119570022136D3EF9420EE940040047F2035
:202EC0008006201500A321B30144D423A40244CF12235C0B44D4E0903E55127A129044CBD7
:202EE00043ED037575400E204240C902FEEF4E2009202808D4E0FFC39044D3E09F200B007F
:202F0000D2250A2006202B0037201802127E4A4075004030AC0007200E02E0FF8052F60342
:202F200044D0E48F292F098D9044D6E025E0F001A9204605E0FF2290439524430590439947
:202F4000122E60600B031B904381219300FD2E2E14E034FF5EFEED5FFF90439E127C6A6050
:202F60004E711E127C4C200C01F0A320A914439C127C049E500312778E7146602251EEC04C
:202F800004C00544F8055176600551E1607401717C44FF10D005D004124028711E515860F9
:202FA000047169806732F5020080612041213100654067449706D3EF9DEE9C400A205E648D
:202FC0009E2B8C02439CE021BA00A365D3E02662000440620390439AEE60F21D8094D32241
:202FE000EFF4045FFFE4FEEF70037FFF22EFD3940F4009EFC4540FFFEE44220A02D394031B
:2030000021EB031313543F200F0802FEEF30E1010EAF06211B009D415E2087009E200521EA
:20302000270337E4FCFD255F600B813321641F22AB07AA06EB241FFFE43AFEEF7805CEC341
:2030400013CE13D8F9F9EB541F904C81F0AF050251E6FC20041B29AE01EE14C39FC4335458
:20306000E0F9AF04C3EB9FFFEA9400FEE9FDC3EF9DFF22090BFEED600FE0FD6007C374209D
:203080009D2A2C0D7D0080027D007C00EF2DFFEC3EFE208805A2E0FF5124EF403D200C00BA
:2030A0009E6308401405FD517F9043A085B060210675F020A4FFAEF020A760A401370240A7
:2030C000AD802F01C32223FF0390480812228F01FCFD26A0400A0A4090480B127C71D007D9
:2030E000213C62030040402D2175225361776045021B119C206C23F1401C00FE206800226B
:20310000626B00A822AD01227E2166223B0440E92FF9EE35030143A0603D01460C603D20DA
:2031200027122F122E60D1D3E924059132904437D1D2E9240140090C38D1D21227FD904418
:2031400039F0E924064010083AD1D2912F0490443B22C7053571219402EE231E0217AD07E4
:2031600025390544793790488F2047039044321235850825A822FFF1F290090D200C03E9BE
:2031800024B1F9357B204B24F4801000D8A010012FFF35D100EF55D8013EFEC01B00B240BB
:2031A0001B01E92475AF0002207F40320A60D225C2EBE5146002C1B026B800E225FA05D120
:2031C000B924E5126929AD0641D1C8D1C154072D3908E4F0126A4C900910EF498F05E0723E
:2031E000124FC94049C3014DD5201301E0FF20A40D0979111264D0E4337004D2EBC18F40A1
:2032000015042469127E6121A60B0911E0D39F403FD2EB126ABA469A059007F5E060126044
:2032200063017A5C2EA34EF3026178D324610304E07016204A0B0879047C697D2F9047F64A
:20324000746450470212609C2CC2034FC950056E19C6EF26E901C21380A02E6D04E4940039
:20326000502F205408B19132D1B824D8913260FE24670740EE648094804013201B03E512F9
:203280007D448070408700D340E70008211005CFE9CFF5118F4091203C06F516AE111276DD
:2032A00037202D412B058B1CF51D891E200C205001F51F406C06FDACF05460602C20120D3E
:2032C000D99132FF126A7EC2259122FB7A002FF4097D18127AA9EF2BFFEA3E21760514FB68
:2032E000E43EFA7D27D501C17C403601540741432FE82038405803FA12762B200A20560549
:20330000FFAD16127656201D0EE0640370247B01FD71F2D3F1CD5005378A01286728573025
:203320002821DD0B2428FBE433FA7D03E4FFC17C602B0402702B71F5202803400574FF804F
:203340002806E5D25480440AF54257407D202D207D0A126B82F1ED805DE4FB7D016057E079
:20336000012E40950C441045F07F0560027F0AEF547F6040024FF5D220730743D2809122E9
:20338000FD7C00C0230E7E0060047F0A80027F05EF25E0FFEE2256042DFBEE3CFA2CA44099
:2033A000604025237308A22592241266614006415C21B00161784205218C00E7216304FA69
:2033C000EF1228BC401803D2EBD322800701C322221B62B200224020020229B9A00E032400
:2033E0000422F023380002238C01429D229F01F1C383340342A7F1C2210A029042A8421501
:2034000002E9240223371042ABF1C2E924039132149042AEF0903BF8637E013BFD637E0478
:203420009042A5F1E0604323D6013B12234010433EF1D67A4279A712242CEF60037F01226D
:20344000202A00F1297F0322904216401F02421B12435343A2014220203F400E607200212E
:20346000206F2065019042209A2015017A4E400B0024207000F66070014228A07026210026
:2034800094202001D1CB60910027202C2057207D012B12407D002E607D032012240EA07DB9
:2034A000014228202F207E202700A220EF0433FEE0C39F22AF06F874809822AF05260801E5
:2034C000EFF02BF26062013BF86062002241CA00FF21A30275D10269F6200A04F5D1EF605C
:2034E00008200721B601800620070453D27FEB6040080343D104EDA008010822284C03D2B9
:20350000ADD2BD200605758E7175700920080AE58E546F4480F58E904A88ABDC0022F3082D
:203520004E20240230E43B60070354EF4410A02C041B11E43CFC603600A82B750D1244F658
:20354000E57030E0020559E570700D205B0B056DE56D7002056C80021570403A038530E48A
:20356000082007044385100573F1046466FA27D50BA3E02420FFEE344EFEE43DFD20590C31
:20358000E4FB7A04F9F8122B08E47B7DFA40080093A4C8401E0322903F304077013F402999
:2035A0005805E4A3F0127254205B07E5E630E00E903F4120130AFB7A3F79411265C8903F2B
:2035C0004B40D6022DC6C0211408F5A490120FF0903F4226050275FF0320080EE0FFF5950A
:2035E000EF14601314601C2402702720550B5199F1C7903F3C8016903F34800B053D800AEB
:20360000903F38800B043EE0903F4F206D00A120060AE07005127C24806590120E2BDB20B8
:203620004C02127C8B207C02E070192074075199903F4771DEC34D660009200A025199A3FA
:2036400060AF004F2CEE0470D5903F3F2515207E07FDA22D922A127202603700126027017D
:20366000904939D420D9209B0171EA40060B518C127041127DC16002213160270132A3E022
:2036800000BF04127E697011206E0571D911D8917E202D015179802C0170DF20150111BB02
:2036A00040130043204E0712661B400343F420206E032B12713440460324FF9229201C04B8
:2036C0005199127BD1211B0175E53749147EE59B30E7FBB1CAF1CD43D5047FC8B1DC71B31A
:2036E000D1C8258E053F794012707D40E804B40102F1ED217620088A5D02E0FB25294B01A4
:2037000024014D4230F4206B00EBE00410E101DD04FF22904057201F21AB0290406CE1052D
:2037200095000E2EAC02904067A0D7014067E10797014057217F03C1904063219701405BB2
:20374000800B0064219701405F800B0465E09040706197014070A19700552055419701404A
:2037600067419701406C2159014068E10091014068A191202F6191014066436202FDA22C93
:20378000618F00A3202D8187408B21872006A18704CA600241C9E000A841800516FF7E0461
:2037A000FDFC20620171DE6185014067A18502CA70DAE10078002C817801406C419401C2B1
:2037C0002921740290121322A8067E127F01E4FD8F3E1701EF2D2143003E4131201908E07D
:2037E0002CF00DEDB412E722605B07E0F8A3E0F9A3E0FA3CE104229049E8EF22F2A1F105B3
:2038000049E8E0FBF1D4617707901210E0648060722D98037F5039EB401500C0371406513E
:2038200099EEC0E0EFC0334C00103CFB0404A4AEF0FB2BA105EA3395E0F9F82FFC10D0E068
:20384000FEC3EF9BFFEE9AFEED99FDEC98802B205201F1D3803A0171DE403401F4044036C2
:2038600025DD00EE203303FDFCEB2F46DD05E93DFDE83CFCAF6510223CFC7801022C679068
:20388000452B12655190453141DC0500000190453520E1269602D554C0232C024FC9502834
:2038A00059226B0253967F2E640475D504D1C120070143D544B8025394FB200401847F22D8
:2038C000890A98FF90452FE5F4F075F49C201E01A3E5273401E42522850245793543D1020E
:2038E0004535E0571302A1A8F52027002E38A620700651997801122C7A2009226007E5A782
:2039000030E1FB43A702200D015199200C08E005E47B018002E4FB24460BEF4BFFEE4AFED9
:20392000ED49FDEC48FC201F202D204304E014F070BA200D20450B10122C677B6D7A4E79A8
:20394000C67841247B02EF243924920730127441FBFA7901248D0A93EE547FFEE4FDFC12DC
:20396000744A60300DEB6FFFEA6EFEE8CDEFCDCCEECCEC2090210100BF46E880093F2800AB
:2039800019247302E030E6458B0275968020D002E4F5D520DF02E0F5F4200B06A3E0F5E42B
:2039A00012712340D3C350211F04758EC8F19E201D0A53D5FBF1BA7F147E00D1D124AE06FD
:2039C0004391802290416A20B2402204BB0575BB8520230475D5022029214860300743D595
:2039E00020302902C1A7202006538EF7438E077D350B02FF8DBC260606B102E5B130E2FB5F
:203A0000200E0AAFDFEFFEACDEECFBEBFFED23B8006822740134412240036DE0F5FF203660
:203A200001B1FD2277010CC92068210D0009210D00A3201900FD40290072A02902E0C31346
:203A400022880D13FBF1E0127CF02BFFEE3AFEF1E06B7E1FED240490120DF0EDC3940750DA
:203A600016CFEDCF0DEFF1E112532190416FE09F90416EE0029E50B8207E20DC21B8041242
:203A80000DE0F5BC400D00BB411209F5D5227F3FFED1D1B1E020E701E59135D226AA0203EF
:203AA000D3EF8B02020874FE334B00FF29520BF592EE540FF59122E4904A944E4C200703A2
:203AC00097F0E5FA21EE210904E5D530E7032748405504E5081265FA201001E61A20180898
:203AE000904A96E5DAF0E4F5DA200B04E5D630E3FB20352297C4EE00E4203C04038B955184
:203B00008B2539040BEBB403F1200E03759580B18505202B02E070082186250D650B024AEA
:203B20007995450B024A95E02084047006E044042DE701E0FF200C286D24726521206920A6
:203B40007502E0F5DA201601E0FF609209C2E17F1E12660930E70740A001C2A180140081F6
:203B600040E800E420D2249101022D25F60047200501D1C8203F00222556219F8558002286
:203B800041800070A1802032120143D810229047EAEE126203EBF09047EF74FF200504EED0
:203BA000E09047F0200739E000C33362095CEF124CC2126898704B401A057E0170027E02B5
:203BC000201C0331E2EEF02CFA0347ECE0FF49D401118829D4000A2D0E735603A89047ED49
:203BE0002CBB00C9204500EA65BA04D007124CDE203502E004FF206600F02074200A02F030
:203C0000809A200C20D8077E257FBC7B017D0A2060127403F0025FF47C007D0A0228F01201
:203C20004FF380F4E420154013039047F4EC73BD0147F12902013183200F05127B82FB1110
:203C40009420100031201D2015496104B4FF04E4122338C00F0BFF227BFF7A1D799E904C48
:203C6000211229390A4C2111CD600A11F7904C22286B0C80EF22FF1223E1E5ED20E0FB8F49
:203C8000200B05314C7F0D11F72AA004ED11DB3102207900E9206E0EE831FB50279047E5A4
:203CA000122E408E82319A2024201700E02EF105BF0F043102803079204E201120CF00D29C
:203CC000400711540F6002310222904CCBEFF0E0C4540F11F3200A261E0623E18096904C77
:203CE0007962E4200700E04048014C7926D10580D4E49007F5299F4CB003904B4C1220A729
:203D0000054B4C11CD31BA200615122E40E40228BC75830002283A904CCAEFF075F00A84E5
:203D2000405300CA2588000A317920580701F7AB07E4FF1BEB41AF001C74D245390100EBF7
:203D400041B9A00A0331E4E4F02AA601E0FF7513004642040533F5832280C6206000EF2068
:203D60006000E02EAB03FEC39F224A2903A3EDF0A321A202FF5105221501480522E505C29F
:203D80002E9142712793F204F79110BF01256C05FC75FC408007200C080202D322B1FA9077
:203DA000480020E401745722560553D5DF53FAFB204000E03E914017200A05B40818125F45
:203DC000D323F750A2206A29A70A521258E73CFC8004E0125A489C06904801E0FFF1EB2057
:203DE0003F0075233A069B04914275FC42346309E104712740F4904802E0496E03E59B2022
:203E0000E760104008000D6029001F32E507D22E804E7120B1C8406D00FD452B025D701D52
:203E2000207506E0FF71201272AE401000FF401A51F429BC05125BB3125F9E2170054879E7
:203E400003917A503C3E084804E09420904803E030C000E7203309707D125EC8302E0241EE
:203E6000132100238D88A6603100052339245E936002C21BE4547604C21CA3F0A3209E2442
:203E80003E74F30BC23071EF201B0261E153F4DF201F00E021070D125FED301C0543F44001
:203EA000800353F4BF23BD0553F5F0904B53678E06EA42F5EBF5F6D22034047FC8125DDC80
:203EC000201C03E59320E660E60B301C57E5F430E3047D288010200800E24008000720088B
:203EE00008E1027D28125FBA7F28202F05712740FC7F7860080C5029913B50F891CBEFC332
:203F00009D50F1200A00ED347601E5E8408E202C0180DF207902D1214020850620B1FAD3A4
:203F200022AFF42DAD05F5F4303005EF2BBC4649A0BED5B2017FFA205402E5FC30608A005A
:203F4000F7400802037F0320FE2027400A020222E5DF1860140AE433227FE87E03914B026D
:203F60005D24D6048CEE1257D924E8008E21610314904A8E41F324E0008D25C6054A8CE024
:203F80009E400B4006220711FF125ED122B1B3AD94EF4DD1018FF0122AA1C15CA06887EEAD
:203FA00006439A80EF127C8C211B03539A7FD3364D00E53CBD0360028016802501E30D2005
:203FC000ED00F420F80160EF20080EEB22D111AFD922904A9CEFF0A3B1512022029110EFFB
:203FE00047EF40DB605140A80A125ED1125DE0B15A4001227010202E41A90453F4DFD22FEC
:204000003E39057F787E00B170203B0453E4BFE5E42AD210D1117F8AD10930E608904A9D0A
:20402000B1BFE4800A201B600A00E55F22200C0243E440215E4B22605409D322EBF0A3EAFC
:20404000F0A3E9F035FD0230E50F40B1007041D500F1218C00C3201E87F01CB1B3AB94EF61
:204060004BD101CBEFCBFAE59130E71DB1B6A994E9F582EF4582FFEB29CE0DEA3CF583C3F1
:20408000EF9582E5F0958340DE46D80309CEECCE271A02125EC421230203AF9332AD02106A
:2040A000A4FF2B4500A3424E14F922904B4FB1517F017C127D01E4FE8D828C83ED2E23F0A5
:2040C00020460CE02FFF0EEEB412EC901213E06F3844202700BF452E20460F0153D8EF2207
:2040E00024FBFFE5F034FF22FEB170232700E0401605E4F5EA75EAFF2009030375958046B4
:204100009A35BA812EF1013F58B3019007F8007F00D1387E213F31570422918F43FA483DA5
:204120001153D1FD43D101224315015315DFD1F1D1A1402015011422201C0D5315FB302496
:2041400004D157800A7F55D18A40034FD9208F228B41FA05E5FA540360FA200F018FC33130
:20416000DA030942EFF050B6313032450043800C0A24FD6013047008900941742584000E6C
:2041800040070308F0800640070102F0305901252B202A227B010941447A01FBE4244B1FE5
:2041A000F0510C50EAD322EF30E303AF1322AD1B201404EE30E00BE517C394F05020F13DB0
:2041C0000B8018E5196006FDE4F51980128014201B25F30C6004F12BAD07AF052212699847
:2041E000FF256E0840027F0DEF903C74932C971807E5E0FDFFC3740E127415EFC4F8540F04
:20420000C868FFEEC454F048FE203907F01257CC7F005002203904904AA0EE51276F07F139
:20422000DD127D1B127DA655EA2013290602F1E4D03AE53B5403407E005038F32752000017
:20424000401D602900D021BB02D0E03E202945A20253ECFC200906127A86540342EC2EB4C7
:204260000FEDF5AF75ED0275ED04A3E0600543EC08246403ECF7904A200D060443EC0422E1
:2042800053EC2BF2014AA0436E05FBAA06E4F9F84160028FDA22263600FA863600104636D5
:2042A00003680F600886340DA80AAF0222122D1BEC4D4E4F22EB6633003F224200344633AA
:2042C000029045FC86C401460348300845FE110F605790460427BB200501E0FF2116015094
:2042E00047483503119870372011041261E27405482C0145FE2051A820014602882001457C
:20430000FC661101D0074820203D0004205500F03CFC400A02F080AF200D282020366B77D4
:2043200008C3022C560267F11FEF4062000940622019391105FFFEFDFC22E43869207901BA
:2043400013EF3C650EE05D7C00B505027C01EC2EFE0F80E736820F7D02E4FF80DC7D017FAA
:204360000311BDAB0711DB335E0A22E4FD7F0380C8AD07AC062869363F03EE9C400856458A
:204380000D9CFE8013EDF4FDECF4FCED2401FD304502ED2FFF763D0103D0414102FF11F578
:2043A0002A5401C8EE2A40010804228D05F504F022A21374580304314E403EDB862D23EE6E
:2043C00000E0399304AF14EFC360398B609D0005222528FF00E5424B2005426D0D1F531748
:2043E000F03198FE740FC39F4005EE2252080543170D8003EF421780252A8C05E517C454C7
:204400000FFE22670292932E208511CFE0B4020D8F1B9008F2E0F513122125D322393602AF
:20442000093E12291604F4E51B31F132770131FA2010025102E4400C0103F9333601E513E1
:20444000491520240156CB801B010DE427F5801332304022601052B50002400D0022600A46
:204460000005600A208800F02081022FFFC33C7102027F0F2089008222F1067E10EE600939
:204480001EEE400C03B507F4EE217D0340027E0D200F430E00EF2395030680007E22C5019F
:2044A000E4FE218023EE02024DF03A8200425A8104EF24FE600C200302058000263C264952
:2044C0004657071401751A139007F663D523BA00ED350B0130E5363202A3743A32AF2006DA
:2044E00006E6F02251AC500329BA0A22C39007EAE094FF9007E92005400D00EC2007029011
:2045000007EB20058020203C00E021AC21190112122951080915EDF0E4A3F0ED5436C3034B
:2045200015F060303D56044DD5BF0128601E00405C7B081D900913E475F0021239DB050960
:2045400016E02402F0400624360415E06F70D8244756A4201004229049E31220510149E6D5
:204560008051411406037410F09049E776C10512792590483B602102E3716A20040012332F
:20458000B8401B0171702033339802FD41D520120702227E7C0029F9EC216A037D0251D55B
:2045A0008224029009444D0210FE60191460262402703BEB2402FFE43AFE2B111150122832
:2045C000F07D60801E71F0C333CE33CED8F9FF20140228800EE0040F066412290290094516
:2045E000839F040944E091044FBD00123ACE0109462C06201A0171FB39784F722C2200EBD9
:2046000057D40A3AFEEF780322FFE03400FE2BBF00226C2F01F7F523EB0607F58322EF91C7
:2046200004236202022CDD2AA202F791316369079007FB91389007FF204043782006242F05
:2046400060197C2500F42A49006FE000030D64556009EF644A6004EFB40A010F3D4222FDFC
:2046600019A2EB9226C2EB7A0779E97B01917AA22692EB227D0CE4FF02225620190D27C249
:20468000EBEBC0E0EAC0E0E9C0E07B014024814C0FD0E0F9D0E0FAD0E0FB7F0C12227EA2F8
:2046A000272034167F017E009017FCE4935EFE7401935F4E24FFB322900001200B06B400D2
:2046C00007E493B41827EE3D030124133CBC20C517122418903BFA122E6091FB7E237F555B
:2046E0001224361221F2EF5407639D17B16F123F3DEF600FB113E924E0F9E4904615B1771B
:20470000124273223159009421162038232508B11AE9240FB13970094008020DB13936CC26
:2047200022DE23A003F9EA340279070344F6746E22A70CB3F0B11AB1817A3B79E60222014D
:20474000C05201439C20520B513CB16F9049F604F0023F8B205B0093205B02223AFA2B6240
:2047600003A37427F039E600F8209F35A905022445904C7B23080A3BF81250956024903BDF
:20478000FDB155BA2A65201709E0FE7003FF8003EE14FF2017653F0AF582801C903BF6B14F
:2047A000E7601AE0041F2141033B79D38D280203122FD122621601E4226031004C2CA1078B
:2047C0007CEFF078D37C3B7D2147047F131227D720110BE0FF7DF47C010224099046CA20F9
:2047E0008A203D02C7D19F600B4D5D02903BC836BF0601125432903BC725ED03CA1256CBB7
:20480000600C2DEA013BCC20C5039046D0A360330157D125E300CD20351002208AE0FD7BE2
:20482000019008D6022E609046D212605400CD4054200B805400CE203D02CD74FF205A00C4
:2048400004604D00CF204700D8334760BD02CDD15B404B06D580B27B017D0662260490084C
:20486000D9746D213101EEF02128042790436812205A05436BEDF0A31244BF409F03FC905C
:2048800043702F49011CE03BBF026FF145377B01540C2EA807027E01904372EEF0200F0587
:2048A000904374F07E002B48097E02EE4405904373F145252B407F024375F06053409C0349
:2048C000649F702D805107B40405AF0412241D801A0390408E1260742420024091E44AEA8D
:2048E0000643796F12242222203B016C0220F70A235A0221CAEF7011ED600728BD0143AE1D
:204900006B230C53AEFE22EFB40114901243EDF0A0180002478C0253AEFD2006567C00E2FB
:204920004B6301E5E62899017F00400703E1037F042007037F0530E039870122EF40350303
:204940000253E6BF402E0343E640223679030F146014242C01188B5106048DFD228B9020E2
:2049600071048DC9228BA0400705CA22AF038FB0200907AF058FCB229047F920B82034009A
:204980001396AE0C23127023E580127029E5FD801F400B0090400B02C98013400B0AA011D1
:2049A00029E5CA80081123E5B0200900CB2631029047FC20DC2637204F204A200B29FE002A
:2049C000AF314C2005009228630090240B401A014A9021BF01A3A3241602E4FC78530F0157
:2049E0008FE140134DF906E4FFE4FDFC78083215018FE2601325A5048FE322C2284A630142
:204A00009B1F20054A7B0F20E71BE59A540FC394024012E04480F020600575C2A143FC0400
:204A2000201F06D228E5FC30E609801F020540CD400D00114AC70275FC806E970AE5FC2012
:204A4000E6FB302803125BB329E304E00E43F401203F0243A4042044049624EF30E1E00076
:204A6000110008A01104E20943F40220230575961EEF30E3200C2A9F200C001020CB00EFC6
:204A80002A80070475D7122275D72D40E7027584E6204B0094404B019814601001933F20C6
:204AA0009404759A4031234034019C93202301A1A320040185312004058628E5FA54302D4D
:204AC000604AC40275E74A21BD0275DF4920570143D320CB020153D35B9C21CF200B027518
:204AE000D825203001B503200401B215200401BA02200401AFB3200401CD0A200400CB4031
:204B0000AC01CA12200901BF0E200406CC96F5FFF5BDF521160081200401AEE1200401DA83
:204B200055200401F580200400E9404401E933200901972A4059199B42759CA4759D2975F9
:204B40009E48759F2475A11275A312759AF8202B0C20CB00962BD80C0FE04440F022CCEFB7
:204B6000CCCFEDCF74241005C8EFC8088005C66A09CDECCDEF5D601B302A18404C01DCAD17
:204B8000400501DDCD40ED019A742063019484228D20170053400501DD33601700144017DC
:204BA00000042017050243E1805184201901438E414E0253DB7F200B347105125DDA125F62
:204BC000CD80140143DB42BA00E433C200E5738800FC400E0453D5EFE4F550662D2E61D11F
:204BE000204C030175E465400501D647226C0198ED23E20E11E0F46005A3E0B4FF0C904A97
:204C00009A741824160313F080104017200F201F00122007009B43F04DFF00812E890998AD
:204C2000E0FE64086004EEB4042DC8029974284C2A2007033AF0EF123088072C32E4911C7B
:204C4000EF24D835B1163FFEED3493FDEC3416FC7B007A8079037800121DEF914A204E235A
:204C6000F4054A9AE0C3911525BE08122B08ECC0E0EDC0E0B721401D201605FE911CD0E0FA
:204C8000FB66B226B80CF8EB2FFBEA3EFAE93DF9E83CF8206D8022203A02EF24542069062C
:204CA0000B91417BA87A163AA0011DEF2E0640A30514605D14601B2809040C24FC707A4175
:204CC0005101CE317B940975CE21F5FF8BCF22E4FA201404EA2440F5CE400716FFC37407D6
:204CE0009115745B2FF582743D3EF583E49124C39DF5CF401A01244880220C903D5B912423
:204D00002DF5CF0AEAB408C462B701CE0140494052224F02EB25E0602F0775CE0FF5FFCF1C
:204D2000EBCF2BF50603A4F5CF229FFF3F1203FE227B6436F809022B089325E0FDE433FC01
:204D4000201D2E7201AEF0286F2EC508EBFFE4C313EF1322FE5B56093CFCE422C8ECC8C942
:204D6000EDC9382220CD41B500E530300F02C32253FACFEFB4080543FA308012EF255007CF
:204D800043FA208009EFB402200819108000D322E5F45418131313541FFF22E5F75406FF7B
:204DA000BF06037F08A00A0004650760150002507BE5000B0243E6102062251201EF222D25
:204DC000002003309703ED30E2FB200C02AFEF22200233DA00EFED0107600A04082253EC14
:204DE000F72026015402206902ED540460050701FF22904379E01224E50E437EE0B1199071
:204E0000437FE09000020228CE2855200506FEAF01E4FDAB0521DC27C100EB47C1099040CE
:204E2000D8122E40AE02AF0126AA074079E79048C87402333303C5122E60202601C00760F1
:204E40000A0040201606B16AD00702427320094EA300DD22400146152AD1290D02903E4E1F
:204E6000253303903E5212203307903E77F0D3903E56528D073E55E09400400122205A0253
:204E80003E7957400E01FFA32D340115CF40366035011B12205140380440E94A600C203B6D
:204EA00006E0F58212619AFF4893400D01245749C7220D2FEC217D40120104FF805F009F19
:204EC000404F03940050C020F2007B2AD3289E007B2B6321FEFE000E03D1F5FFEF28330303
:204EE000540F42D620172416048FD422F5D7200A0153D6602903E9D122EA401C403502EF09
:204F0000F5D86018000F202E01D14B20132F0006F0C8E4C4540F48401E028FD4F560400007
:204F2000D5800C400508E5D1540133333354F85E8304E5D354074F2C3303B40109D2445BFB
:204F40000443AE4022C240080153AE26E704C80122E5C821A90175C821D900C841A6085339
:204F600054DF8554805354BF6005007F20052413055350DF8550FD600800BFC008007F2018
:204F800008002268EF04904B48F18C20041CE0F1A58002C333D8FC904B4BF0ED4C6013F137
:204FA000367008EE4FF0FDE4FFF13F201F03F1958041201A09F1366019EFF4FFEE5FF0205B
:204FC0001323AD07FDFCF149904CC9E0A026014BE02FD902F452542079002221CB201801B9
:204FE000FE5F40D505ED540F4FF5DB400900EF234E00DC211302EDF5DD200500EC600501DA
:2050000043DB376F0349DDF1895215355B0A49DD7F01D1D79049DF7F02400600E160A8036F
:205020007F03C1DC69A802A3ECF03589205E00A36017002228B316FEEF5407FF7401A807EB
:2050400008227F0F7E1DF1B502225190472F2248202822D8029046BE2E90006C20910106B8
:205060007322150212229C200D11EFF0604E20004B9046BCE0C330E501D3920589170146E2
:20508000BF2022049008AF122E299708BDE09008B2F09046BB200703B3127847604600FB05
:2050A0002D24042071EF701C205742D70746B9113E7F02800A200E20620346B931304A55ED
:2050C000804D012FFA4F1B00F53C823643017477200300BE2ACE002120C6405F094429E082
:2050E0005437F0E0FE5420208603F090442A281C22CB01B9CD40B903904425122089408F15
:205100002029002821AB0146BD20144E8160C70260EE44203602BBF0E4207707F0C200ED6C
:20512000D3948240491C077F0212213E90442C202104EA494B605D206E2096400F0340E9A9
:20514000312843C6207604FF30E00FE4210502F0311F340106A311478018311F40180290E1
:20516000089840D1415E029008998354603B0390089B1240884094007D297202122067247F
:205180006B017F0020CE0028202A0597F02224B6F92F5200EF825803F5828C83610305FF08
:2051A000C003C002C03CAF01F5122044403E04609045F8E0203503F09045F920070029203E
:2051C0000700FA60F801442A60F80AD001D002D0030150904C24202C222604E5DB20E4FB87
:2051E000200701F5DC327A2256201600402E910631B31229E4AEF0624307EEF5DD0DEDB49C
:2052000004E0201F424E06EDA4F58285F083427104E5DBC330E4306800F026AD09007900AA
:2052200090489D022E60942007030BF0A3CEA0140422FF902E33205404E9227D017B39B907
:20524000020227D72B652027401301240B20D639110C2E40A801AC02AD037B0122FFE4446C
:205260006C60130390000322201F02A801FC6019202500E42A0F249C0512791C9049082069
:20528000430329F9EA3C601E201B2058200502E9240240332D3B0075203A01FA748B030D65
:2052A00052DF8552CA4356208556A0227C0022CF017E0042D101E07E2F0E01EE3A81550428
:2052C000EC22FDEDFF630640690290000438FE42602063023EFA2240092EFE3A232D790000
:2052E000FF205E2D33008F427A067BFF7A1F79947D350B0575F00DA4248A44FF0141F581DF
:205300001E06D154FE4402F5D1363A22B500E422B003F0A3F0223CDB4E7800E0210B806DBF
:2053200000C4467F04012274FFF526DB028D45F04265074FDF9003CAE090032CA70303CA41
:2053400004F02A930722AA06A907022FCD302F011002302F0803CEE0FD75F0AA90032CD3ED
:205360000534AF82AE83EF25B6805803A3022E40410A002D6FEA200901749F213702122E32
:205380006021140012200D265901BC7B40B6038C0225F360D84B3904E022E9240C41332074
:2053A00047017F06302B200600072006419D06C3E99FF9EA9EFAE1012101240740290D74AF
:2053C0000775F0D0022AA1ED9FFEEC940041F30322125DE7222707E5BD54F84404F5BD27AC
:2053E00025000175CD029007E62094099000061228CEED90000726DB23A770CD817D09D305
:205400009FEC228E82758300EF201A614900E74149003C2149229C009620470575D7097563
:20542000F41820CE07600227FD9048420222420129B928100022870D26560C81E09FFF907D
:205440004380E09EFE22242040A000222242207121CC8E89004E64DB0290439C637C209D12
:205460002BFE030475FC4120080122E0661B01F5F48022013BF6802201242C4047047440AE
:20548000227F083004206521ED007C213601AF05252B204201AF03376E20070124FF295442
:2054A00001FFFE343800375433001282D120AD00404F0A20870013417603CEE0C313388049
:2054C00000132162087D010222E2E512240720E601351120E600EC66C000682185000640CF
:2054E000720A227F807E387D01FC021DEF622602AA06F9207D03F0E4A3F02006007B61E9AC
:2055000000FD232A2585402D017402201321F700602E39200F45100305F0A322745B609F92
:2055200023CE412A210F08022CADE99582EA9583209C00602D2D24490324E05430213E002D
:20554000802F4E01A3E4202B22230005222321A1001242E70422AC00AD0121640A0322A813
:2055600004A905AA06AB0722210B45840DFF22903F42E0FF14F0EF22904067800808E5D24F
:2055800054804414F5D222206B23AF00CE804500E4237701240034D402227E002FF720541F
:2055A00006122E4089828A8340AA0502F0A31422FF4306011FFE202705FFEC35F0FE22634E
:2055C000A4010508A41000A324470C7FC074019322FFEE5CFEEF5D4E20EF00F0403946A49F
:2055E00003FF023F8328FC04FE022AEDFF7437218703532B74FF321F215D725602E0F5955D
:2056000029EA020722FFE0FD00800011020002120B120E02050302121013BB01B0062009C2
:205620001213C013C200070401060213C713D50013FF0106E109330E7FC67DBA7A4C7EA234
:20564000037104A4C75AFFE0300004904594742026A4008E62E3887FA8AA084594E0FB90BB
:205660004590E0F947E30FE9F5837880EBF9E0A3F608D9FA904592E001150030C0152C4DD7
:2056800000F9204844CC03FAF582EF2C9004F0A3D9FCEA600A09EBFE7980E4FAEBFC783062
:2056A000549C18E6F5F0E7A4FFE02FFDE435F0FFEA2DF0E43FFAA308DCE9EAF054A407A369
:2056C00009DED52290464DE00990014653209003464FE0FA409000EA609000FA409004DA42
:2056E000FA904651E001150030E00115004DE0001510C378807930E709FFE6083FF0A3DB2D
:20570000F6E4332339014656E00A63005C40630058E0003720F4E00063005AE00115E0023F
:20572000630056E00015E00163009FE00063004784F781580290472728E9014724E000316C
:20574000027880EDA05D03EBF404FB202C49F602F582EC401900E020AB056FFEEB5EFEEFE8
:20576000345E05DDF12290078E401D024C600920090212793226D1072222900947122E60BF
:2057800028B0094DD5F1C1715B45F0602160120040889840132475682F8879403518E4907B
:2057A000096512E65B75F0EDE572714CE054F06440700241FFE4FE201100EE201000FD2BEF
:2057C0009304900966EEF0393F0423EDB4020B200C2F6C0404EEF0800FA0220354F0FDBD09
:2057E0002C7208010EEEB404C9EF6006202133CC200501E0F4404A0312693D50205101E50A
:2058000015336B0141FF40161090000AF1F5E030E40990000C12AA8A549F602C029000BE00
:205820002015242E01BE05201800C220180230E120402E00FF206702900009275903E020A6
:20584000E52E200C03EF9000C1400D01B4FF601F20110290000B2010424E05E04401FFA3EC
:20586000E0423B00CF456A403F0612B79512543950602B01F572202D20D630EC20F825628A
:2058800003900677F0209A01E2022E7D2006023D7F0427EE2023610D24BF036440701FA057
:2058A0000E03EF540FF0A00A00E0329101E57220580331BF800A203701E00561762052591C
:2058C000F2202420A20807022E34904AB4122E29060ADCF9E43AFA0229B9D1494A566E0855
:2058E0004002C146E924B7D16E55A01D09796B12CE6630000A9040C0D16830E50281CAD1E1
:205900004924B6D16E12D06F703E200A20270D30E735F189127C3E54076403702A20130A7D
:20592000B9D16ED39440501FF189EF27DC0E02FFF1B412B837EF4404F1971291F4201F069D
:20594000BBD16E441081C52009603D0621540F6401701B2C420230E70F2014201E0230E455
:205960000635F60201801120050200800B20142029015410290803EF4E6014200E00032098
:205980000E02FBF18627D62061030312BA13609F0120E2809F00DF4080010540800C202A46
:2059A00003FF30E42E403440E802EF54EF2B7D200D0006627104F189F1B4EF20B90602C36F
:2059C0007001D31298224E046BE04FC135201F60440203500C200A00BA20421112A4A18063
:2059E0000890076DE00412FD6ED14912FC98400C09F4600712BA1B5002C13A2026203102FD
:205A0000C3940640F70212BADA804E02EF4401A0F5041295F37406207906C13A300002C10C
:205A20003FC02E010740800C20A50120E0800A215D02FFC0072020207600FD203802B6FEEE
:205A4000C06BBC201106B1D16E904664F060EC0A54034401904665D14871592CEF0266E596
:205A6000F04252833B06D0071222A1EF70204E041279E42405216E08201279E324291296AF
:205A800016201002127CA12087200801242D411002127AF3205902EB715B2022051295FA82
:205AA00012BA144B86017D95202002127BB8207F01B7C6201F62240074223D03A6122AA160
:205AC00020E00329B9AEF02F1F213C61E040320156CB20B8202A00028066012406200E164A
:205AE0007440C39F5008D149F1BA742F80167411D39F500BEF24EF202604F1BAEF8005403D
:205B00000600E4208C203520DA2015E000EC207D012431409E01F1A480D30212227E401ED3
:205B200002047B01810D202004127C597B01C01F017F118021216600072051627100066164
:205B40007B0DF19802B7051279DCE4FFD17522EF413C42F62D31003C40078215227C019079
:205B6000442E58A0137C654A3C014AB0251202122E60E3001B10E18512B7A4F198F1FC50C6
:205B800017E0FF94045002245C000420BE00BD80AB0212AF0B211C04FD78D14824220D02E9
:205BA0009040CE200800E8400800D4200800E9400800D5200800EA400800D6200800E6406F
:205BC0000800CC200800E7400800CD200841870DFD16EFF0F198129E87E49040C3F0208314
:205BE00005E0600EA3F1A12CCE044079C77F0520E74013027F016039DE200901D147423D07
:205C00000130E342B400E0655A0024201500E0214D0424E2127A55812E200C201B02129F80
:205C2000D5A14D012FD1214D07FC8C8024D1497159258D001C20320212FD49C02C017159EA
:205C4000E0032A213C227221060022215960092137000440F1296B0340C0022E2E52414CB9
:205C60003B0D00022B6B401D00EB401D02EE8FF02BF30124B1400B8601203705DA22904B37
:205C800064122E7F200500B743EB07E716540FFFBF01104010402003BCD16EC420110122DB
:205CA0007F2E1124AD24A904F1CB9040C63A1D01C39F2045005B670B011287428307540785
:205CC000FF64026005EF24780E16115925E0FBEC33FAEDAE047803C39C8603801C1159E0E0
:205CE000020E02FBAA06401DD639032BFFEE3A2AD401095B46AE00FD2008005D605A029001
:205D000040BF257B09AE04AF051107AC06AD07201700E02B8A2D311AF69008B9127B6B90E4
:205D200008C3122E601291D5240712FC84C20390067EF040130487A112B7E325A30F227E58
:205D400020331812E7A6127C3812D315600D802903866E4480213EC00C0420E702216E4B96
:205D600019096065300C621291CC2405202220F7026405702019300F01704C22950230E7CD
:205D800046401B0009201B0230E316400A000A200A0A1291C6240B1291E912CF7D73500224
:205DA0001291CA801701A7F520220512CFF41291EBC2D90FE7A012D319602E20070302901F
:205DC000B22009252020606A0220E71A200A23F12C08205201B403205004CC12D300704025
:205DE00027200A0124062015208F0290066B2EFD0FB402027E80EF4E9007901286484A6062
:205E0000472621201E4622020879BF2622E1008F0412864924B8201A272B029008BF273255
:205E20000EFDBD04047D4080027D00EE4DFEEF7F4049067F80EE4F90067256DC040672743A
:205E4000FFF0406D40FD09FF540F24FE7002E1C71440840070200B208B039B240460200658
:205E60006092414509FE740AD39E4002802AEF214201E155209100E0273040424119223920
:205E8000089008C0F0600CE0FFD3239E0405740B9E40818042842C652180A14E04E1273049
:205EA000E324400D40550DFDEF240DFFE433FEC3ED1257CD50203180240254F712E002311E
:205EC000E12580834B4232019D53407C02122E95C0560130E3417BC0B000FF4016217DE14C
:205EE00002CEE0001B00FE400B40A00824F4C39EC39F1291D4219725C620210008216527BB
:205F00008603600281FB400E40FD204B20FD00E0401300704013415420800330E60D124361
:205F200059404702440D80288E2387600C01091280DE515D01FA7E224706ED12FD8A1296A4
:205F400008C2A50430E702C180C049216F800C828DE016C2E2099122CE03D3940140E0355C
:205F60004482AD02640360204601E55823FD0049409EE02E91C3230587A47B01800623BD63
:205F800020090412FD5CD20480E7815201640F406B4065414E414B63F903866E4404413D61
:205FA00002D000506245402C227D2180241D034012CDEF4245442203866E4401402821B2B6
:205FC00040A603FF30E10CE000180220800E3BDFE001515CBD4028000B2035021291D42747
:205FE0000E02EFC1104010405D231E01FDEF206203FCEDC39C2145001520170212D05E20D5
:206000009C4009605B0230E067408F000EC05F0212FCB22FDD01EC14209302B5050527A160
:2060200009800C1279FBFAED127A7FA3F60712960CED6002A1EA204B60410120E3A00C4029
:2060400070E400663EA1020F7067817A065418605D804EED2052017008205122D9E002544D
:20606000823D04EC146D7039C0510230E32E400AE0094F0017A04F0060E5022102041228C3
:2060800060FF4169E207B80014E203B80010202801806BC058211840F7005B400F41630586
:2060A00030E021ED2402401520D64079213501FFED288A409521330470318021ED332A01E9
:2060C0004029402062FC0AED24FEFFE434FF12F611FF459501B507E10444000164600204C7
:2060E00012866371003724E4004A449B00B22008289325E8210E41F5256964AB250400B649
:20610000202C63D94035006F801602D00040601EA09520942029804902E924BA203063EE88
:2061200043D8006E8030202840CF03FE30E03B20290124BB2022065406FDEE54066DE00026
:206140001F40DE00FE20DF0324FE540FA066A27641FD0103F020A5264CA02E828F401800BF
:20616000014018405F406D44460207EFF4E00424E200B440BF2226202B262C01C003764701
:206180002707E404D442E50124F622B1E4009D41C10120E680ED807504440402909620453B
:2061A000607101FF542E6005121CE0D39D50402301EF542CC80708A42D127E13E0D32581E2
:2061C000E10026409D0154E0619202C39F14414F208402EF131332000229F9EC25540177BD
:2061E0009E9932055E700201B231A069436F0031A03C061F31C9240931E9E00AB8E00021AC
:2062000000FF200980C10CC39F31D4127D14EF802612D02B2EC0070672E054BF6F703420CA
:20622000204089608702B50725C067343204BC80179008353228FC01481228D5211923FDF2
:206240000322B592032033410423B5217E060221B9EF30E76C201341CF0230E31320094197
:20626000B9003127C80031E500F80031E50034003147C5003145320212FCCD21F50230E300
:2062800017A03121EA40AFE01135073AFAE92FF9EE800C202F406B203F23A3A3EE039008E5
:2062A000C1F0A0BC0DFF30076454E26480705E9008C2E0286E004A201C00E03E7D034E30D0
:2062C0000907207E06D300603031CCB1203842002072400A0003208A004FA00B40DCC00BF5
:2062E000482B024F700860410203600CA0620254EA12218781930530E002D2032240BC0135
:206300007E00832C00E92A3C612D00E9A016213800E98B4840C0003A4A32041C122E60EF5A
:20632000270501B1EB885405F0FDEF54F0FF2045004D205908EE14605E14700281E6282864
:206340000202612A400502A14824261903A1D4B1EB239681F249880087AC44299C017DB898
:20636000201B077928B1E824B7F1EF200568AB00F03676009028AB114FB1E812D0B0740AA6
:20638000B1E8D1017409A1D1F19D207802B7F1F8408807866830E01720E70C401121056508
:2063A000AA200B0401F1EF8007400702127A5C2093A02900E1E0002600202014201E4138FD
:2063C0000130E2E0001544BEA02AE001514A1E556221212F690C7E20EF7F0030E4027F40D1
:2063E000EF4EFF204160A8009F3B6501604E20B6442C401504D9D1167F09201D00B1209283
:2064000006B1D5D101EFA1D180570420E60261CD201862020E7E51900920F07404C39E5061
:206420000B7404F0215160BE201402E02402204601F196812B211A02B6FE12C12D2AC82080
:2064400040405900FF602900035F5C08D3EF9DEC1257CF40372614601600FE201703C3EF81
:206460009DFF213ACEA902EE240A402A02B1EB2D3975475DAC7403227E8005206201FC82C0
:20648000C15720F201D0A9215920B20530E00712CEAC214C00062006814B409700E420EB39
:2064A000E1013B44FFE1003B01878C2E850554607002819B20A6456E24C6017072200B40A1
:2064C0002603FF20E067200A403B0220E45D404A02EF4408204C00BC2128206E0412FC73DA
:2064E00031E7405C400F224F21040131E720D2205D2091A05A2014601F0212A7F540CB243E
:206500006E04E924BED116403E8021009F3079008041D440716A2B2031400B23AE2009C0BF
:206520005B017E00605DABACE0011802240B2F40624161A1BB811802127D4440850086E2D9
:206540000A4700BA43CB03741DB1E8C1B200903D4D0187A18160017F1D216207B1EBF1F6B4
:206560007F26B1EB220B20EE405B03FEEF042E206722D9221D207D6249030F90091F326677
:2065800042D70220E644A07701FC9A8011E209BF6033232603091FE04FA09B01E018204BD8
:2065A000E3000A01800A20610587BA74FF12284177430E00B143450011A08420800124D8DB
:2065C000217B012F042009408A031228BC22409900FE407243F900B940DA00EE2016A01071
:2065E000022224DF401102222409800600D8600600FA21A4C43701240840123A0700BC30A8
:20660000EC01E18B2721004A400700E9818200E0801260BA059008C9128648813D02128731
:20662000A42CB403CA127B9C20306237039008D1F03DB007B7299008C612B6F340434009E2
:20664000428E408E0108CC3F510B0FF404FFC3740B9FF18D24D82202202801FC7E40050897
:206660002E40F1A39008CAF18C31B70216F18E442D22D50128BC200A417B00F1202E60F5F3
:20668000200800B9403700C92466200B00B8400B00D1203500BA400801CCE024D305F0FE62
:2066A000F18EF196410066BF014404204500EF47D520EE01CCE0201E004F203701BCD16F19
:2066C0002D010F0C205FE1007B00EE209E00FE2CEE02AF0640308D201900BD411783D2304B
:2066E00035030879CD12E3028340B5049D5312866E649B2DDE2085433D00FD20384456028B
:20670000FBC003402204B6FA129FEF201240C50212FCD9401201F76F2414019AB43AF74034
:206720000D21B3022224BB40692F3A41C20590094D122E6020050330042312270401B6035F
:20674000E0008202077996E00082258403227EC20459D6E00022E505A43C4B4056027403F6
:20676000227AA300FA5B1000BC310C0FBFF00222FB921DC21E02B83B90092F12406C003263
:2067800036AD309B22B301E20A9391050312A0661101201F0211ACE964FE0230E344A00DE4
:2067A0004771212B2390A0106D754ADD03FDBD011FE00313017D514227213C020779866099
:2067C000B0018007400A0212FD65207208E0900785F090121DE049BE0424E6129616602841
:2067E00009857F010286759008FB123E63002E80080060A25700FE62570341A251AC231A62
:206800000097825603FB12B7F32186214C03FB12FCD2200948E1202000D820500111A9C008
:20682000BB043051AC1296D2F422FB401940C700FE24950B11A91279FE12CF76FEC3EF9ED7
:206840008402021228BC6041201F02D39426621000262040C70C2030E2020920180487BAC6
:20686000E451A9632F8274030212F7C0204000B6A08267FA200F00BA200F200644D000FFFA
:20688000226B27842068240F01EE142734C04000082008402140ED0391DD7401A00E4170A4
:2068A000601200E320BE014440E0061522040191ED25560151A3603BC02CA01600BFE00D27
:2068C0001600C0E00D1602C151A3212A017405248220AC4167206C42BF40C24113247C20A6
:2068E0001800B980CC461A630202300409409F20720197A3230E00E040236310202BA310E6
:20690000212903B6FEF1EF2010404E630E00FE630E0B51B49003C1E070031281F42262B383
